{"contracts/RewardSystem.sol":{"RewardSystem":{"abi":[{"inputs":[{"internalType":"address","name":"_rewardToken","type":"address"}],"stateMutability":"nonpayable","type":"constructor"},{"inputs":[],"name":"EnforcedPause","type":"error"},{"inputs":[],"name":"ExpectedPause","type":"error"},{"inputs":[{"internalType":"address","name":"owner","type":"address"}],"name":"OwnableInvalidOwner","type":"error"},{"inputs":[{"internalType":"address","name":"account","type":"address"}],"name":"OwnableUnauthorizedAccount","type":"error"},{"inputs":[],"name":"ReentrancyGuardReentrantCall","type":"error"},{"anonymous":false,"inputs":[{"indexed":true,"internalType":"address","name":"user","type":"address"},{"indexed":false,"internalType":"uint256","name":"achievementId","type":"uint256"},{"indexed":false,"internalType":"string","name":"achievementName","type":"string"}],"name":"AchievementUnlocked","type":"event"},{"anonymous":false,"inputs":[{"indexed":true,"internalType":"address","name":"user","type":"address"},{"indexed":false,"internalType":"uint256","name":"newLevel","type":"uint256"}],"name":"LevelUp","type":"event"},{"anonymous":false,"inputs":[{"indexed":true,"internalType":"address","name":"previousOwner","type":"address"},{"indexed":true,"internalType":"address","name":"newOwner","type":"address"}],"name":"OwnershipTransferred","type":"event"},{"anonymous":false,"inputs":[{"indexed":false,"internalType":"address","name":"account","type":"address"}],"name":"Paused","type":"event"},{"anonymous":false,"inputs":[{"indexed":true,"internalType":"address","name":"user","type":"address"},{"indexed":false,"internalType":"uint256","name":"points","type":"uint256"},{"indexed":false,"internalType":"string","name":"reason","type":"string"}],"name":"PointsEarned","type":"event"},{"anonymous":false,"inputs":[{"indexed":true,"internalType":"address","name":"user","type":"address"},{"indexed":false,"internalType":"uint256","name":"reputation","type":"uint256"},{"indexed":false,"internalType":"string","name":"reason","type":"string"}],"name":"ReputationEarned","type":"event"},{"anonymous":false,"inputs":[{"indexed":true,"internalType":"address","name":"user","type":"address"},{"indexed":false,"internalType":"uint256","name":"amount","type":"uint256"}],"name":"RewardClaimed","type":"event"},{"anonymous":false,"inputs":[{"indexed":true,"internalType":"address","name":"user","type":"address"},{"indexed":false,"internalType":"uint256","name":"newTier","type":"uint256"}],"name":"TierUpgraded","type":"event"},{"anonymous":false,"inputs":[{"indexed":false,"internalType":"address","name":"account","type":"address"}],"name":"Unpaused","type":"event"},{"inputs":[],"name":"BASE_POINTS_PER_SWAP","outputs":[{"internalType":"uint256","name":"","type":"uint256"}],"stateMutability":"view","type":"function"},{"inputs":[],"name":"BASE_REPUTATION_PER_SWAP","outputs":[{"internalType":"uint256","name":"","type":"uint256"}],"stateMutability":"view","type":"function"},{"inputs":[],"name":"CROSS_CHAIN_BONUS","outputs":[{"internalType":"uint256","name":"","type":"uint256"}],"stateMutability":"view","type":"function"},{"inputs":[],"name":"LEVEL_UP_THRESHOLD","outputs":[{"internalType":"uint256","name":"","type":"uint256"}],"stateMutability":"view","type":"function"},{"inputs":[],"name":"VOLUME_BONUS_THRESHOLD","outputs":[{"internalType":"uint256","name":"","type":"uint256"}],"stateMutability":"view","type":"function"},{"inputs":[{"internalType":"uint256","name":"","type":"uint256"}],"name":"achievements","outputs":[{"internalType":"uint256","name":"id","type":"uint256"},{"internalType":"string","name":"name","type":"string"},{"internalType":"string","name":"description","type":"string"},{"internalType":"uint256","name":"pointsReward","type":"uint256"},{"internalType":"uint256","name":"reputationReward","type":"uint256"},{"internalType":"bool","name":"isActive","type":"bool"},{"internalType":"uint256","name":"requiredSwaps","type":"uint256"},{"internalType":"uint256","name":"requiredVolume","type":"uint256"},{"internalType":"uint256","name":"requiredChains","type":"uint256"}],"stateMutability":"view","type":"function"},{"inputs":[{"internalType":"string","name":"name","type":"string"},{"internalType":"string","name":"description","type":"string"},{"internalType":"uint256","name":"pointsReward","type":"uint256"},{"internalType":"uint256","name":"reputationReward","type":"uint256"},{"internalType":"uint256","name":"requiredSwaps","type":"uint256"},{"internalType":"uint256","name":"requiredVolume","type":"uint256"},{"internalType":"uint256","name":"requiredChains","type":"uint256"}],"name":"addAchievement","outputs":[],"stateMutability":"nonpayable","type":"function"},{"inputs":[{"internalType":"string","name":"name","type":"string"},{"internalType":"uint256","name":"minPoints","type":"uint256"},{"internalType":"uint256","name":"minReputation","type":"uint256"},{"internalType":"uint256","name":"bonusMultiplier","type":"uint256"},{"internalType":"bool","name":"isActive","type":"bool"}],"name":"addRewardTier","outputs":[],"stateMutability":"nonpayable","type":"function"},{"inputs":[{"internalType":"address","name":"user","type":"address"},{"internalType":"uint256","name":"points","type":"uint256"},{"internalType":"string","name":"reason","type":"string"}],"name":"awardBonusPoints","outputs":[],"stateMutability":"nonpayable","type":"function"},{"inputs":[{"internalType":"address","name":"user","type":"address"},{"internalType":"uint256","name":"reputation","type":"uint256"},{"internalType":"string","name":"reason","type":"string"}],"name":"awardReputation","outputs":[],"stateMutability":"nonpayable","type":"function"},{"inputs":[{"internalType":"address","name":"user","type":"address"},{"internalType":"uint256","name":"swapAmount","type":"uint256"},{"internalType":"bool","name":"isCrossChain","type":"bool"},{"internalType":"uint256","name":"chainCount","type":"uint256"}],"name":"awardSwapRewards","outputs":[],"stateMutability":"nonpayable","type":"function"},{"inputs":[{"internalType":"uint256","name":"amount","type":"uint256"}],"name":"claimRewards","outputs":[],"stateMutability":"nonpayable","type":"function"},{"inputs":[{"internalType":"uint256","name":"achievementId","type":"uint256"}],"name":"getAchievement","outputs":[{"components":[{"internalType":"uint256","name":"id","type":"uint256"},{"internalType":"string","name":"name","type":"string"},{"internalType":"string","name":"description","type":"string"},{"internalType":"uint256","name":"pointsReward","type":"uint256"},{"internalType":"uint256","name":"reputationReward","type":"uint256"},{"internalType":"bool","name":"isActive","type":"bool"},{"internalType":"uint256","name":"requiredSwaps","type":"uint256"},{"internalType":"uint256","name":"requiredVolume","type":"uint256"},{"internalType":"uint256","name":"requiredChains","type":"uint256"}],"internalType":"struct RewardSystem.Achievement","name":"","type":"tuple"}],"stateMutability":"view","type":"function"},{"inputs":[{"internalType":"uint256","name":"tierId","type":"uint256"}],"name":"getRewardTier","outputs":[{"components":[{"internalType":"uint256","name":"tierId","type":"uint256"},{"internalType":"string","name":"name","type":"string"},{"internalType":"uint256","name":"minPoints","type":"uint256"},{"internalType":"uint256","name":"minReputation","type":"uint256"},{"internalType":"uint256","name":"bonusMultiplier","type":"uint256"},{"internalType":"bool","name":"isActive","type":"bool"}],"internalType":"struct RewardSystem.RewardTier","name":"","type":"tuple"}],"stateMutability":"view","type":"function"},{"inputs":[{"internalType":"address","name":"user","type":"address"},{"internalType":"string","name":"activity","type":"string"}],"name":"getUserActivityStat","outputs":[{"internalType":"uint256","name":"","type":"uint256"}],"stateMutability":"view","type":"function"},{"inputs":[{"internalType":"address","name":"user","type":"address"}],"name":"getUserRewards","outputs":[{"internalType":"uint256","name":"totalPoints","type":"uint256"},{"internalType":"uint256","name":"totalReputation","type":"uint256"},{"internalType":"uint256","name":"level","type":"uint256"},{"internalType":"uint256","name":"achievementsUnlocked","type":"uint256"},{"internalType":"uint256","name":"lastRewardTime","type":"uint256"}],"stateMutability":"view","type":"function"},{"inputs":[{"internalType":"address","name":"user","type":"address"},{"internalType":"uint256","name":"achievementId","type":"uint256"}],"name":"hasUnlockedAchievement","outputs":[{"internalType":"bool","name":"","type":"bool"}],"stateMutability":"view","type":"function"},{"inputs":[],"name":"owner","outputs":[{"internalType":"address","name":"","type":"address"}],"stateMutability":"view","type":"function"},{"inputs":[],"name":"pause","outputs":[],"stateMutability":"nonpayable","type":"function"},{"inputs":[],"name":"paused","outputs":[{"internalType":"bool","name":"","type":"bool"}],"stateMutability":"view","type":"function"},{"inputs":[],"name":"renounceOwnership","outputs":[],"stateMutability":"nonpayable","type":"function"},{"inputs":[{"internalType":"uint256","name":"","type":"uint256"}],"name":"rewardTiers","outputs":[{"internalType":"uint256","name":"tierId","type":"uint256"},{"internalType":"string","name":"name","type":"string"},{"internalType":"uint256","name":"minPoints","type":"uint256"},{"internalType":"uint256","name":"minReputation","type":"uint256"},{"internalType":"uint256","name":"bonusMultiplier","type":"uint256"},{"internalType":"bool","name":"isActive","type":"bool"}],"stateMutability":"view","type":"function"},{"inputs":[],"name":"rewardToken","outputs":[{"internalType":"contract IERC20","name":"","type":"address"}],"stateMutability":"view","type":"function"},{"inputs":[{"internalType":"address","name":"newOwner","type":"address"}],"name":"transferOwnership","outputs":[],"stateMutability":"nonpayable","type":"function"},{"inputs":[{"internalType":"address","name":"user","type":"address"},{"internalType":"uint256","name":"achievementId","type":"uint256"}],"name":"unlockAchievement","outputs":[],"stateMutability":"nonpayable","type":"function"},{"inputs":[],"name":"unpause","outputs":[],"stateMutability":"nonpayable","type":"function"},{"inputs":[{"internalType":"address","name":"newRewardToken","type":"address"}],"name":"updateRewardToken","outputs":[],"stateMutability":"nonpayable","type":"function"},{"inputs":[{"internalType":"address","name":"","type":"address"}],"name":"userRewards","outputs":[{"internalType":"uint256","name":"totalPoints","type":"uint256"},{"internalType":"uint256","name":"totalReputation","type":"uint256"},{"internalType":"uint256","name":"level","type":"uint256"},{"internalType":"uint256","name":"achievementsUnlocked","type":"uint256"},{"internalType":"uint256","name":"lastRewardTime","type":"uint256"}],"stateMutability":"view","type":"function"}],"evm":{"bytecode":{"linkReferences":{},"object":"60806040523480156200001157600080fd5b5060405162002b4538038062002b45833981016040819052620000349162000612565b33806200005b57604051631e4fbdf760e01b81526000600482015260240160405180910390fd5b6200006681620000b7565b506000805460ff60a01b191690556001808055600780546001600160a01b0319166001600160a01b0384161790556005819055600655620000a662000107565b620000b06200036c565b50620007dd565b600080546001600160a01b038381166001600160a01b0319831681178455604051919092169283917f8be0079c531659141344cd1fd0a4f28419497f9722a3daafe3b4186f6b6457e09190a35050565b6200017a6040518060400160405280600a8152602001690466972737420537761760b41b8152506040518060400160405280601881526020017f436f6d706c65746520796f7572206669727374207377617000000000000000008152506032600a6001600060016200046160201b60201c565b620001f86040518060400160405280600d81526020016c2b37b63ab6b2902a3930b232b960991b8152506040518060400160405280601d81526020017f5472616465206f76657220313030302045544820696e20766f6c756d6500000081525060c860196000683635c9adc5dea0000060016200046160201b60201c565b6200027e6040518060400160405280601481526020017f43726f73732d436861696e204578706c6f7265720000000000000000000000008152506040518060400160405280601e81526020017f53776170206163726f7373203320646966666572656e7420636861696e73000081525061012c603260008060036200046160201b60201c565b620002e76040518060400160405280600b81526020016a29bbb0b81026b0b9ba32b960a91b81525060405180604001604052806012815260200171436f6d706c6574652031303020737761707360701b8152506101f4606480600060016200046160201b60201c565b6200036a6040518060400160405280601081526020016f2632b3b2b73230b93c902a3930b232b960811b8152506040518060400160405280601e81526020017f5472616465206f7665722031303030302045544820696e20766f6c756d6500008152506103e860c8600069021e19e0c9bab240000060016200046160201b60201c565b565b60408051808201909152600681526542726f6e7a6560d01b60208201526200039b906000806064600162000560565b60408051808201909152600681526529b4b63b32b960d11b6020820152620003cc906103e86032607d600162000560565b60408051808201909152600481526311dbdb1960e21b6020820152620003fb9061138860646096600162000560565b604080518082019091526008815267506c6174696e756d60c01b60208201526200042d9061271060c880600162000560565b604080518082019091526007815266111a585b5bdb9960ca1b60208201526200036a906161a86101f461012c600162000560565b600580549081906000620004758362000644565b91905055506040518061012001604052808281526020018981526020018881526020018781526020018681526020016001151581526020018581526020018481526020018381525060036000838152602001908152602001600020600082015181600001556020820151816001019081620004f1919062000711565b506040820151600282019062000508908262000711565b50606082015160038201556080820151600482015560a082015160058201805460ff191691151591909117905560c0820151600682015560e08201516007820155610100909101516008909101555050505050505050565b600680549081906000620005748362000644565b90915550506040805160c0810182528281526020808201898152828401899052606083018890526080830187905285151560a0840152600085815260049092529290208151815591519091906001820190620005d1908262000711565b5060408201516002820155606082015160038201556080820151600482015560a0909101516005909101805460ff1916911515919091179055505050505050565b6000602082840312156200062557600080fd5b81516001600160a01b03811681146200063d57600080fd5b9392505050565b6000600182016200066557634e487b7160e01b600052601160045260246000fd5b5060010190565b634e487b7160e01b600052604160045260246000fd5b600181811c908216806200069757607f821691505b602082108103620006b857634e487b7160e01b600052602260045260246000fd5b50919050565b601f8211156200070c57600081815260208120601f850160051c81016020861015620006e75750805b601f850160051c820191505b818110156200070857828155600101620006f3565b5050505b505050565b81516001600160401b038111156200072d576200072d6200066c565b62000745816200073e845462000682565b84620006be565b602080601f8311600181146200077d5760008415620007645750858301515b600019600386901b1c1916600185901b17855562000708565b600085815260208120601f198616915b82811015620007ae578886015182559484019460019091019084016200078d565b5085821015620007cd5787850151600019600388901b60f8161c191681555b5050505050600190811b01905550565b61235880620007ed6000396000f3fe608060405234801561001057600080fd5b50600436106101c45760003560e01c8063715018a6116100f9578063ede7624f11610097578063f7c618c111610071578063f7c618c11461042b578063f8cf31cb1461043e578063fefc6a6514610451578063ff2011141461046457600080fd5b8063ede7624f146103f0578063f2ccc543146103f8578063f2fde38b1461041857600080fd5b80638da5cb5b116100d35780638da5cb5b14610390578063c05be6b1146103b5578063d6f56ccb146103c8578063eb586cae146103d057600080fd5b8063715018a61461036d57806373ecf970146103755780638456cb591461038857600080fd5b80633f4ba83a116101665780635c5fb679116101405780635c5fb679146103255780635c975abb146103385780636146730b1461034a57806369f5951d1461035a57600080fd5b80633f4ba83a146102f757806356add04a146102ff5780635bb338bc1461031257600080fd5b80630962ef79116101a25780630962ef791461029c57806327aed72e146102b1578063307bfc87146102d95780633f03b4ef146102ef57600080fd5b80630309a666146101c95780630660f1e8146101f1578063078b0fb714610256575b600080fd5b6101dc6101d7366004611b04565b610489565b60405190151581526020015b60405180910390f35b61022e6101ff366004611b2e565b600260208190526000918252604090912080546001820154928201546003830154600490930154919392909185565b604080519586526020860194909452928401919091526060830152608082015260a0016101e8565b61022e610264366004611b2e565b6001600160a01b0316600090815260026020819052604090912080546001820154928201546003830154600490930154919490929190565b6102af6102aa366004611b50565b6104ba565b005b6102c46102bf366004611b50565b610686565b6040516101e899989796959493929190611bb9565b6102e1600a81565b6040519081526020016101e8565b6102e1601981565b6102af6107e4565b6102af61030d366004611ccd565b6107f6565b6102af610320366004611b04565b610812565b6102af610333366004611d3c565b610b35565b600054600160a01b900460ff166101dc565b6102e1683635c9adc5dea0000081565b6102af610368366004611dcc565b610b55565b6102af610d8c565b6102e1610383366004611e12565b610d9e565b6102af610de1565b6000546001600160a01b03165b6040516001600160a01b0390911681526020016101e8565b6102af6103c3366004611e60565b610df1565b6102e1600181565b6103e36103de366004611b50565b610e6a565b6040516101e89190611eb7565b6102e1606481565b61040b610406366004611b50565b610fe3565b6040516101e89190611f13565b6102af610426366004611b2e565b61121e565b60075461039d906001600160a01b031681565b6102af61044c366004611b2e565b611259565b6102af61045f366004611e60565b6112d1565b610477610472366004611b50565b611342565b6040516101e896959493929190611fb0565b6001600160a01b038216600090815260026020908152604080832084845260050190915290205460ff165b92915050565b6104c2611403565b6104ca61142d565b3360009081526002602052604090208161051c5760405162461bcd60e51b815260206004820152600e60248201526d125b9d985b1a5908185b5bdd5b9d60921b60448201526064015b60405180910390fd5b80548211156105635760405162461bcd60e51b8152602060048201526013602482015272496e73756666696369656e7420706f696e747360681b6044820152606401610513565b600061056f3384611458565b60075460405163a9059cbb60e01b8152336004820152602481018390529192506001600160a01b03169063a9059cbb906044016020604051808303816000875af11580156105c1573d6000803e3d6000fd5b505050506040513d601f19601f820116820180604052508101906105e59190611ff0565b61062a5760405162461bcd60e51b815260206004820152601660248201527514995dd85c99081d1c985b9cd9995c8819985a5b195960521b6044820152606401610513565b8282600001600082825461063e9190612023565b909155505060405181815233907f106f923f993c2149d49b4255ff723acafa1f2d94393f561d3eda32ae348f72419060200160405180910390a2505061068360018055565b50565b600360205260009081526040902080546001820180549192916106a890612036565b80601f01602080910402602001604051908101604052809291908181526020018280546106d490612036565b80156107215780601f106106f657610100808354040283529160200191610721565b820191906000526020600020905b81548152906001019060200180831161070457829003601f168201915b50505050509080600201805461073690612036565b80601f016020809104026020016040519081016040528092919081815260200182805461076290612036565b80156107af5780601f10610784576101008083540402835291602001916107af565b820191906000526020600020905b81548152906001019060200180831161079257829003601f168201915b505050600384015460048501546005860154600687015460078801546008909801549697939692955060ff9091169350919089565b6107ec6114c1565b6107f46114ee565b565b6107fe6114c1565b61080b8585858585611543565b5050505050565b6000818152600360205260408120548291036108665760405162461bcd60e51b8152602060048201526013602482015272125b9d985b1a59081858da1a595d995b595b9d606a1b6044820152606401610513565b61086e61142d565b6001600160a01b0383166000908152600260209081526040808320858452600383528184206005820190935292205460ff16156108ed5760405162461bcd60e51b815260206004820152601c60248201527f416368696576656d656e7420616c726561647920756e6c6f636b6564000000006044820152606401610513565b600581015460ff1661093a5760405162461bcd60e51b8152602060048201526016602482015275416368696576656d656e74206e6f742061637469766560501b6044820152606401610513565b80600601548260060160405161095b9064737761707360d81b815260050190565b908152602001604051809103902054101580156109a05750600781015460405165766f6c756d6560d01b81526006808501910190815260200160405180910390205410155b80156109d45750600881015460405165636861696e7360d01b81526006808501910190815260200160405180910390205410155b610a175760405162461bcd60e51b815260206004820152601460248201527314995c5d5a5c995b595b9d1cc81b9bdd081b595d60621b6044820152606401610513565b8060030154826000016000828254610a2f919061206a565b90915550506004810154600183018054600090610a4d90849061206a565b909155505060008481526005830160205260408120805460ff1916600117905560038301805491610a7d8361207d565b9190505550846001600160a01b03167f5808713f30d1d277897adb26ef9590a7ff17fddbde59fbfc3139ad01929ce4218583600101604051610ac0929190612096565b60405180910390a2846001600160a01b03166000805160206123038339815191528260030154604051610af39190612129565b60405180910390a2846001600160a01b03166000805160206122e38339815191528260040154604051610b269190612129565b60405180910390a25050505050565b610b3d6114c1565b610b4c878787878787876115f1565b50505050505050565b610b5d61142d565b6001600160a01b0384166000908152600260205260409020600a6001683635c9adc5dea000008610610ba457610b9460028361215e565b9150610ba160028261215e565b90505b8415610bc557610bb560198361206a565b9150610bc260058261206a565b90505b6001841115610c1357610bd9600185612023565b610be490600a61215e565b610bee908361206a565b9150610bfb600185612023565b610c0690600261215e565b610c10908261206a565b90505b81836000016000828254610c27919061206a565b9250508190555080836001016000828254610c42919061206a565b909155505060405164737761707360d81b815260068401906005019081526040519081900360200190208054906000610c7a8361207d565b91905055508583600601604051610c9d9065766f6c756d6560d01b815260060190565b90815260200160405180910390206000828254610cba919061206a565b9091555050426004840155610cce876116ea565b610cd787611777565b866001600160a01b031660008051602061230383398151915283604051610d25918152604060208201819052600d908201526c1cddd85c17d95e1958dd5d1959609a1b606082015260800190565b60405180910390a2866001600160a01b03166000805160206122e383398151915282604051610d7b918152604060208201819052600d908201526c1cddd85c17d95e1958dd5d1959609a1b606082015260800190565b60405180910390a250505050505050565b610d946114c1565b6107f460006119a2565b6001600160a01b0382166000908152600260205260408082209051600690910190610dca908490612175565b908152602001604051809103902054905092915050565b610de96114c1565b6107f46119f2565b610df961142d565b6001600160a01b038316600090815260026020526040812060018101805491928592610e2690849061206a565b90915550504260048201556040516001600160a01b038516906000805160206122e383398151915290610e5c9086908690612191565b60405180910390a250505050565b610ea56040518060c0016040528060008152602001606081526020016000815260200160008152602001600081526020016000151581525090565b600082815260046020526040812054839103610ef25760405162461bcd60e51b815260206004820152600c60248201526b24b73b30b634b2103a34b2b960a11b6044820152606401610513565b600460008481526020019081526020016000206040518060c001604052908160008201548152602001600182018054610f2a90612036565b80601f0160208091040260200160405190810160405280929190818152602001828054610f5690612036565b8015610fa35780601f10610f7857610100808354040283529160200191610fa3565b820191906000526020600020905b815481529060010190602001808311610f8657829003601f168201915b505050918352505060028201546020820152600382015460408201526004820154606082015260059091015460ff16151560809091015291505b50919050565b61103460405180610120016040528060008152602001606081526020016060815260200160008152602001600081526020016000151581526020016000815260200160008152602001600081525090565b6000828152600360205260408120548391036110885760405162461bcd60e51b8152602060048201526013602482015272125b9d985b1a59081858da1a595d995b595b9d606a1b6044820152606401610513565b6003600084815260200190815260200160002060405180610120016040529081600082015481526020016001820180546110c190612036565b80601f01602080910402602001604051908101604052809291908181526020018280546110ed90612036565b801561113a5780601f1061110f5761010080835404028352916020019161113a565b820191906000526020600020905b81548152906001019060200180831161111d57829003601f168201915b5050505050815260200160028201805461115390612036565b80601f016020809104026020016040519081016040528092919081815260200182805461117f90612036565b80156111cc5780601f106111a1576101008083540402835291602001916111cc565b820191906000526020600020905b8154815290600101906020018083116111af57829003601f168201915b50505091835250506003820154602082015260048201546040820152600582015460ff161515606082015260068201546080820152600782015460a082015260089091015460c0909101529392505050565b6112266114c1565b6001600160a01b03811661125057604051631e4fbdf760e01b815260006004820152602401610513565b610683816119a2565b6112616114c1565b6001600160a01b0381166112af5760405162461bcd60e51b8152602060048201526015602482015274496e76616c696420746f6b656e206164647265737360581b6044820152606401610513565b600780546001600160a01b0319166001600160a01b0392909216919091179055565b6112d961142d565b6001600160a01b038316600090815260026020526040812080549091849183919061130590849061206a565b9091555050426004820155611319846116ea565b836001600160a01b03166000805160206123038339815191528484604051610e5c929190612191565b6004602052600090815260409020805460018201805491929161136490612036565b80601f016020809104026020016040519081016040528092919081815260200182805461139090612036565b80156113dd5780601f106113b2576101008083540402835291602001916113dd565b820191906000526020600020905b8154815290600101906020018083116113c057829003601f168201915b505050506002830154600384015460048501546005909501549394919390925060ff1686565b60026001540361142657604051633ee5aeb560e01b815260040160405180910390fd5b6002600155565b600054600160a01b900460ff16156107f45760405163d93c066560e01b815260040160405180910390fd5b6001600160a01b03821660009081526002602052604081208161147a85611a35565b905080156114b8576000818152600460208190526040909120908101546064906114a4908761215e565b6114ae91906121b2565b93505050506104b4565b50919392505050565b6000546001600160a01b031633146107f45760405163118cdaa760e01b8152336004820152602401610513565b6114f6611abe565b6000805460ff60a01b191690557f5db9ee0a495bf2e6ff9c91a7834c1ba4fdd244a5e8aa4e537bd38aeae4b073aa335b6040516001600160a01b03909116815260200160405180910390a1565b6006805490819060006115558361207d565b90915550506040805160c0810182528281526020808201898152828401899052606083018890526080830187905285151560a08401526000858152600490925292902081518155915190919060018201906115b09082612222565b5060408201516002820155606082015160038201556080820151600482015560a0909101516005909101805460ff1916911515919091179055505050505050565b6005805490819060006116038361207d565b9190505550604051806101200160405280828152602001898152602001888152602001878152602001868152602001600115158152602001858152602001848152602001838152506003600083815260200190815260200160002060008201518160000155602082015181600101908161167d9190612222565b50604082015160028201906116929082612222565b50606082015160038201556080820151600482015560a082015160058201805460ff191691151591909117905560c0820151600682015560e08201516007820155610100909101516008909101555050505050505050565b6001600160a01b03811660009081526002602052604081208054909190611713906064906121b2565b61171e90600161206a565b9050816002015481111561177257600282018190556040518181526001600160a01b038416907f91e51c29e7e87a74ad3b8ccba98538970f50a4309242735467f41e27c6b0fbac9060200160405180910390a25b505050565b6001600160a01b038116600090815260026020526040902060015b6005548111611772576000818152600360205260409020600581015460ff1680156117ce5750600082815260058401602052604090205460ff16155b801561180857508060060154836006016040516117f69064737761707360d81b815260050190565b90815260200160405180910390205410155b801561183c5750600781015460405165766f6c756d6560d01b81526006808601910190815260200160405180910390205410155b80156118705750600881015460405165636861696e7360d01b81526006808601910190815260200160405180910390205410155b1561198f5760008281526005840160205260408120805460ff19166001179055600384018054916118a08361207d565b919050555080600301548360000160008282546118bd919061206a565b909155505060048101546001840180546000906118db90849061206a565b92505081905550836001600160a01b03167f5808713f30d1d277897adb26ef9590a7ff17fddbde59fbfc3139ad01929ce4218383600101604051611920929190612096565b60405180910390a2836001600160a01b031660008051602061230383398151915282600301546040516119539190612129565b60405180910390a2836001600160a01b03166000805160206122e383398151915282600401546040516119869190612129565b60405180910390a25b508061199a8161207d565b915050611792565b600080546001600160a01b038381166001600160a01b0319831681178455604051919092169283917f8be0079c531659141344cd1fd0a4f28419497f9722a3daafe3b4186f6b6457e09190a35050565b6119fa61142d565b6000805460ff60a01b1916600160a01b1790557f62e78cea01bee320cd4e420270b5ea74000d11b0c9f74754ebdbfc544b05a2586115263390565b6001600160a01b038116600090815260026020526040812060015b6006548111611ab4576000818152600460205260409020600581015460ff168015611a8057506002810154835410155b8015611a9457508060030154836001015410155b15611aa157509392505050565b5080611aac8161207d565b915050611a50565b5060009392505050565b600054600160a01b900460ff166107f457604051638dfc202b60e01b815260040160405180910390fd5b80356001600160a01b0381168114611aff57600080fd5b919050565b60008060408385031215611b1757600080fd5b611b2083611ae8565b946020939093013593505050565b600060208284031215611b4057600080fd5b611b4982611ae8565b9392505050565b600060208284031215611b6257600080fd5b5035919050565b60005b83811015611b84578181015183820152602001611b6c565b50506000910152565b60008151808452611ba5816020860160208601611b69565b601f01601f19169290920160200192915050565b60006101208b8352806020840152611bd38184018c611b8d565b90508281036040840152611be7818b611b8d565b60608401999099525050608081019590955292151560a085015260c084019190915260e0830152610100909101529392505050565b634e487b7160e01b600052604160045260246000fd5b600082601f830112611c4357600080fd5b813567ffffffffffffffff80821115611c5e57611c5e611c1c565b604051601f8301601f19908116603f01168101908282118183101715611c8657611c86611c1c565b81604052838152866020858801011115611c9f57600080fd5b836020870160208301376000602085830101528094505050505092915050565b801515811461068357600080fd5b600080600080600060a08688031215611ce557600080fd5b853567ffffffffffffffff811115611cfc57600080fd5b611d0888828901611c32565b9550506020860135935060408601359250606086013591506080860135611d2e81611cbf565b809150509295509295909350565b600080600080600080600060e0888a031215611d5757600080fd5b873567ffffffffffffffff80821115611d6f57600080fd5b611d7b8b838c01611c32565b985060208a0135915080821115611d9157600080fd5b50611d9e8a828b01611c32565b979a9799505050506040860135956060810135956080820135955060a0820135945060c09091013592509050565b60008060008060808587031215611de257600080fd5b611deb85611ae8565b9350602085013592506040850135611e0281611cbf565b9396929550929360600135925050565b60008060408385031215611e2557600080fd5b611e2e83611ae8565b9150602083013567ffffffffffffffff811115611e4a57600080fd5b611e5685828601611c32565b9150509250929050565b600080600060608486031215611e7557600080fd5b611e7e84611ae8565b925060208401359150604084013567ffffffffffffffff811115611ea157600080fd5b611ead86828701611c32565b9150509250925092565b60208152815160208201526000602083015160c06040840152611edd60e0840182611b8d565b90506040840151606084015260608401516080840152608084015160a084015260a0840151151560c08401528091505092915050565b602081528151602082015260006020830151610120806040850152611f3c610140850183611b8d565b91506040850151601f19858403016060860152611f598382611b8d565b92505060608501516080850152608085015160a085015260a0850151611f8360c086018215159052565b5060c085015160e085015260e0850151610100818187015280870151838701525050508091505092915050565b86815260c060208201526000611fc960c0830188611b8d565b905085604083015284606083015283608083015282151560a0830152979650505050505050565b60006020828403121561200257600080fd5b8151611b4981611cbf565b634e487b7160e01b600052601160045260246000fd5b818103818111156104b4576104b461200d565b600181811c9082168061204a57607f821691505b602082108103610fdd57634e487b7160e01b600052602260045260246000fd5b808201808211156104b4576104b461200d565b60006001820161208f5761208f61200d565b5060010190565b82815260006020604081840152600084546120b081612036565b80604087015260606001808416600081146120d257600181146120ec5761211a565b60ff1985168984015283151560051b89018301955061211a565b896000528660002060005b858110156121125781548b82018601529083019088016120f7565b8a0184019650505b50939998505050505050505050565b908152604060208201819052601490820152731858da1a595d995b595b9d17dd5b9b1bd8dad95960621b606082015260800190565b80820281158282048414176104b4576104b461200d565b60008251612187818460208701611b69565b9190910192915050565b8281526040602082015260006121aa6040830184611b8d565b949350505050565b6000826121cf57634e487b7160e01b600052601260045260246000fd5b500490565b601f82111561177257600081815260208120601f850160051c810160208610156121fb5750805b601f850160051c820191505b8181101561221a57828155600101612207565b505050505050565b815167ffffffffffffffff81111561223c5761223c611c1c565b6122508161224a8454612036565b846121d4565b602080601f831160018114612285576000841561226d5750858301515b600019600386901b1c1916600185901b17855561221a565b600085815260208120601f198616915b828110156122b457888601518255948401946001909101908401612295565b50858210156122d25787850151600019600388901b60f8161c191681555b5050505050600190811b0190555056fe20d1203ad04af96695a6de2e92289c50b68bd139de21fe5249b4ba5837fe297ab51b16cb4103a8ce441e52afe5cfabab49df83ba6b570adcde7724f975bdf7d0a264697066735822122059d21b839ecdebc87faa3d9e0d4898faa91e0f7fcfb38dcaebb60fe62a09f5fe64736f6c63430008140033","opcodes":"PUSH1 0x80 PUSH1 0x40 MSTORE CALLVALUE DUP1 ISZERO PUSH3 0x11 JUMPI PUSH1 0x0 DUP1 REVERT JUMPDEST POP PUSH1 0x40 MLOAD PUSH3 0x2B45 CODESIZE SUB DUP1 PUSH3 0x2B45 DUP4 CODECOPY DUP2 ADD PUSH1 0x40 DUP2 SWAP1 MSTORE PUSH3 0x34 SWAP2 PUSH3 0x612 JUMP JUMPDEST CALLER DUP1 PUSH3 0x5B JUMPI PUSH1 0x40 MLOAD PUSH4 0x1E4FBDF7 PUSH1 0xE0 SHL DUP2 MSTORE PUSH1 0x0 PUSH1 0x4 DUP3 ADD MSTORE PUSH1 0x24 ADD PUSH1 0x40 MLOAD DUP1 SWAP2 SUB SWAP1 REVERT JUMPDEST PUSH3 0x66 DUP2 PUSH3 0xB7 JUMP JUMPDEST POP PUSH1 0x0 DUP1 SLOAD PUSH1 0xFF PUSH1 0xA0 SHL NOT AND SWAP1 SSTORE PUSH1 0x1 DUP1 DUP1 SSTORE PUSH1 0x7 DUP1 SLOAD PUSH1 0x1 PUSH1 0x1 PUSH1 0xA0 SHL SUB NOT AND PUSH1 0x1 PUSH1 0x1 PUSH1 0xA0 SHL SUB DUP5 AND OR SWAP1 SSTORE PUSH1 0x5 DUP2 SWAP1 SSTORE PUSH1 0x6 SSTORE PUSH3 0xA6 PUSH3 0x107 JUMP JUMPDEST PUSH3 0xB0 PUSH3 0x36C JUMP JUMPDEST POP PUSH3 0x7DD JUMP JUMPDEST PUSH1 0x0 DUP1 SLOAD PUSH1 0x1 PUSH1 0x1 PUSH1 0xA0 SHL SUB DUP4 DUP2 AND PUSH1 0x1 PUSH1 0x1 PUSH1 0xA0 SHL SUB NOT DUP4 AND DUP2 OR DUP5 SSTORE PUSH1 0x40 MLOAD SWAP2 SWAP1 SWAP3 AND SWAP3 DUP4 SWAP2 PUSH32 0x8BE0079C531659141344CD1FD0A4F28419497F9722A3DAAFE3B4186F6B6457E0 SWAP2 SWAP1 LOG3 POP POP JUMP JUMPDEST PUSH3 0x17A PUSH1 0x40 MLOAD DUP1 PUSH1 0x40 ADD PUSH1 0x40 MSTORE DUP1 PUSH1 0xA DUP2 MSTORE PUSH1 0x20 ADD PUSH10 0x4669727374205377617 PUSH1 0xB4 SHL DUP2 MSTORE POP PUSH1 0x40 MLOAD DUP1 PUSH1 0x40 ADD PUSH1 0x40 MSTORE DUP1 PUSH1 0x18 DUP2 MSTORE PUSH1 0x20 ADD PUSH32 0x436F6D706C65746520796F757220666972737420737761700000000000000000 DUP2 MSTORE POP PUSH1 0x32 PUSH1 0xA PUSH1 0x1 PUSH1 0x0 PUSH1 0x1 PUSH3 0x461 PUSH1 0x20 SHL PUSH1 0x20 SHR JUMP JUMPDEST PUSH3 0x1F8 PUSH1 0x40 MLOAD DUP1 PUSH1 0x40 ADD PUSH1 0x40 MSTORE DUP1 PUSH1 0xD DUP2 MSTORE PUSH1 0x20 ADD PUSH13 0x2B37B63AB6B2902A3930B232B9 PUSH1 0x99 SHL DUP2 MSTORE POP PUSH1 0x40 MLOAD DUP1 PUSH1 0x40 ADD PUSH1 0x40 MSTORE DUP1 PUSH1 0x1D DUP2 MSTORE PUSH1 0x20 ADD PUSH32 0x5472616465206F76657220313030302045544820696E20766F6C756D65000000 DUP2 MSTORE POP PUSH1 0xC8 PUSH1 0x19 PUSH1 0x0 PUSH9 0x3635C9ADC5DEA00000 PUSH1 0x1 PUSH3 0x461 PUSH1 0x20 SHL PUSH1 0x20 SHR JUMP JUMPDEST PUSH3 0x27E PUSH1 0x40 MLOAD DUP1 PUSH1 0x40 ADD PUSH1 0x40 MSTORE DUP1 PUSH1 0x14 DUP2 MSTORE PUSH1 0x20 ADD PUSH32 0x43726F73732D436861696E204578706C6F726572000000000000000000000000 DUP2 MSTORE POP PUSH1 0x40 MLOAD DUP1 PUSH1 0x40 ADD PUSH1 0x40 MSTORE DUP1 PUSH1 0x1E DUP2 MSTORE PUSH1 0x20 ADD PUSH32 0x53776170206163726F7373203320646966666572656E7420636861696E730000 DUP2 MSTORE POP PUSH2 0x12C PUSH1 0x32 PUSH1 0x0 DUP1 PUSH1 0x3 PUSH3 0x461 PUSH1 0x20 SHL PUSH1 0x20 SHR JUMP JUMPDEST PUSH3 0x2E7 PUSH1 0x40 MLOAD DUP1 PUSH1 0x40 ADD PUSH1 0x40 MSTORE DUP1 PUSH1 0xB DUP2 MSTORE PUSH1 0x20 ADD PUSH11 0x29BBB0B81026B0B9BA32B9 PUSH1 0xA9 SHL DUP2 MSTORE POP PUSH1 0x40 MLOAD DUP1 PUSH1 0x40 ADD PUSH1 0x40 MSTORE DUP1 PUSH1 0x12 DUP2 MSTORE PUSH1 0x20 ADD PUSH18 0x436F6D706C65746520313030207377617073 PUSH1 0x70 SHL DUP2 MSTORE POP PUSH2 0x1F4 PUSH1 0x64 DUP1 PUSH1 0x0 PUSH1 0x1 PUSH3 0x461 PUSH1 0x20 SHL PUSH1 0x20 SHR JUMP JUMPDEST PUSH3 0x36A PUSH1 0x40 MLOAD DUP1 PUSH1 0x40 ADD PUSH1 0x40 MSTORE DUP1 PUSH1 0x10 DUP2 MSTORE PUSH1 0x20 ADD PUSH16 0x2632B3B2B73230B93C902A3930B232B9 PUSH1 0x81 SHL DUP2 MSTORE POP PUSH1 0x40 MLOAD DUP1 PUSH1 0x40 ADD PUSH1 0x40 MSTORE DUP1 PUSH1 0x1E DUP2 MSTORE PUSH1 0x20 ADD PUSH32 0x5472616465206F7665722031303030302045544820696E20766F6C756D650000 DUP2 MSTORE POP PUSH2 0x3E8 PUSH1 0xC8 PUSH1 0x0 PUSH10 0x21E19E0C9BAB2400000 PUSH1 0x1 PUSH3 0x461 PUSH1 0x20 SHL PUSH1 0x20 SHR JUMP JUMPDEST JUMP JUMPDEST PUSH1 0x40 DUP1 MLOAD DUP1 DUP3 ADD SWAP1 SWAP2 MSTORE PUSH1 0x6 DUP2 MSTORE PUSH6 0x42726F6E7A65 PUSH1 0xD0 SHL PUSH1 0x20 DUP3 ADD MSTORE PUSH3 0x39B SWAP1 PUSH1 0x0 DUP1 PUSH1 0x64 PUSH1 0x1 PUSH3 0x560 JUMP JUMPDEST PUSH1 0x40 DUP1 MLOAD DUP1 DUP3 ADD SWAP1 SWAP2 MSTORE PUSH1 0x6 DUP2 MSTORE PUSH6 0x29B4B63B32B9 PUSH1 0xD1 SHL PUSH1 0x20 DUP3 ADD MSTORE PUSH3 0x3CC SWAP1 PUSH2 0x3E8 PUSH1 0x32 PUSH1 0x7D PUSH1 0x1 PUSH3 0x560 JUMP JUMPDEST PUSH1 0x40 DUP1 MLOAD DUP1 DUP3 ADD SWAP1 SWAP2 MSTORE PUSH1 0x4 DUP2 MSTORE PUSH4 0x11DBDB19 PUSH1 0xE2 SHL PUSH1 0x20 DUP3 ADD MSTORE PUSH3 0x3FB SWAP1 PUSH2 0x1388 PUSH1 0x64 PUSH1 0x96 PUSH1 0x1 PUSH3 0x560 JUMP JUMPDEST PUSH1 0x40 DUP1 MLOAD DUP1 DUP3 ADD SWAP1 SWAP2 MSTORE PUSH1 0x8 DUP2 MSTORE PUSH8 0x506C6174696E756D PUSH1 0xC0 SHL PUSH1 0x20 DUP3 ADD MSTORE PUSH3 0x42D SWAP1 PUSH2 0x2710 PUSH1 0xC8 DUP1 PUSH1 0x1 PUSH3 0x560 JUMP JUMPDEST PUSH1 0x40 DUP1 MLOAD DUP1 DUP3 ADD SWAP1 SWAP2 MSTORE PUSH1 0x7 DUP2 MSTORE PUSH7 0x111A585B5BDB99 PUSH1 0xCA SHL PUSH1 0x20 DUP3 ADD MSTORE PUSH3 0x36A SWAP1 PUSH2 0x61A8 PUSH2 0x1F4 PUSH2 0x12C PUSH1 0x1 PUSH3 0x560 JUMP JUMPDEST PUSH1 0x5 DUP1 SLOAD SWAP1 DUP2 SWAP1 PUSH1 0x0 PUSH3 0x475 DUP4 PUSH3 0x644 JUMP JUMPDEST SWAP2 SWAP1 POP SSTORE POP PUSH1 0x40 MLOAD DUP1 PUSH2 0x120 ADD PUSH1 0x40 MSTORE DUP1 DUP3 DUP2 MSTORE PUSH1 0x20 ADD DUP10 DUP2 MSTORE PUSH1 0x20 ADD DUP9 DUP2 MSTORE PUSH1 0x20 ADD DUP8 DUP2 MSTORE PUSH1 0x20 ADD DUP7 DUP2 MSTORE PUSH1 0x20 ADD PUSH1 0x1 ISZERO ISZERO DUP2 MSTORE PUSH1 0x20 ADD DUP6 DUP2 MSTORE PUSH1 0x20 ADD DUP5 DUP2 MSTORE PUSH1 0x20 ADD DUP4 DUP2 MSTORE POP PUSH1 0x3 PUSH1 0x0 DUP4 DUP2 MSTORE PUSH1 0x20 ADD SWAP1 DUP2 MSTORE PUSH1 0x20 ADD PUSH1 0x0 KECCAK256 PUSH1 0x0 DUP3 ADD MLOAD DUP2 PUSH1 0x0 ADD SSTORE PUSH1 0x20 DUP3 ADD MLOAD DUP2 PUSH1 0x1 ADD SWAP1 DUP2 PUSH3 0x4F1 SWAP2 SWAP1 PUSH3 0x711 JUMP JUMPDEST POP PUSH1 0x40 DUP3 ADD MLOAD PUSH1 0x2 DUP3 ADD SWAP1 PUSH3 0x508 SWAP1 DUP3 PUSH3 0x711 JUMP JUMPDEST POP PUSH1 0x60 DUP3 ADD MLOAD PUSH1 0x3 DUP3 ADD SSTORE PUSH1 0x80 DUP3 ADD MLOAD PUSH1 0x4 DUP3 ADD SSTORE PUSH1 0xA0 DUP3 ADD MLOAD PUSH1 0x5 DUP3 ADD DUP1 SLOAD PUSH1 0xFF NOT AND SWAP2 ISZERO ISZERO SWAP2 SWAP1 SWAP2 OR SWAP1 SSTORE PUSH1 0xC0 DUP3 ADD MLOAD PUSH1 0x6 DUP3 ADD SSTORE PUSH1 0xE0 DUP3 ADD MLOAD PUSH1 0x7 DUP3 ADD SSTORE PUSH2 0x100 SWAP1 SWAP2 ADD MLOAD PUSH1 0x8 SWAP1 SWAP2 ADD SSTORE POP POP POP POP POP POP POP POP JUMP JUMPDEST PUSH1 0x6 DUP1 SLOAD SWAP1 DUP2 SWAP1 PUSH1 0x0 PUSH3 0x574 DUP4 PUSH3 0x644 JUMP JUMPDEST SWAP1 SWAP2 SSTORE POP POP PUSH1 0x40 DUP1 MLOAD PUSH1 0xC0 DUP2 ADD DUP3 MSTORE DUP3 DUP2 MSTORE PUSH1 0x20 DUP1 DUP3 ADD DUP10 DUP2 MSTORE DUP3 DUP5 ADD DUP10 SWAP1 MSTORE PUSH1 0x60 DUP4 ADD DUP9 SWAP1 MSTORE PUSH1 0x80 DUP4 ADD DUP8 SWAP1 MSTORE DUP6 ISZERO ISZERO PUSH1 0xA0 DUP5 ADD MSTORE PUSH1 0x0 DUP6 DUP2 MSTORE PUSH1 0x4 SWAP1 SWAP3 MSTORE SWAP3 SWAP1 KECCAK256 DUP2 MLOAD DUP2 SSTORE SWAP2 MLOAD SWAP1 SWAP2 SWAP1 PUSH1 0x1 DUP3 ADD SWAP1 PUSH3 0x5D1 SWAP1 DUP3 PUSH3 0x711 JUMP JUMPDEST POP PUSH1 0x40 DUP3 ADD MLOAD PUSH1 0x2 DUP3 ADD SSTORE PUSH1 0x60 DUP3 ADD MLOAD PUSH1 0x3 DUP3 ADD SSTORE PUSH1 0x80 DUP3 ADD MLOAD PUSH1 0x4 DUP3 ADD SSTORE PUSH1 0xA0 SWAP1 SWAP2 ADD MLOAD PUSH1 0x5 SWAP1 SWAP2 ADD DUP1 SLOAD PUSH1 0xFF NOT AND SWAP2 ISZERO ISZERO SWAP2 SWAP1 SWAP2 OR SWAP1 SSTORE POP POP POP POP POP POP JUMP JUMPDEST PUSH1 0x0 PUSH1 0x20 DUP3 DUP5 SUB SLT ISZERO PUSH3 0x625 JUMPI PUSH1 0x0 DUP1 REVERT JUMPDEST DUP2 MLOAD PUSH1 0x1 PUSH1 0x1 PUSH1 0xA0 SHL SUB DUP2 AND DUP2 EQ PUSH3 0x63D JUMPI PUSH1 0x0 DUP1 REVERT JUMPDEST SWAP4 SWAP3 POP POP POP JUMP JUMPDEST PUSH1 0x0 PUSH1 0x1 DUP3 ADD PUSH3 0x665 JUMPI PUSH4 0x4E487B71 PUSH1 0xE0 SHL PUSH1 0x0 MSTORE PUSH1 0x11 PUSH1 0x4 MSTORE PUSH1 0x24 PUSH1 0x0 REVERT JUMPDEST POP PUSH1 0x1 ADD SWAP1 JUMP JUMPDEST PUSH4 0x4E487B71 PUSH1 0xE0 SHL PUSH1 0x0 MSTORE PUSH1 0x41 PUSH1 0x4 MSTORE PUSH1 0x24 PUSH1 0x0 REVERT JUMPDEST PUSH1 0x1 DUP2 DUP2 SHR SWAP1 DUP3 AND DUP1 PUSH3 0x697 JUMPI PUSH1 0x7F DUP3 AND SWAP2 POP JUMPDEST PUSH1 0x20 DUP3 LT DUP2 SUB PUSH3 0x6B8 JUMPI PUSH4 0x4E487B71 PUSH1 0xE0 SHL PUSH1 0x0 MSTORE PUSH1 0x22 PUSH1 0x4 MSTORE PUSH1 0x24 PUSH1 0x0 REVERT JUMPDEST POP SWAP2 SWAP1 POP JUMP JUMPDEST PUSH1 0x1F DUP3 GT ISZERO PUSH3 0x70C JUMPI PUSH1 0x0 DUP2 DUP2 MSTORE PUSH1 0x20 DUP2 KECCAK256 PUSH1 0x1F DUP6 ADD PUSH1 0x5 SHR DUP2 ADD PUSH1 0x20 DUP7 LT ISZERO PUSH3 0x6E7 JUMPI POP DUP1 JUMPDEST PUSH1 0x1F DUP6 ADD PUSH1 0x5 SHR DUP3 ADD SWAP2 POP JUMPDEST DUP2 DUP2 LT ISZERO PUSH3 0x708 JUMPI DUP3 DUP2 SSTORE PUSH1 0x1 ADD PUSH3 0x6F3 JUMP JUMPDEST POP POP POP JUMPDEST POP POP POP JUMP JUMPDEST DUP2 MLOAD PUSH1 0x1 PUSH1 0x1 PUSH1 0x40 SHL SUB DUP2 GT ISZERO PUSH3 0x72D JUMPI PUSH3 0x72D PUSH3 0x66C JUMP JUMPDEST PUSH3 0x745 DUP2 PUSH3 0x73E DUP5 SLOAD PUSH3 0x682 JUMP JUMPDEST DUP5 PUSH3 0x6BE JUMP JUMPDEST PUSH1 0x20 DUP1 PUSH1 0x1F DUP4 GT PUSH1 0x1 DUP2 EQ PUSH3 0x77D JUMPI PUSH1 0x0 DUP5 ISZERO PUSH3 0x764 JUMPI POP DUP6 DUP4 ADD MLOAD JUMPDEST PUSH1 0x0 NOT PUSH1 0x3 DUP7 SWAP1 SHL SHR NOT AND PUSH1 0x1 DUP6 SWAP1 SHL OR DUP6 SSTORE PUSH3 0x708 JUMP JUMPDEST PUSH1 0x0 DUP6 DUP2 MSTORE PUSH1 0x20 DUP2 KECCAK256 PUSH1 0x1F NOT DUP7 AND SWAP2 JUMPDEST DUP3 DUP2 LT ISZERO PUSH3 0x7AE JUMPI DUP9 DUP7 ADD MLOAD DUP3 SSTORE SWAP5 DUP5 ADD SWAP5 PUSH1 0x1 SWAP1 SWAP2 ADD SWAP1 DUP5 ADD PUSH3 0x78D JUMP JUMPDEST POP DUP6 DUP3 LT ISZERO PUSH3 0x7CD JUMPI DUP8 DUP6 ADD MLOAD PUSH1 0x0 NOT PUSH1 0x3 DUP9 SWAP1 SHL PUSH1 0xF8 AND SHR NOT AND DUP2 SSTORE JUMPDEST POP POP POP POP POP PUSH1 0x1 SWAP1 DUP2 SHL ADD SWAP1 SSTORE POP JUMP JUMPDEST PUSH2 0x2358 DUP1 PUSH3 0x7ED PUSH1 0x0 CODECOPY PUSH1 0x0 RETURN INVALID PUSH1 0x80 PUSH1 0x40 MSTORE CALLVALUE DUP1 ISZERO PUSH2 0x10 JUMPI PUSH1 0x0 DUP1 REVERT JUMPDEST POP PUSH1 0x4 CALLDATASIZE LT PUSH2 0x1C4 JUMPI PUSH1 0x0 CALLDATALOAD PUSH1 0xE0 SHR DUP1 PUSH4 0x715018A6 GT PUSH2 0xF9 JUMPI DUP1 PUSH4 0xEDE7624F GT PUSH2 0x97 JUMPI DUP1 PUSH4 0xF7C618C1 GT PUSH2 0x71 JUMPI DUP1 PUSH4 0xF7C618C1 EQ PUSH2 0x42B JUMPI DUP1 PUSH4 0xF8CF31CB EQ PUSH2 0x43E JUMPI DUP1 PUSH4 0xFEFC6A65 EQ PUSH2 0x451 JUMPI DUP1 PUSH4 0xFF201114 EQ PUSH2 0x464 JUMPI PUSH1 0x0 DUP1 REVERT JUMPDEST DUP1 PUSH4 0xEDE7624F EQ PUSH2 0x3F0 JUMPI DUP1 PUSH4 0xF2CCC543 EQ PUSH2 0x3F8 JUMPI DUP1 PUSH4 0xF2FDE38B EQ PUSH2 0x418 JUMPI PUSH1 0x0 DUP1 REVERT JUMPDEST DUP1 PUSH4 0x8DA5CB5B GT PUSH2 0xD3 JUMPI DUP1 PUSH4 0x8DA5CB5B EQ PUSH2 0x390 JUMPI DUP1 PUSH4 0xC05BE6B1 EQ PUSH2 0x3B5 JUMPI DUP1 PUSH4 0xD6F56CCB EQ PUSH2 0x3C8 JUMPI DUP1 PUSH4 0xEB586CAE EQ PUSH2 0x3D0 JUMPI PUSH1 0x0 DUP1 REVERT JUMPDEST DUP1 PUSH4 0x715018A6 EQ PUSH2 0x36D JUMPI DUP1 PUSH4 0x73ECF970 EQ PUSH2 0x375 JUMPI DUP1 PUSH4 0x8456CB59 EQ PUSH2 0x388 JUMPI PUSH1 0x0 DUP1 REVERT JUMPDEST DUP1 PUSH4 0x3F4BA83A GT PUSH2 0x166 JUMPI DUP1 PUSH4 0x5C5FB679 GT PUSH2 0x140 JUMPI DUP1 PUSH4 0x5C5FB679 EQ PUSH2 0x325 JUMPI DUP1 PUSH4 0x5C975ABB EQ PUSH2 0x338 JUMPI DUP1 PUSH4 0x6146730B EQ PUSH2 0x34A JUMPI DUP1 PUSH4 0x69F5951D EQ PUSH2 0x35A JUMPI PUSH1 0x0 DUP1 REVERT JUMPDEST DUP1 PUSH4 0x3F4BA83A EQ PUSH2 0x2F7 JUMPI DUP1 PUSH4 0x56ADD04A EQ PUSH2 0x2FF JUMPI DUP1 PUSH4 0x5BB338BC EQ PUSH2 0x312 JUMPI PUSH1 0x0 DUP1 REVERT JUMPDEST DUP1 PUSH4 0x962EF79 GT PUSH2 0x1A2 JUMPI DUP1 PUSH4 0x962EF79 EQ PUSH2 0x29C JUMPI DUP1 PUSH4 0x27AED72E EQ PUSH2 0x2B1 JUMPI DUP1 PUSH4 0x307BFC87 EQ PUSH2 0x2D9 JUMPI DUP1 PUSH4 0x3F03B4EF EQ PUSH2 0x2EF JUMPI PUSH1 0x0 DUP1 REVERT JUMPDEST DUP1 PUSH4 0x309A666 EQ PUSH2 0x1C9 JUMPI DUP1 PUSH4 0x660F1E8 EQ PUSH2 0x1F1 JUMPI DUP1 PUSH4 0x78B0FB7 EQ PUSH2 0x256 JUMPI JUMPDEST PUSH1 0x0 DUP1 REVERT JUMPDEST PUSH2 0x1DC PUSH2 0x1D7 CALLDATASIZE PUSH1 0x4 PUSH2 0x1B04 JUMP JUMPDEST PUSH2 0x489 JUMP JUMPDEST PUSH1 0x40 MLOAD SWAP1 ISZERO ISZERO DUP2 MSTORE PUSH1 0x20 ADD JUMPDEST PUSH1 0x40 MLOAD DUP1 SWAP2 SUB SWAP1 RETURN JUMPDEST PUSH2 0x22E PUSH2 0x1FF CALLDATASIZE PUSH1 0x4 PUSH2 0x1B2E JUMP JUMPDEST PUSH1 0x2 PUSH1 0x20 DUP2 SWAP1 MSTORE PUSH1 0x0 SWAP2 DUP3 MSTORE PUSH1 0x40 SWAP1 SWAP2 KECCAK256 DUP1 SLOAD PUSH1 0x1 DUP3 ADD SLOAD SWAP3 DUP3 ADD SLOAD PUSH1 0x3 DUP4 ADD SLOAD PUSH1 0x4 SWAP1 SWAP4 ADD SLOAD SWAP2 SWAP4 SWAP3 SWAP1 SWAP2 DUP6 JUMP JUMPDEST PUSH1 0x40 DUP1 MLOAD SWAP6 DUP7 MSTORE PUSH1 0x20 DUP7 ADD SWAP5 SWAP1 SWAP5 MSTORE SWAP3 DUP5 ADD SWAP2 SWAP1 SWAP2 MSTORE PUSH1 0x60 DUP4 ADD MSTORE PUSH1 0x80 DUP3 ADD MSTORE PUSH1 0xA0 ADD PUSH2 0x1E8 JUMP JUMPDEST PUSH2 0x22E PUSH2 0x264 CALLDATASIZE PUSH1 0x4 PUSH2 0x1B2E JUMP JUMPDEST PUSH1 0x1 PUSH1 0x1 PUSH1 0xA0 SHL SUB AND PUSH1 0x0 SWAP1 DUP2 MSTORE PUSH1 0x2 PUSH1 0x20 DUP2 SWAP1 MSTORE PUSH1 0x40 SWAP1 SWAP2 KECCAK256 DUP1 SLOAD PUSH1 0x1 DUP3 ADD SLOAD SWAP3 DUP3 ADD SLOAD PUSH1 0x3 DUP4 ADD SLOAD PUSH1 0x4 SWAP1 SWAP4 ADD SLOAD SWAP2 SWAP5 SWAP1 SWAP3 SWAP2 SWAP1 JUMP JUMPDEST PUSH2 0x2AF PUSH2 0x2AA CALLDATASIZE PUSH1 0x4 PUSH2 0x1B50 JUMP JUMPDEST PUSH2 0x4BA JUMP JUMPDEST STOP JUMPDEST PUSH2 0x2C4 PUSH2 0x2BF CALLDATASIZE PUSH1 0x4 PUSH2 0x1B50 JUMP JUMPDEST PUSH2 0x686 JUMP JUMPDEST PUSH1 0x40 MLOAD PUSH2 0x1E8 SWAP10 SWAP9 SWAP8 SWAP7 SWAP6 SWAP5 SWAP4 SWAP3 SWAP2 SWAP1 PUSH2 0x1BB9 JUMP JUMPDEST PUSH2 0x2E1 PUSH1 0xA DUP2 JUMP JUMPDEST PUSH1 0x40 MLOAD SWAP1 DUP2 MSTORE PUSH1 0x20 ADD PUSH2 0x1E8 JUMP JUMPDEST PUSH2 0x2E1 PUSH1 0x19 DUP2 JUMP JUMPDEST PUSH2 0x2AF PUSH2 0x7E4 JUMP JUMPDEST PUSH2 0x2AF PUSH2 0x30D CALLDATASIZE PUSH1 0x4 PUSH2 0x1CCD JUMP JUMPDEST PUSH2 0x7F6 JUMP JUMPDEST PUSH2 0x2AF PUSH2 0x320 CALLDATASIZE PUSH1 0x4 PUSH2 0x1B04 JUMP JUMPDEST PUSH2 0x812 JUMP JUMPDEST PUSH2 0x2AF PUSH2 0x333 CALLDATASIZE PUSH1 0x4 PUSH2 0x1D3C JUMP JUMPDEST PUSH2 0xB35 JUMP JUMPDEST PUSH1 0x0 SLOAD PUSH1 0x1 PUSH1 0xA0 SHL SWAP1 DIV PUSH1 0xFF AND PUSH2 0x1DC JUMP JUMPDEST PUSH2 0x2E1 PUSH9 0x3635C9ADC5DEA00000 DUP2 JUMP JUMPDEST PUSH2 0x2AF PUSH2 0x368 CALLDATASIZE PUSH1 0x4 PUSH2 0x1DCC JUMP JUMPDEST PUSH2 0xB55 JUMP JUMPDEST PUSH2 0x2AF PUSH2 0xD8C JUMP JUMPDEST PUSH2 0x2E1 PUSH2 0x383 CALLDATASIZE PUSH1 0x4 PUSH2 0x1E12 JUMP JUMPDEST PUSH2 0xD9E JUMP JUMPDEST PUSH2 0x2AF PUSH2 0xDE1 JUMP JUMPDEST PUSH1 0x0 SLOAD PUSH1 0x1 PUSH1 0x1 PUSH1 0xA0 SHL SUB AND JUMPDEST PUSH1 0x40 MLOAD PUSH1 0x1 PUSH1 0x1 PUSH1 0xA0 SHL SUB SWAP1 SWAP2 AND DUP2 MSTORE PUSH1 0x20 ADD PUSH2 0x1E8 JUMP JUMPDEST PUSH2 0x2AF PUSH2 0x3C3 CALLDATASIZE PUSH1 0x4 PUSH2 0x1E60 JUMP JUMPDEST PUSH2 0xDF1 JUMP JUMPDEST PUSH2 0x2E1 PUSH1 0x1 DUP2 JUMP JUMPDEST PUSH2 0x3E3 PUSH2 0x3DE CALLDATASIZE PUSH1 0x4 PUSH2 0x1B50 JUMP JUMPDEST PUSH2 0xE6A JUMP JUMPDEST PUSH1 0x40 MLOAD PUSH2 0x1E8 SWAP2 SWAP1 PUSH2 0x1EB7 JUMP JUMPDEST PUSH2 0x2E1 PUSH1 0x64 DUP2 JUMP JUMPDEST PUSH2 0x40B PUSH2 0x406 CALLDATASIZE PUSH1 0x4 PUSH2 0x1B50 JUMP JUMPDEST PUSH2 0xFE3 JUMP JUMPDEST PUSH1 0x40 MLOAD PUSH2 0x1E8 SWAP2 SWAP1 PUSH2 0x1F13 JUMP JUMPDEST PUSH2 0x2AF PUSH2 0x426 CALLDATASIZE PUSH1 0x4 PUSH2 0x1B2E JUMP JUMPDEST PUSH2 0x121E JUMP JUMPDEST PUSH1 0x7 SLOAD PUSH2 0x39D SWAP1 PUSH1 0x1 PUSH1 0x1 PUSH1 0xA0 SHL SUB AND DUP2 JUMP JUMPDEST PUSH2 0x2AF PUSH2 0x44C CALLDATASIZE PUSH1 0x4 PUSH2 0x1B2E JUMP JUMPDEST PUSH2 0x1259 JUMP JUMPDEST PUSH2 0x2AF PUSH2 0x45F CALLDATASIZE PUSH1 0x4 PUSH2 0x1E60 JUMP JUMPDEST PUSH2 0x12D1 JUMP JUMPDEST PUSH2 0x477 PUSH2 0x472 CALLDATASIZE PUSH1 0x4 PUSH2 0x1B50 JUMP JUMPDEST PUSH2 0x1342 JUMP JUMPDEST PUSH1 0x40 MLOAD PUSH2 0x1E8 SWAP7 SWAP6 SWAP5 SWAP4 SWAP3 SWAP2 SWAP1 PUSH2 0x1FB0 JUMP JUMPDEST PUSH1 0x1 PUSH1 0x1 PUSH1 0xA0 SHL SUB DUP3 AND PUSH1 0x0 SWAP1 DUP2 MSTORE PUSH1 0x2 PUSH1 0x20 SWAP1 DUP2 MSTORE PUSH1 0x40 DUP1 DUP4 KECCAK256 DUP5 DUP5 MSTORE PUSH1 0x5 ADD SWAP1 SWAP2 MSTORE SWAP1 KECCAK256 SLOAD PUSH1 0xFF AND JUMPDEST SWAP3 SWAP2 POP POP JUMP JUMPDEST PUSH2 0x4C2 PUSH2 0x1403 JUMP JUMPDEST PUSH2 0x4CA PUSH2 0x142D JUMP JUMPDEST CALLER PUSH1 0x0 SWAP1 DUP2 MSTORE PUSH1 0x2 PUSH1 0x20 MSTORE PUSH1 0x40 SWAP1 KECCAK256 DUP2 PUSH2 0x51C JUMPI PUSH1 0x40 MLOAD PUSH3 0x461BCD PUSH1 0xE5 SHL DUP2 MSTORE PUSH1 0x20 PUSH1 0x4 DUP3 ADD MSTORE PUSH1 0xE PUSH1 0x24 DUP3 ADD MSTORE PUSH14 0x125B9D985B1A5908185B5BDD5B9D PUSH1 0x92 SHL PUSH1 0x44 DUP3 ADD MSTORE PUSH1 0x64 ADD JUMPDEST PUSH1 0x40 MLOAD DUP1 SWAP2 SUB SWAP1 REVERT JUMPDEST DUP1 SLOAD DUP3 GT ISZERO PUSH2 0x563 JUMPI PUSH1 0x40 MLOAD PUSH3 0x461BCD PUSH1 0xE5 SHL DUP2 MSTORE PUSH1 0x20 PUSH1 0x4 DUP3 ADD MSTORE PUSH1 0x13 PUSH1 0x24 DUP3 ADD MSTORE PUSH19 0x496E73756666696369656E7420706F696E7473 PUSH1 0x68 SHL PUSH1 0x44 DUP3 ADD MSTORE PUSH1 0x64 ADD PUSH2 0x513 JUMP JUMPDEST PUSH1 0x0 PUSH2 0x56F CALLER DUP5 PUSH2 0x1458 JUMP JUMPDEST PUSH1 0x7 SLOAD PUSH1 0x40 MLOAD PUSH4 0xA9059CBB PUSH1 0xE0 SHL DUP2 MSTORE CALLER PUSH1 0x4 DUP3 ADD MSTORE PUSH1 0x24 DUP2 ADD DUP4 SWAP1 MSTORE SWAP2 SWAP3 POP PUSH1 0x1 PUSH1 0x1 PUSH1 0xA0 SHL SUB AND SWAP1 PUSH4 0xA9059CBB SWAP1 PUSH1 0x44 ADD PUSH1 0x20 PUSH1 0x40 MLOAD DUP1 DUP4 SUB DUP2 PUSH1 0x0 DUP8 GAS CALL ISZERO DUP1 ISZERO PUSH2 0x5C1 JUMPI RETURNDATASIZE PUSH1 0x0 DUP1 RETURNDATACOPY RETURNDATASIZE PUSH1 0x0 REVERT JUMPDEST POP POP POP POP PUSH1 0x40 MLOAD RETURNDATASIZE PUSH1 0x1F NOT PUSH1 0x1F DUP3 ADD AND DUP3 ADD DUP1 PUSH1 0x40 MSTORE POP DUP2 ADD SWAP1 PUSH2 0x5E5 SWAP2 SWAP1 PUSH2 0x1FF0 JUMP JUMPDEST PUSH2 0x62A JUMPI PUSH1 0x40 MLOAD PUSH3 0x461BCD PUSH1 0xE5 SHL DUP2 MSTORE PUSH1 0x20 PUSH1 0x4 DUP3 ADD MSTORE PUSH1 0x16 PUSH1 0x24 DUP3 ADD MSTORE PUSH22 0x14995DD85C99081D1C985B9CD9995C8819985A5B1959 PUSH1 0x52 SHL PUSH1 0x44 DUP3 ADD MSTORE PUSH1 0x64 ADD PUSH2 0x513 JUMP JUMPDEST DUP3 DUP3 PUSH1 0x0 ADD PUSH1 0x0 DUP3 DUP3 SLOAD PUSH2 0x63E SWAP2 SWAP1 PUSH2 0x2023 JUMP JUMPDEST SWAP1 SWAP2 SSTORE POP POP PUSH1 0x40 MLOAD DUP2 DUP2 MSTORE CALLER SWAP1 PUSH32 0x106F923F993C2149D49B4255FF723ACAFA1F2D94393F561D3EDA32AE348F7241 SWAP1 PUSH1 0x20 ADD PUSH1 0x40 MLOAD DUP1 SWAP2 SUB SWAP1 LOG2 POP POP PUSH2 0x683 PUSH1 0x1 DUP1 SSTORE JUMP JUMPDEST POP JUMP JUMPDEST PUSH1 0x3 PUSH1 0x20 MSTORE PUSH1 0x0 SWAP1 DUP2 MSTORE PUSH1 0x40 SWAP1 KECCAK256 DUP1 SLOAD PUSH1 0x1 DUP3 ADD DUP1 SLOAD SWAP2 SWAP3 SWAP2 PUSH2 0x6A8 SWAP1 PUSH2 0x2036 JUMP JUMPDEST DUP1 PUSH1 0x1F ADD PUSH1 0x20 DUP1 SWAP2 DIV MUL PUSH1 0x20 ADD PUSH1 0x40 MLOAD SWAP1 DUP2 ADD PUSH1 0x40 MSTORE DUP1 SWAP3 SWAP2 SWAP1 DUP2 DUP2 MSTORE PUSH1 0x20 ADD DUP3 DUP1 SLOAD PUSH2 0x6D4 SWAP1 PUSH2 0x2036 JUMP JUMPDEST DUP1 ISZERO PUSH2 0x721 JUMPI DUP1 PUSH1 0x1F LT PUSH2 0x6F6 JUMPI PUSH2 0x100 DUP1 DUP4 SLOAD DIV MUL DUP4 MSTORE SWAP2 PUSH1 0x20 ADD SWAP2 PUSH2 0x721 JUMP JUMPDEST DUP3 ADD SWAP2 SWAP1 PUSH1 0x0 MSTORE PUSH1 0x20 PUSH1 0x0 KECCAK256 SWAP1 JUMPDEST DUP2 SLOAD DUP2 MSTORE SWAP1 PUSH1 0x1 ADD SWAP1 PUSH1 0x20 ADD DUP1 DUP4 GT PUSH2 0x704 JUMPI DUP3 SWAP1 SUB PUSH1 0x1F AND DUP3 ADD SWAP2 JUMPDEST POP POP POP POP POP SWAP1 DUP1 PUSH1 0x2 ADD DUP1 SLOAD PUSH2 0x736 SWAP1 PUSH2 0x2036 JUMP JUMPDEST DUP1 PUSH1 0x1F ADD PUSH1 0x20 DUP1 SWAP2 DIV MUL PUSH1 0x20 ADD PUSH1 0x40 MLOAD SWAP1 DUP2 ADD PUSH1 0x40 MSTORE DUP1 SWAP3 SWAP2 SWAP1 DUP2 DUP2 MSTORE PUSH1 0x20 ADD DUP3 DUP1 SLOAD PUSH2 0x762 SWAP1 PUSH2 0x2036 JUMP JUMPDEST DUP1 ISZERO PUSH2 0x7AF JUMPI DUP1 PUSH1 0x1F LT PUSH2 0x784 JUMPI PUSH2 0x100 DUP1 DUP4 SLOAD DIV MUL DUP4 MSTORE SWAP2 PUSH1 0x20 ADD SWAP2 PUSH2 0x7AF JUMP JUMPDEST DUP3 ADD SWAP2 SWAP1 PUSH1 0x0 MSTORE PUSH1 0x20 PUSH1 0x0 KECCAK256 SWAP1 JUMPDEST DUP2 SLOAD DUP2 MSTORE SWAP1 PUSH1 0x1 ADD SWAP1 PUSH1 0x20 ADD DUP1 DUP4 GT PUSH2 0x792 JUMPI DUP3 SWAP1 SUB PUSH1 0x1F AND DUP3 ADD SWAP2 JUMPDEST POP POP POP PUSH1 0x3 DUP5 ADD SLOAD PUSH1 0x4 DUP6 ADD SLOAD PUSH1 0x5 DUP7 ADD SLOAD PUSH1 0x6 DUP8 ADD SLOAD PUSH1 0x7 DUP9 ADD SLOAD PUSH1 0x8 SWAP1 SWAP9 ADD SLOAD SWAP7 SWAP8 SWAP4 SWAP7 SWAP3 SWAP6 POP PUSH1 0xFF SWAP1 SWAP2 AND SWAP4 POP SWAP2 SWAP1 DUP10 JUMP JUMPDEST PUSH2 0x7EC PUSH2 0x14C1 JUMP JUMPDEST PUSH2 0x7F4 PUSH2 0x14EE JUMP JUMPDEST JUMP JUMPDEST PUSH2 0x7FE PUSH2 0x14C1 JUMP JUMPDEST PUSH2 0x80B DUP6 DUP6 DUP6 DUP6 DUP6 PUSH2 0x1543 JUMP JUMPDEST POP POP POP POP POP JUMP JUMPDEST PUSH1 0x0 DUP2 DUP2 MSTORE PUSH1 0x3 PUSH1 0x20 MSTORE PUSH1 0x40 DUP2 KECCAK256 SLOAD DUP3 SWAP2 SUB PUSH2 0x866 JUMPI PUSH1 0x40 MLOAD PUSH3 0x461BCD PUSH1 0xE5 SHL DUP2 MSTORE PUSH1 0x20 PUSH1 0x4 DUP3 ADD MSTORE PUSH1 0x13 PUSH1 0x24 DUP3 ADD MSTORE PUSH19 0x125B9D985B1A59081858DA1A595D995B595B9D PUSH1 0x6A SHL PUSH1 0x44 DUP3 ADD MSTORE PUSH1 0x64 ADD PUSH2 0x513 JUMP JUMPDEST PUSH2 0x86E PUSH2 0x142D JUMP JUMPDEST PUSH1 0x1 PUSH1 0x1 PUSH1 0xA0 SHL SUB DUP4 AND PUSH1 0x0 SWAP1 DUP2 MSTORE PUSH1 0x2 PUSH1 0x20 SWAP1 DUP2 MSTORE PUSH1 0x40 DUP1 DUP4 KECCAK256 DUP6 DUP5 MSTORE PUSH1 0x3 DUP4 MSTORE DUP2 DUP5 KECCAK256 PUSH1 0x5 DUP3 ADD SWAP1 SWAP4 MSTORE SWAP3 KECCAK256 SLOAD PUSH1 0xFF AND ISZERO PUSH2 0x8ED JUMPI PUSH1 0x40 MLOAD PUSH3 0x461BCD PUSH1 0xE5 SHL DUP2 MSTORE PUSH1 0x20 PUSH1 0x4 DUP3 ADD MSTORE PUSH1 0x1C PUSH1 0x24 DUP3 ADD MSTORE PUSH32 0x416368696576656D656E7420616C726561647920756E6C6F636B656400000000 PUSH1 0x44 DUP3 ADD MSTORE PUSH1 0x64 ADD PUSH2 0x513 JUMP JUMPDEST PUSH1 0x5 DUP2 ADD SLOAD PUSH1 0xFF AND PUSH2 0x93A JUMPI PUSH1 0x40 MLOAD PUSH3 0x461BCD PUSH1 0xE5 SHL DUP2 MSTORE PUSH1 0x20 PUSH1 0x4 DUP3 ADD MSTORE PUSH1 0x16 PUSH1 0x24 DUP3 ADD MSTORE PUSH22 0x416368696576656D656E74206E6F7420616374697665 PUSH1 0x50 SHL PUSH1 0x44 DUP3 ADD MSTORE PUSH1 0x64 ADD PUSH2 0x513 JUMP JUMPDEST DUP1 PUSH1 0x6 ADD SLOAD DUP3 PUSH1 0x6 ADD PUSH1 0x40 MLOAD PUSH2 0x95B SWAP1 PUSH5 0x7377617073 PUSH1 0xD8 SHL DUP2 MSTORE PUSH1 0x5 ADD SWAP1 JUMP JUMPDEST SWAP1 DUP2 MSTORE PUSH1 0x20 ADD PUSH1 0x40 MLOAD DUP1 SWAP2 SUB SWAP1 KECCAK256 SLOAD LT ISZERO DUP1 ISZERO PUSH2 0x9A0 JUMPI POP PUSH1 0x7 DUP2 ADD SLOAD PUSH1 0x40 MLOAD PUSH6 0x766F6C756D65 PUSH1 0xD0 SHL DUP2 MSTORE PUSH1 0x6 DUP1 DUP6 ADD SWAP2 ADD SWAP1 DUP2 MSTORE PUSH1 0x20 ADD PUSH1 0x40 MLOAD DUP1 SWAP2 SUB SWAP1 KECCAK256 SLOAD LT ISZERO JUMPDEST DUP1 ISZERO PUSH2 0x9D4 JUMPI POP PUSH1 0x8 DUP2 ADD SLOAD PUSH1 0x40 MLOAD PUSH6 0x636861696E73 PUSH1 0xD0 SHL DUP2 MSTORE PUSH1 0x6 DUP1 DUP6 ADD SWAP2 ADD SWAP1 DUP2 MSTORE PUSH1 0x20 ADD PUSH1 0x40 MLOAD DUP1 SWAP2 SUB SWAP1 KECCAK256 SLOAD LT ISZERO JUMPDEST PUSH2 0xA17 JUMPI PUSH1 0x40 MLOAD PUSH3 0x461BCD PUSH1 0xE5 SHL DUP2 MSTORE PUSH1 0x20 PUSH1 0x4 DUP3 ADD MSTORE PUSH1 0x14 PUSH1 0x24 DUP3 ADD MSTORE PUSH20 0x14995C5D5A5C995B595B9D1CC81B9BDD081B595D PUSH1 0x62 SHL PUSH1 0x44 DUP3 ADD MSTORE PUSH1 0x64 ADD PUSH2 0x513 JUMP JUMPDEST DUP1 PUSH1 0x3 ADD SLOAD DUP3 PUSH1 0x0 ADD PUSH1 0x0 DUP3 DUP3 SLOAD PUSH2 0xA2F SWAP2 SWAP1 PUSH2 0x206A JUMP JUMPDEST SWAP1 SWAP2 SSTORE POP POP PUSH1 0x4 DUP2 ADD SLOAD PUSH1 0x1 DUP4 ADD DUP1 SLOAD PUSH1 0x0 SWAP1 PUSH2 0xA4D SWAP1 DUP5 SWAP1 PUSH2 0x206A JUMP JUMPDEST SWAP1 SWAP2 SSTORE POP POP PUSH1 0x0 DUP5 DUP2 MSTORE PUSH1 0x5 DUP4 ADD PUSH1 0x20 MSTORE PUSH1 0x40 DUP2 KECCAK256 DUP1 SLOAD PUSH1 0xFF NOT AND PUSH1 0x1 OR SWAP1 SSTORE PUSH1 0x3 DUP4 ADD DUP1 SLOAD SWAP2 PUSH2 0xA7D DUP4 PUSH2 0x207D JUMP JUMPDEST SWAP2 SWAP1 POP SSTORE POP DUP5 PUSH1 0x1 PUSH1 0x1 PUSH1 0xA0 SHL SUB AND PUSH32 0x5808713F30D1D277897ADB26EF9590A7FF17FDDBDE59FBFC3139AD01929CE421 DUP6 DUP4 PUSH1 0x1 ADD PUSH1 0x40 MLOAD PUSH2 0xAC0 SWAP3 SWAP2 SWAP1 PUSH2 0x2096 JUMP JUMPDEST PUSH1 0x40 MLOAD DUP1 SWAP2 SUB SWAP1 LOG2 DUP5 PUSH1 0x1 PUSH1 0x1 PUSH1 0xA0 SHL SUB AND PUSH1 0x0 DUP1 MLOAD PUSH1 0x20 PUSH2 0x2303 DUP4 CODECOPY DUP2 MLOAD SWAP2 MSTORE DUP3 PUSH1 0x3 ADD SLOAD PUSH1 0x40 MLOAD PUSH2 0xAF3 SWAP2 SWAP1 PUSH2 0x2129 JUMP JUMPDEST PUSH1 0x40 MLOAD DUP1 SWAP2 SUB SWAP1 LOG2 DUP5 PUSH1 0x1 PUSH1 0x1 PUSH1 0xA0 SHL SUB AND PUSH1 0x0 DUP1 MLOAD PUSH1 0x20 PUSH2 0x22E3 DUP4 CODECOPY DUP2 MLOAD SWAP2 MSTORE DUP3 PUSH1 0x4 ADD SLOAD PUSH1 0x40 MLOAD PUSH2 0xB26 SWAP2 SWAP1 PUSH2 0x2129 JUMP JUMPDEST PUSH1 0x40 MLOAD DUP1 SWAP2 SUB SWAP1 LOG2 POP POP POP POP POP JUMP JUMPDEST PUSH2 0xB3D PUSH2 0x14C1 JUMP JUMPDEST PUSH2 0xB4C DUP8 DUP8 DUP8 DUP8 DUP8 DUP8 DUP8 PUSH2 0x15F1 JUMP JUMPDEST POP POP POP POP POP POP POP JUMP JUMPDEST PUSH2 0xB5D PUSH2 0x142D JUMP JUMPDEST PUSH1 0x1 PUSH1 0x1 PUSH1 0xA0 SHL SUB DUP5 AND PUSH1 0x0 SWAP1 DUP2 MSTORE PUSH1 0x2 PUSH1 0x20 MSTORE PUSH1 0x40 SWAP1 KECCAK256 PUSH1 0xA PUSH1 0x1 PUSH9 0x3635C9ADC5DEA00000 DUP7 LT PUSH2 0xBA4 JUMPI PUSH2 0xB94 PUSH1 0x2 DUP4 PUSH2 0x215E JUMP JUMPDEST SWAP2 POP PUSH2 0xBA1 PUSH1 0x2 DUP3 PUSH2 0x215E JUMP JUMPDEST SWAP1 POP JUMPDEST DUP5 ISZERO PUSH2 0xBC5 JUMPI PUSH2 0xBB5 PUSH1 0x19 DUP4 PUSH2 0x206A JUMP JUMPDEST SWAP2 POP PUSH2 0xBC2 PUSH1 0x5 DUP3 PUSH2 0x206A JUMP JUMPDEST SWAP1 POP JUMPDEST PUSH1 0x1 DUP5 GT ISZERO PUSH2 0xC13 JUMPI PUSH2 0xBD9 PUSH1 0x1 DUP6 PUSH2 0x2023 JUMP JUMPDEST PUSH2 0xBE4 SWAP1 PUSH1 0xA PUSH2 0x215E JUMP JUMPDEST PUSH2 0xBEE SWAP1 DUP4 PUSH2 0x206A JUMP JUMPDEST SWAP2 POP PUSH2 0xBFB PUSH1 0x1 DUP6 PUSH2 0x2023 JUMP JUMPDEST PUSH2 0xC06 SWAP1 PUSH1 0x2 PUSH2 0x215E JUMP JUMPDEST PUSH2 0xC10 SWAP1 DUP3 PUSH2 0x206A JUMP JUMPDEST SWAP1 POP JUMPDEST DUP2 DUP4 PUSH1 0x0 ADD PUSH1 0x0 DUP3 DUP3 SLOAD PUSH2 0xC27 SWAP2 SWAP1 PUSH2 0x206A JUMP JUMPDEST SWAP3 POP POP DUP2 SWAP1 SSTORE POP DUP1 DUP4 PUSH1 0x1 ADD PUSH1 0x0 DUP3 DUP3 SLOAD PUSH2 0xC42 SWAP2 SWAP1 PUSH2 0x206A JUMP JUMPDEST SWAP1 SWAP2 SSTORE POP POP PUSH1 0x40 MLOAD PUSH5 0x7377617073 PUSH1 0xD8 SHL DUP2 MSTORE PUSH1 0x6 DUP5 ADD SWAP1 PUSH1 0x5 ADD SWAP1 DUP2 MSTORE PUSH1 0x40 MLOAD SWAP1 DUP2 SWAP1 SUB PUSH1 0x20 ADD SWAP1 KECCAK256 DUP1 SLOAD SWAP1 PUSH1 0x0 PUSH2 0xC7A DUP4 PUSH2 0x207D JUMP JUMPDEST SWAP2 SWAP1 POP SSTORE POP DUP6 DUP4 PUSH1 0x6 ADD PUSH1 0x40 MLOAD PUSH2 0xC9D SWAP1 PUSH6 0x766F6C756D65 PUSH1 0xD0 SHL DUP2 MSTORE PUSH1 0x6 ADD SWAP1 JUMP JUMPDEST SWAP1 DUP2 MSTORE PUSH1 0x20 ADD PUSH1 0x40 MLOAD DUP1 SWAP2 SUB SWAP1 KECCAK256 PUSH1 0x0 DUP3 DUP3 SLOAD PUSH2 0xCBA SWAP2 SWAP1 PUSH2 0x206A JUMP JUMPDEST SWAP1 SWAP2 SSTORE POP POP TIMESTAMP PUSH1 0x4 DUP5 ADD SSTORE PUSH2 0xCCE DUP8 PUSH2 0x16EA JUMP JUMPDEST PUSH2 0xCD7 DUP8 PUSH2 0x1777 JUMP JUMPDEST DUP7 PUSH1 0x1 PUSH1 0x1 PUSH1 0xA0 SHL SUB AND PUSH1 0x0 DUP1 MLOAD PUSH1 0x20 PUSH2 0x2303 DUP4 CODECOPY DUP2 MLOAD SWAP2 MSTORE DUP4 PUSH1 0x40 MLOAD PUSH2 0xD25 SWAP2 DUP2 MSTORE PUSH1 0x40 PUSH1 0x20 DUP3 ADD DUP2 SWAP1 MSTORE PUSH1 0xD SWAP1 DUP3 ADD MSTORE PUSH13 0x1CDDD85C17D95E1958DD5D1959 PUSH1 0x9A SHL PUSH1 0x60 DUP3 ADD MSTORE PUSH1 0x80 ADD SWAP1 JUMP JUMPDEST PUSH1 0x40 MLOAD DUP1 SWAP2 SUB SWAP1 LOG2 DUP7 PUSH1 0x1 PUSH1 0x1 PUSH1 0xA0 SHL SUB AND PUSH1 0x0 DUP1 MLOAD PUSH1 0x20 PUSH2 0x22E3 DUP4 CODECOPY DUP2 MLOAD SWAP2 MSTORE DUP3 PUSH1 0x40 MLOAD PUSH2 0xD7B SWAP2 DUP2 MSTORE PUSH1 0x40 PUSH1 0x20 DUP3 ADD DUP2 SWAP1 MSTORE PUSH1 0xD SWAP1 DUP3 ADD MSTORE PUSH13 0x1CDDD85C17D95E1958DD5D1959 PUSH1 0x9A SHL PUSH1 0x60 DUP3 ADD MSTORE PUSH1 0x80 ADD SWAP1 JUMP JUMPDEST PUSH1 0x40 MLOAD DUP1 SWAP2 SUB SWAP1 LOG2 POP POP POP POP POP POP POP JUMP JUMPDEST PUSH2 0xD94 PUSH2 0x14C1 JUMP JUMPDEST PUSH2 0x7F4 PUSH1 0x0 PUSH2 0x19A2 JUMP JUMPDEST PUSH1 0x1 PUSH1 0x1 PUSH1 0xA0 SHL SUB DUP3 AND PUSH1 0x0 SWAP1 DUP2 MSTORE PUSH1 0x2 PUSH1 0x20 MSTORE PUSH1 0x40 DUP1 DUP3 KECCAK256 SWAP1 MLOAD PUSH1 0x6 SWAP1 SWAP2 ADD SWAP1 PUSH2 0xDCA SWAP1 DUP5 SWAP1 PUSH2 0x2175 JUMP JUMPDEST SWAP1 DUP2 MSTORE PUSH1 0x20 ADD PUSH1 0x40 MLOAD DUP1 SWAP2 SUB SWAP1 KECCAK256 SLOAD SWAP1 POP SWAP3 SWAP2 POP POP JUMP JUMPDEST PUSH2 0xDE9 PUSH2 0x14C1 JUMP JUMPDEST PUSH2 0x7F4 PUSH2 0x19F2 JUMP JUMPDEST PUSH2 0xDF9 PUSH2 0x142D JUMP JUMPDEST PUSH1 0x1 PUSH1 0x1 PUSH1 0xA0 SHL SUB DUP4 AND PUSH1 0x0 SWAP1 DUP2 MSTORE PUSH1 0x2 PUSH1 0x20 MSTORE PUSH1 0x40 DUP2 KECCAK256 PUSH1 0x1 DUP2 ADD DUP1 SLOAD SWAP2 SWAP3 DUP6 SWAP3 PUSH2 0xE26 SWAP1 DUP5 SWAP1 PUSH2 0x206A JUMP JUMPDEST SWAP1 SWAP2 SSTORE POP POP TIMESTAMP PUSH1 0x4 DUP3 ADD SSTORE PUSH1 0x40 MLOAD PUSH1 0x1 PUSH1 0x1 PUSH1 0xA0 SHL SUB DUP6 AND SWAP1 PUSH1 0x0 DUP1 MLOAD PUSH1 0x20 PUSH2 0x22E3 DUP4 CODECOPY DUP2 MLOAD SWAP2 MSTORE SWAP1 PUSH2 0xE5C SWAP1 DUP7 SWAP1 DUP7 SWAP1 PUSH2 0x2191 JUMP JUMPDEST PUSH1 0x40 MLOAD DUP1 SWAP2 SUB SWAP1 LOG2 POP POP POP POP JUMP JUMPDEST PUSH2 0xEA5 PUSH1 0x40 MLOAD DUP1 PUSH1 0xC0 ADD PUSH1 0x40 MSTORE DUP1 PUSH1 0x0 DUP2 MSTORE PUSH1 0x20 ADD PUSH1 0x60 DUP2 MSTORE PUSH1 0x20 ADD PUSH1 0x0 DUP2 MSTORE PUSH1 0x20 ADD PUSH1 0x0 DUP2 MSTORE PUSH1 0x20 ADD PUSH1 0x0 DUP2 MSTORE PUSH1 0x20 ADD PUSH1 0x0 ISZERO ISZERO DUP2 MSTORE POP SWAP1 JUMP JUMPDEST PUSH1 0x0 DUP3 DUP2 MSTORE PUSH1 0x4 PUSH1 0x20 MSTORE PUSH1 0x40 DUP2 KECCAK256 SLOAD DUP4 SWAP2 SUB PUSH2 0xEF2 JUMPI PUSH1 0x40 MLOAD PUSH3 0x461BCD PUSH1 0xE5 SHL DUP2 MSTORE PUSH1 0x20 PUSH1 0x4 DUP3 ADD MSTORE PUSH1 0xC PUSH1 0x24 DUP3 ADD MSTORE PUSH12 0x24B73B30B634B2103A34B2B9 PUSH1 0xA1 SHL PUSH1 0x44 DUP3 ADD MSTORE PUSH1 0x64 ADD PUSH2 0x513 JUMP JUMPDEST PUSH1 0x4 PUSH1 0x0 DUP5 DUP2 MSTORE PUSH1 0x20 ADD SWAP1 DUP2 MSTORE PUSH1 0x20 ADD PUSH1 0x0 KECCAK256 PUSH1 0x40 MLOAD DUP1 PUSH1 0xC0 ADD PUSH1 0x40 MSTORE SWAP1 DUP2 PUSH1 0x0 DUP3 ADD SLOAD DUP2 MSTORE PUSH1 0x20 ADD PUSH1 0x1 DUP3 ADD DUP1 SLOAD PUSH2 0xF2A SWAP1 PUSH2 0x2036 JUMP JUMPDEST DUP1 PUSH1 0x1F ADD PUSH1 0x20 DUP1 SWAP2 DIV MUL PUSH1 0x20 ADD PUSH1 0x40 MLOAD SWAP1 DUP2 ADD PUSH1 0x40 MSTORE DUP1 SWAP3 SWAP2 SWAP1 DUP2 DUP2 MSTORE PUSH1 0x20 ADD DUP3 DUP1 SLOAD PUSH2 0xF56 SWAP1 PUSH2 0x2036 JUMP JUMPDEST DUP1 ISZERO PUSH2 0xFA3 JUMPI DUP1 PUSH1 0x1F LT PUSH2 0xF78 JUMPI PUSH2 0x100 DUP1 DUP4 SLOAD DIV MUL DUP4 MSTORE SWAP2 PUSH1 0x20 ADD SWAP2 PUSH2 0xFA3 JUMP JUMPDEST DUP3 ADD SWAP2 SWAP1 PUSH1 0x0 MSTORE PUSH1 0x20 PUSH1 0x0 KECCAK256 SWAP1 JUMPDEST DUP2 SLOAD DUP2 MSTORE SWAP1 PUSH1 0x1 ADD SWAP1 PUSH1 0x20 ADD DUP1 DUP4 GT PUSH2 0xF86 JUMPI DUP3 SWAP1 SUB PUSH1 0x1F AND DUP3 ADD SWAP2 JUMPDEST POP POP POP SWAP2 DUP4 MSTORE POP POP PUSH1 0x2 DUP3 ADD SLOAD PUSH1 0x20 DUP3 ADD MSTORE PUSH1 0x3 DUP3 ADD SLOAD PUSH1 0x40 DUP3 ADD MSTORE PUSH1 0x4 DUP3 ADD SLOAD PUSH1 0x60 DUP3 ADD MSTORE PUSH1 0x5 SWAP1 SWAP2 ADD SLOAD PUSH1 0xFF AND ISZERO ISZERO PUSH1 0x80 SWAP1 SWAP2 ADD MSTORE SWAP2 POP JUMPDEST POP SWAP2 SWAP1 POP JUMP JUMPDEST PUSH2 0x1034 PUSH1 0x40 MLOAD DUP1 PUSH2 0x120 ADD PUSH1 0x40 MSTORE DUP1 PUSH1 0x0 DUP2 MSTORE PUSH1 0x20 ADD PUSH1 0x60 DUP2 MSTORE PUSH1 0x20 ADD PUSH1 0x60 DUP2 MSTORE PUSH1 0x20 ADD PUSH1 0x0 DUP2 MSTORE PUSH1 0x20 ADD PUSH1 0x0 DUP2 MSTORE PUSH1 0x20 ADD PUSH1 0x0 ISZERO ISZERO DUP2 MSTORE PUSH1 0x20 ADD PUSH1 0x0 DUP2 MSTORE PUSH1 0x20 ADD PUSH1 0x0 DUP2 MSTORE PUSH1 0x20 ADD PUSH1 0x0 DUP2 MSTORE POP SWAP1 JUMP JUMPDEST PUSH1 0x0 DUP3 DUP2 MSTORE PUSH1 0x3 PUSH1 0x20 MSTORE PUSH1 0x40 DUP2 KECCAK256 SLOAD DUP4 SWAP2 SUB PUSH2 0x1088 JUMPI PUSH1 0x40 MLOAD PUSH3 0x461BCD PUSH1 0xE5 SHL DUP2 MSTORE PUSH1 0x20 PUSH1 0x4 DUP3 ADD MSTORE PUSH1 0x13 PUSH1 0x24 DUP3 ADD MSTORE PUSH19 0x125B9D985B1A59081858DA1A595D995B595B9D PUSH1 0x6A SHL PUSH1 0x44 DUP3 ADD MSTORE PUSH1 0x64 ADD PUSH2 0x513 JUMP JUMPDEST PUSH1 0x3 PUSH1 0x0 DUP5 DUP2 MSTORE PUSH1 0x20 ADD SWAP1 DUP2 MSTORE PUSH1 0x20 ADD PUSH1 0x0 KECCAK256 PUSH1 0x40 MLOAD DUP1 PUSH2 0x120 ADD PUSH1 0x40 MSTORE SWAP1 DUP2 PUSH1 0x0 DUP3 ADD SLOAD DUP2 MSTORE PUSH1 0x20 ADD PUSH1 0x1 DUP3 ADD DUP1 SLOAD PUSH2 0x10C1 SWAP1 PUSH2 0x2036 JUMP JUMPDEST DUP1 PUSH1 0x1F ADD PUSH1 0x20 DUP1 SWAP2 DIV MUL PUSH1 0x20 ADD PUSH1 0x40 MLOAD SWAP1 DUP2 ADD PUSH1 0x40 MSTORE DUP1 SWAP3 SWAP2 SWAP1 DUP2 DUP2 MSTORE PUSH1 0x20 ADD DUP3 DUP1 SLOAD PUSH2 0x10ED SWAP1 PUSH2 0x2036 JUMP JUMPDEST DUP1 ISZERO PUSH2 0x113A JUMPI DUP1 PUSH1 0x1F LT PUSH2 0x110F JUMPI PUSH2 0x100 DUP1 DUP4 SLOAD DIV MUL DUP4 MSTORE SWAP2 PUSH1 0x20 ADD SWAP2 PUSH2 0x113A JUMP JUMPDEST DUP3 ADD SWAP2 SWAP1 PUSH1 0x0 MSTORE PUSH1 0x20 PUSH1 0x0 KECCAK256 SWAP1 JUMPDEST DUP2 SLOAD DUP2 MSTORE SWAP1 PUSH1 0x1 ADD SWAP1 PUSH1 0x20 ADD DUP1 DUP4 GT PUSH2 0x111D JUMPI DUP3 SWAP1 SUB PUSH1 0x1F AND DUP3 ADD SWAP2 JUMPDEST POP POP POP POP POP DUP2 MSTORE PUSH1 0x20 ADD PUSH1 0x2 DUP3 ADD DUP1 SLOAD PUSH2 0x1153 SWAP1 PUSH2 0x2036 JUMP JUMPDEST DUP1 PUSH1 0x1F ADD PUSH1 0x20 DUP1 SWAP2 DIV MUL PUSH1 0x20 ADD PUSH1 0x40 MLOAD SWAP1 DUP2 ADD PUSH1 0x40 MSTORE DUP1 SWAP3 SWAP2 SWAP1 DUP2 DUP2 MSTORE PUSH1 0x20 ADD DUP3 DUP1 SLOAD PUSH2 0x117F SWAP1 PUSH2 0x2036 JUMP JUMPDEST DUP1 ISZERO PUSH2 0x11CC JUMPI DUP1 PUSH1 0x1F LT PUSH2 0x11A1 JUMPI PUSH2 0x100 DUP1 DUP4 SLOAD DIV MUL DUP4 MSTORE SWAP2 PUSH1 0x20 ADD SWAP2 PUSH2 0x11CC JUMP JUMPDEST DUP3 ADD SWAP2 SWAP1 PUSH1 0x0 MSTORE PUSH1 0x20 PUSH1 0x0 KECCAK256 SWAP1 JUMPDEST DUP2 SLOAD DUP2 MSTORE SWAP1 PUSH1 0x1 ADD SWAP1 PUSH1 0x20 ADD DUP1 DUP4 GT PUSH2 0x11AF JUMPI DUP3 SWAP1 SUB PUSH1 0x1F AND DUP3 ADD SWAP2 JUMPDEST POP POP POP SWAP2 DUP4 MSTORE POP POP PUSH1 0x3 DUP3 ADD SLOAD PUSH1 0x20 DUP3 ADD MSTORE PUSH1 0x4 DUP3 ADD SLOAD PUSH1 0x40 DUP3 ADD MSTORE PUSH1 0x5 DUP3 ADD SLOAD PUSH1 0xFF AND ISZERO ISZERO PUSH1 0x60 DUP3 ADD MSTORE PUSH1 0x6 DUP3 ADD SLOAD PUSH1 0x80 DUP3 ADD MSTORE PUSH1 0x7 DUP3 ADD SLOAD PUSH1 0xA0 DUP3 ADD MSTORE PUSH1 0x8 SWAP1 SWAP2 ADD SLOAD PUSH1 0xC0 SWAP1 SWAP2 ADD MSTORE SWAP4 SWAP3 POP POP POP JUMP JUMPDEST PUSH2 0x1226 PUSH2 0x14C1 JUMP JUMPDEST PUSH1 0x1 PUSH1 0x1 PUSH1 0xA0 SHL SUB DUP2 AND PUSH2 0x1250 JUMPI PUSH1 0x40 MLOAD PUSH4 0x1E4FBDF7 PUSH1 0xE0 SHL DUP2 MSTORE PUSH1 0x0 PUSH1 0x4 DUP3 ADD MSTORE PUSH1 0x24 ADD PUSH2 0x513 JUMP JUMPDEST PUSH2 0x683 DUP2 PUSH2 0x19A2 JUMP JUMPDEST PUSH2 0x1261 PUSH2 0x14C1 JUMP JUMPDEST PUSH1 0x1 PUSH1 0x1 PUSH1 0xA0 SHL SUB DUP2 AND PUSH2 0x12AF JUMPI PUSH1 0x40 MLOAD PUSH3 0x461BCD PUSH1 0xE5 SHL DUP2 MSTORE PUSH1 0x20 PUSH1 0x4 DUP3 ADD MSTORE PUSH1 0x15 PUSH1 0x24 DUP3 ADD MSTORE PUSH21 0x496E76616C696420746F6B656E2061646472657373 PUSH1 0x58 SHL PUSH1 0x44 DUP3 ADD MSTORE PUSH1 0x64 ADD PUSH2 0x513 JUMP JUMPDEST PUSH1 0x7 DUP1 SLOAD PUSH1 0x1 PUSH1 0x1 PUSH1 0xA0 SHL SUB NOT AND PUSH1 0x1 PUSH1 0x1 PUSH1 0xA0 SHL SUB SWAP3 SWAP1 SWAP3 AND SWAP2 SWAP1 SWAP2 OR SWAP1 SSTORE JUMP JUMPDEST PUSH2 0x12D9 PUSH2 0x142D JUMP JUMPDEST PUSH1 0x1 PUSH1 0x1 PUSH1 0xA0 SHL SUB DUP4 AND PUSH1 0x0 SWAP1 DUP2 MSTORE PUSH1 0x2 PUSH1 0x20 MSTORE PUSH1 0x40 DUP2 KECCAK256 DUP1 SLOAD SWAP1 SWAP2 DUP5 SWAP2 DUP4 SWAP2 SWAP1 PUSH2 0x1305 SWAP1 DUP5 SWAP1 PUSH2 0x206A JUMP JUMPDEST SWAP1 SWAP2 SSTORE POP POP TIMESTAMP PUSH1 0x4 DUP3 ADD SSTORE PUSH2 0x1319 DUP5 PUSH2 0x16EA JUMP JUMPDEST DUP4 PUSH1 0x1 PUSH1 0x1 PUSH1 0xA0 SHL SUB AND PUSH1 0x0 DUP1 MLOAD PUSH1 0x20 PUSH2 0x2303 DUP4 CODECOPY DUP2 MLOAD SWAP2 MSTORE DUP5 DUP5 PUSH1 0x40 MLOAD PUSH2 0xE5C SWAP3 SWAP2 SWAP1 PUSH2 0x2191 JUMP JUMPDEST PUSH1 0x4 PUSH1 0x20 MSTORE PUSH1 0x0 SWAP1 DUP2 MSTORE PUSH1 0x40 SWAP1 KECCAK256 DUP1 SLOAD PUSH1 0x1 DUP3 ADD DUP1 SLOAD SWAP2 SWAP3 SWAP2 PUSH2 0x1364 SWAP1 PUSH2 0x2036 JUMP JUMPDEST DUP1 PUSH1 0x1F ADD PUSH1 0x20 DUP1 SWAP2 DIV MUL PUSH1 0x20 ADD PUSH1 0x40 MLOAD SWAP1 DUP2 ADD PUSH1 0x40 MSTORE DUP1 SWAP3 SWAP2 SWAP1 DUP2 DUP2 MSTORE PUSH1 0x20 ADD DUP3 DUP1 SLOAD PUSH2 0x1390 SWAP1 PUSH2 0x2036 JUMP JUMPDEST DUP1 ISZERO PUSH2 0x13DD JUMPI DUP1 PUSH1 0x1F LT PUSH2 0x13B2 JUMPI PUSH2 0x100 DUP1 DUP4 SLOAD DIV MUL DUP4 MSTORE SWAP2 PUSH1 0x20 ADD SWAP2 PUSH2 0x13DD JUMP JUMPDEST DUP3 ADD SWAP2 SWAP1 PUSH1 0x0 MSTORE PUSH1 0x20 PUSH1 0x0 KECCAK256 SWAP1 JUMPDEST DUP2 SLOAD DUP2 MSTORE SWAP1 PUSH1 0x1 ADD SWAP1 PUSH1 0x20 ADD DUP1 DUP4 GT PUSH2 0x13C0 JUMPI DUP3 SWAP1 SUB PUSH1 0x1F AND DUP3 ADD SWAP2 JUMPDEST POP POP POP POP PUSH1 0x2 DUP4 ADD SLOAD PUSH1 0x3 DUP5 ADD SLOAD PUSH1 0x4 DUP6 ADD SLOAD PUSH1 0x5 SWAP1 SWAP6 ADD SLOAD SWAP4 SWAP5 SWAP2 SWAP4 SWAP1 SWAP3 POP PUSH1 0xFF AND DUP7 JUMP JUMPDEST PUSH1 0x2 PUSH1 0x1 SLOAD SUB PUSH2 0x1426 JUMPI PUSH1 0x40 MLOAD PUSH4 0x3EE5AEB5 PUSH1 0xE0 SHL DUP2 MSTORE PUSH1 0x4 ADD PUSH1 0x40 MLOAD DUP1 SWAP2 SUB SWAP1 REVERT JUMPDEST PUSH1 0x2 PUSH1 0x1 SSTORE JUMP JUMPDEST PUSH1 0x0 SLOAD PUSH1 0x1 PUSH1 0xA0 SHL SWAP1 DIV PUSH1 0xFF AND ISZERO PUSH2 0x7F4 JUMPI PUSH1 0x40 MLOAD PUSH4 0xD93C0665 PUSH1 0xE0 SHL DUP2 MSTORE PUSH1 0x4 ADD PUSH1 0x40 MLOAD DUP1 SWAP2 SUB SWAP1 REVERT JUMPDEST PUSH1 0x1 PUSH1 0x1 PUSH1 0xA0 SHL SUB DUP3 AND PUSH1 0x0 SWAP1 DUP2 MSTORE PUSH1 0x2 PUSH1 0x20 MSTORE PUSH1 0x40 DUP2 KECCAK256 DUP2 PUSH2 0x147A DUP6 PUSH2 0x1A35 JUMP JUMPDEST SWAP1 POP DUP1 ISZERO PUSH2 0x14B8 JUMPI PUSH1 0x0 DUP2 DUP2 MSTORE PUSH1 0x4 PUSH1 0x20 DUP2 SWAP1 MSTORE PUSH1 0x40 SWAP1 SWAP2 KECCAK256 SWAP1 DUP2 ADD SLOAD PUSH1 0x64 SWAP1 PUSH2 0x14A4 SWAP1 DUP8 PUSH2 0x215E JUMP JUMPDEST PUSH2 0x14AE SWAP2 SWAP1 PUSH2 0x21B2 JUMP JUMPDEST SWAP4 POP POP POP POP PUSH2 0x4B4 JUMP JUMPDEST POP SWAP2 SWAP4 SWAP3 POP POP POP JUMP JUMPDEST PUSH1 0x0 SLOAD PUSH1 0x1 PUSH1 0x1 PUSH1 0xA0 SHL SUB AND CALLER EQ PUSH2 0x7F4 JUMPI PUSH1 0x40 MLOAD PUSH4 0x118CDAA7 PUSH1 0xE0 SHL DUP2 MSTORE CALLER PUSH1 0x4 DUP3 ADD MSTORE PUSH1 0x24 ADD PUSH2 0x513 JUMP JUMPDEST PUSH2 0x14F6 PUSH2 0x1ABE JUMP JUMPDEST PUSH1 0x0 DUP1 SLOAD PUSH1 0xFF PUSH1 0xA0 SHL NOT AND SWAP1 SSTORE PUSH32 0x5DB9EE0A495BF2E6FF9C91A7834C1BA4FDD244A5E8AA4E537BD38AEAE4B073AA CALLER JUMPDEST PUSH1 0x40 MLOAD PUSH1 0x1 PUSH1 0x1 PUSH1 0xA0 SHL SUB SWAP1 SWAP2 AND DUP2 MSTORE PUSH1 0x20 ADD PUSH1 0x40 MLOAD DUP1 SWAP2 SUB SWAP1 LOG1 JUMP JUMPDEST PUSH1 0x6 DUP1 SLOAD SWAP1 DUP2 SWAP1 PUSH1 0x0 PUSH2 0x1555 DUP4 PUSH2 0x207D JUMP JUMPDEST SWAP1 SWAP2 SSTORE POP POP PUSH1 0x40 DUP1 MLOAD PUSH1 0xC0 DUP2 ADD DUP3 MSTORE DUP3 DUP2 MSTORE PUSH1 0x20 DUP1 DUP3 ADD DUP10 DUP2 MSTORE DUP3 DUP5 ADD DUP10 SWAP1 MSTORE PUSH1 0x60 DUP4 ADD DUP9 SWAP1 MSTORE PUSH1 0x80 DUP4 ADD DUP8 SWAP1 MSTORE DUP6 ISZERO ISZERO PUSH1 0xA0 DUP5 ADD MSTORE PUSH1 0x0 DUP6 DUP2 MSTORE PUSH1 0x4 SWAP1 SWAP3 MSTORE SWAP3 SWAP1 KECCAK256 DUP2 MLOAD DUP2 SSTORE SWAP2 MLOAD SWAP1 SWAP2 SWAP1 PUSH1 0x1 DUP3 ADD SWAP1 PUSH2 0x15B0 SWAP1 DUP3 PUSH2 0x2222 JUMP JUMPDEST POP PUSH1 0x40 DUP3 ADD MLOAD PUSH1 0x2 DUP3 ADD SSTORE PUSH1 0x60 DUP3 ADD MLOAD PUSH1 0x3 DUP3 ADD SSTORE PUSH1 0x80 DUP3 ADD MLOAD PUSH1 0x4 DUP3 ADD SSTORE PUSH1 0xA0 SWAP1 SWAP2 ADD MLOAD PUSH1 0x5 SWAP1 SWAP2 ADD DUP1 SLOAD PUSH1 0xFF NOT AND SWAP2 ISZERO ISZERO SWAP2 SWAP1 SWAP2 OR SWAP1 SSTORE POP POP POP POP POP POP JUMP JUMPDEST PUSH1 0x5 DUP1 SLOAD SWAP1 DUP2 SWAP1 PUSH1 0x0 PUSH2 0x1603 DUP4 PUSH2 0x207D JUMP JUMPDEST SWAP2 SWAP1 POP SSTORE POP PUSH1 0x40 MLOAD DUP1 PUSH2 0x120 ADD PUSH1 0x40 MSTORE DUP1 DUP3 DUP2 MSTORE PUSH1 0x20 ADD DUP10 DUP2 MSTORE PUSH1 0x20 ADD DUP9 DUP2 MSTORE PUSH1 0x20 ADD DUP8 DUP2 MSTORE PUSH1 0x20 ADD DUP7 DUP2 MSTORE PUSH1 0x20 ADD PUSH1 0x1 ISZERO ISZERO DUP2 MSTORE PUSH1 0x20 ADD DUP6 DUP2 MSTORE PUSH1 0x20 ADD DUP5 DUP2 MSTORE PUSH1 0x20 ADD DUP4 DUP2 MSTORE POP PUSH1 0x3 PUSH1 0x0 DUP4 DUP2 MSTORE PUSH1 0x20 ADD SWAP1 DUP2 MSTORE PUSH1 0x20 ADD PUSH1 0x0 KECCAK256 PUSH1 0x0 DUP3 ADD MLOAD DUP2 PUSH1 0x0 ADD SSTORE PUSH1 0x20 DUP3 ADD MLOAD DUP2 PUSH1 0x1 ADD SWAP1 DUP2 PUSH2 0x167D SWAP2 SWAP1 PUSH2 0x2222 JUMP JUMPDEST POP PUSH1 0x40 DUP3 ADD MLOAD PUSH1 0x2 DUP3 ADD SWAP1 PUSH2 0x1692 SWAP1 DUP3 PUSH2 0x2222 JUMP JUMPDEST POP PUSH1 0x60 DUP3 ADD MLOAD PUSH1 0x3 DUP3 ADD SSTORE PUSH1 0x80 DUP3 ADD MLOAD PUSH1 0x4 DUP3 ADD SSTORE PUSH1 0xA0 DUP3 ADD MLOAD PUSH1 0x5 DUP3 ADD DUP1 SLOAD PUSH1 0xFF NOT AND SWAP2 ISZERO ISZERO SWAP2 SWAP1 SWAP2 OR SWAP1 SSTORE PUSH1 0xC0 DUP3 ADD MLOAD PUSH1 0x6 DUP3 ADD SSTORE PUSH1 0xE0 DUP3 ADD MLOAD PUSH1 0x7 DUP3 ADD SSTORE PUSH2 0x100 SWAP1 SWAP2 ADD MLOAD PUSH1 0x8 SWAP1 SWAP2 ADD SSTORE POP POP POP POP POP POP POP POP JUMP JUMPDEST PUSH1 0x1 PUSH1 0x1 PUSH1 0xA0 SHL SUB DUP2 AND PUSH1 0x0 SWAP1 DUP2 MSTORE PUSH1 0x2 PUSH1 0x20 MSTORE PUSH1 0x40 DUP2 KECCAK256 DUP1 SLOAD SWAP1 SWAP2 SWAP1 PUSH2 0x1713 SWAP1 PUSH1 0x64 SWAP1 PUSH2 0x21B2 JUMP JUMPDEST PUSH2 0x171E SWAP1 PUSH1 0x1 PUSH2 0x206A JUMP JUMPDEST SWAP1 POP DUP2 PUSH1 0x2 ADD SLOAD DUP2 GT ISZERO PUSH2 0x1772 JUMPI PUSH1 0x2 DUP3 ADD DUP2 SWAP1 SSTORE PUSH1 0x40 MLOAD DUP2 DUP2 MSTORE PUSH1 0x1 PUSH1 0x1 PUSH1 0xA0 SHL SUB DUP5 AND SWAP1 PUSH32 0x91E51C29E7E87A74AD3B8CCBA98538970F50A4309242735467F41E27C6B0FBAC SWAP1 PUSH1 0x20 ADD PUSH1 0x40 MLOAD DUP1 SWAP2 SUB SWAP1 LOG2 JUMPDEST POP POP POP JUMP JUMPDEST PUSH1 0x1 PUSH1 0x1 PUSH1 0xA0 SHL SUB DUP2 AND PUSH1 0x0 SWAP1 DUP2 MSTORE PUSH1 0x2 PUSH1 0x20 MSTORE PUSH1 0x40 SWAP1 KECCAK256 PUSH1 0x1 JUMPDEST PUSH1 0x5 SLOAD DUP2 GT PUSH2 0x1772 JUMPI PUSH1 0x0 DUP2 DUP2 MSTORE PUSH1 0x3 PUSH1 0x20 MSTORE PUSH1 0x40 SWAP1 KECCAK256 PUSH1 0x5 DUP2 ADD SLOAD PUSH1 0xFF AND DUP1 ISZERO PUSH2 0x17CE JUMPI POP PUSH1 0x0 DUP3 DUP2 MSTORE PUSH1 0x5 DUP5 ADD PUSH1 0x20 MSTORE PUSH1 0x40 SWAP1 KECCAK256 SLOAD PUSH1 0xFF AND ISZERO JUMPDEST DUP1 ISZERO PUSH2 0x1808 JUMPI POP DUP1 PUSH1 0x6 ADD SLOAD DUP4 PUSH1 0x6 ADD PUSH1 0x40 MLOAD PUSH2 0x17F6 SWAP1 PUSH5 0x7377617073 PUSH1 0xD8 SHL DUP2 MSTORE PUSH1 0x5 ADD SWAP1 JUMP JUMPDEST SWAP1 DUP2 MSTORE PUSH1 0x20 ADD PUSH1 0x40 MLOAD DUP1 SWAP2 SUB SWAP1 KECCAK256 SLOAD LT ISZERO JUMPDEST DUP1 ISZERO PUSH2 0x183C JUMPI POP PUSH1 0x7 DUP2 ADD SLOAD PUSH1 0x40 MLOAD PUSH6 0x766F6C756D65 PUSH1 0xD0 SHL DUP2 MSTORE PUSH1 0x6 DUP1 DUP7 ADD SWAP2 ADD SWAP1 DUP2 MSTORE PUSH1 0x20 ADD PUSH1 0x40 MLOAD DUP1 SWAP2 SUB SWAP1 KECCAK256 SLOAD LT ISZERO JUMPDEST DUP1 ISZERO PUSH2 0x1870 JUMPI POP PUSH1 0x8 DUP2 ADD SLOAD PUSH1 0x40 MLOAD PUSH6 0x636861696E73 PUSH1 0xD0 SHL DUP2 MSTORE PUSH1 0x6 DUP1 DUP7 ADD SWAP2 ADD SWAP1 DUP2 MSTORE PUSH1 0x20 ADD PUSH1 0x40 MLOAD DUP1 SWAP2 SUB SWAP1 KECCAK256 SLOAD LT ISZERO JUMPDEST ISZERO PUSH2 0x198F JUMPI PUSH1 0x0 DUP3 DUP2 MSTORE PUSH1 0x5 DUP5 ADD PUSH1 0x20 MSTORE PUSH1 0x40 DUP2 KECCAK256 DUP1 SLOAD PUSH1 0xFF NOT AND PUSH1 0x1 OR SWAP1 SSTORE PUSH1 0x3 DUP5 ADD DUP1 SLOAD SWAP2 PUSH2 0x18A0 DUP4 PUSH2 0x207D JUMP JUMPDEST SWAP2 SWAP1 POP SSTORE POP DUP1 PUSH1 0x3 ADD SLOAD DUP4 PUSH1 0x0 ADD PUSH1 0x0 DUP3 DUP3 SLOAD PUSH2 0x18BD SWAP2 SWAP1 PUSH2 0x206A JUMP JUMPDEST SWAP1 SWAP2 SSTORE POP POP PUSH1 0x4 DUP2 ADD SLOAD PUSH1 0x1 DUP5 ADD DUP1 SLOAD PUSH1 0x0 SWAP1 PUSH2 0x18DB SWAP1 DUP5 SWAP1 PUSH2 0x206A JUMP JUMPDEST SWAP3 POP POP DUP2 SWAP1 SSTORE POP DUP4 PUSH1 0x1 PUSH1 0x1 PUSH1 0xA0 SHL SUB AND PUSH32 0x5808713F30D1D277897ADB26EF9590A7FF17FDDBDE59FBFC3139AD01929CE421 DUP4 DUP4 PUSH1 0x1 ADD PUSH1 0x40 MLOAD PUSH2 0x1920 SWAP3 SWAP2 SWAP1 PUSH2 0x2096 JUMP JUMPDEST PUSH1 0x40 MLOAD DUP1 SWAP2 SUB SWAP1 LOG2 DUP4 PUSH1 0x1 PUSH1 0x1 PUSH1 0xA0 SHL SUB AND PUSH1 0x0 DUP1 MLOAD PUSH1 0x20 PUSH2 0x2303 DUP4 CODECOPY DUP2 MLOAD SWAP2 MSTORE DUP3 PUSH1 0x3 ADD SLOAD PUSH1 0x40 MLOAD PUSH2 0x1953 SWAP2 SWAP1 PUSH2 0x2129 JUMP JUMPDEST PUSH1 0x40 MLOAD DUP1 SWAP2 SUB SWAP1 LOG2 DUP4 PUSH1 0x1 PUSH1 0x1 PUSH1 0xA0 SHL SUB AND PUSH1 0x0 DUP1 MLOAD PUSH1 0x20 PUSH2 0x22E3 DUP4 CODECOPY DUP2 MLOAD SWAP2 MSTORE DUP3 PUSH1 0x4 ADD SLOAD PUSH1 0x40 MLOAD PUSH2 0x1986 SWAP2 SWAP1 PUSH2 0x2129 JUMP JUMPDEST PUSH1 0x40 MLOAD DUP1 SWAP2 SUB SWAP1 LOG2 JUMPDEST POP DUP1 PUSH2 0x199A DUP2 PUSH2 0x207D JUMP JUMPDEST SWAP2 POP POP PUSH2 0x1792 JUMP JUMPDEST PUSH1 0x0 DUP1 SLOAD PUSH1 0x1 PUSH1 0x1 PUSH1 0xA0 SHL SUB DUP4 DUP2 AND PUSH1 0x1 PUSH1 0x1 PUSH1 0xA0 SHL SUB NOT DUP4 AND DUP2 OR DUP5 SSTORE PUSH1 0x40 MLOAD SWAP2 SWAP1 SWAP3 AND SWAP3 DUP4 SWAP2 PUSH32 0x8BE0079C531659141344CD1FD0A4F28419497F9722A3DAAFE3B4186F6B6457E0 SWAP2 SWAP1 LOG3 POP POP JUMP JUMPDEST PUSH2 0x19FA PUSH2 0x142D JUMP JUMPDEST PUSH1 0x0 DUP1 SLOAD PUSH1 0xFF PUSH1 0xA0 SHL NOT AND PUSH1 0x1 PUSH1 0xA0 SHL OR SWAP1 SSTORE PUSH32 0x62E78CEA01BEE320CD4E420270B5EA74000D11B0C9F74754EBDBFC544B05A258 PUSH2 0x1526 CALLER SWAP1 JUMP JUMPDEST PUSH1 0x1 PUSH1 0x1 PUSH1 0xA0 SHL SUB DUP2 AND PUSH1 0x0 SWAP1 DUP2 MSTORE PUSH1 0x2 PUSH1 0x20 MSTORE PUSH1 0x40 DUP2 KECCAK256 PUSH1 0x1 JUMPDEST PUSH1 0x6 SLOAD DUP2 GT PUSH2 0x1AB4 JUMPI PUSH1 0x0 DUP2 DUP2 MSTORE PUSH1 0x4 PUSH1 0x20 MSTORE PUSH1 0x40 SWAP1 KECCAK256 PUSH1 0x5 DUP2 ADD SLOAD PUSH1 0xFF AND DUP1 ISZERO PUSH2 0x1A80 JUMPI POP PUSH1 0x2 DUP2 ADD SLOAD DUP4 SLOAD LT ISZERO JUMPDEST DUP1 ISZERO PUSH2 0x1A94 JUMPI POP DUP1 PUSH1 0x3 ADD SLOAD DUP4 PUSH1 0x1 ADD SLOAD LT ISZERO JUMPDEST ISZERO PUSH2 0x1AA1 JUMPI POP SWAP4 SWAP3 POP POP POP JUMP JUMPDEST POP DUP1 PUSH2 0x1AAC DUP2 PUSH2 0x207D JUMP JUMPDEST SWAP2 POP POP PUSH2 0x1A50 JUMP JUMPDEST POP PUSH1 0x0 SWAP4 SWAP3 POP POP POP JUMP JUMPDEST PUSH1 0x0 SLOAD PUSH1 0x1 PUSH1 0xA0 SHL SWAP1 DIV PUSH1 0xFF AND PUSH2 0x7F4 JUMPI PUSH1 0x40 MLOAD PUSH4 0x8DFC202B PUSH1 0xE0 SHL DUP2 MSTORE PUSH1 0x4 ADD PUSH1 0x40 MLOAD DUP1 SWAP2 SUB SWAP1 REVERT JUMPDEST DUP1 CALLDATALOAD PUSH1 0x1 PUSH1 0x1 PUSH1 0xA0 SHL SUB DUP2 AND DUP2 EQ PUSH2 0x1AFF JUMPI PUSH1 0x0 DUP1 REVERT JUMPDEST SWAP2 SWAP1 POP JUMP JUMPDEST PUSH1 0x0 DUP1 PUSH1 0x40 DUP4 DUP6 SUB SLT ISZERO PUSH2 0x1B17 JUMPI PUSH1 0x0 DUP1 REVERT JUMPDEST PUSH2 0x1B20 DUP4 PUSH2 0x1AE8 JUMP JUMPDEST SWAP5 PUSH1 0x20 SWAP4 SWAP1 SWAP4 ADD CALLDATALOAD SWAP4 POP POP POP JUMP JUMPDEST PUSH1 0x0 PUSH1 0x20 DUP3 DUP5 SUB SLT ISZERO PUSH2 0x1B40 JUMPI PUSH1 0x0 DUP1 REVERT JUMPDEST PUSH2 0x1B49 DUP3 PUSH2 0x1AE8 JUMP JUMPDEST SWAP4 SWAP3 POP POP POP JUMP JUMPDEST PUSH1 0x0 PUSH1 0x20 DUP3 DUP5 SUB SLT ISZERO PUSH2 0x1B62 JUMPI PUSH1 0x0 DUP1 REVERT JUMPDEST POP CALLDATALOAD SWAP2 SWAP1 POP JUMP JUMPDEST PUSH1 0x0 JUMPDEST DUP4 DUP2 LT ISZERO PUSH2 0x1B84 JUMPI DUP2 DUP2 ADD MLOAD DUP4 DUP3 ADD MSTORE PUSH1 0x20 ADD PUSH2 0x1B6C JUMP JUMPDEST POP POP PUSH1 0x0 SWAP2 ADD MSTORE JUMP JUMPDEST PUSH1 0x0 DUP2 MLOAD DUP1 DUP5 MSTORE PUSH2 0x1BA5 DUP2 PUSH1 0x20 DUP7 ADD PUSH1 0x20 DUP7 ADD PUSH2 0x1B69 JUMP JUMPDEST PUSH1 0x1F ADD PUSH1 0x1F NOT AND SWAP3 SWAP1 SWAP3 ADD PUSH1 0x20 ADD SWAP3 SWAP2 POP POP JUMP JUMPDEST PUSH1 0x0 PUSH2 0x120 DUP12 DUP4 MSTORE DUP1 PUSH1 0x20 DUP5 ADD MSTORE PUSH2 0x1BD3 DUP2 DUP5 ADD DUP13 PUSH2 0x1B8D JUMP JUMPDEST SWAP1 POP DUP3 DUP2 SUB PUSH1 0x40 DUP5 ADD MSTORE PUSH2 0x1BE7 DUP2 DUP12 PUSH2 0x1B8D JUMP JUMPDEST PUSH1 0x60 DUP5 ADD SWAP10 SWAP1 SWAP10 MSTORE POP POP PUSH1 0x80 DUP2 ADD SWAP6 SWAP1 SWAP6 MSTORE SWAP3 ISZERO ISZERO PUSH1 0xA0 DUP6 ADD MSTORE PUSH1 0xC0 DUP5 ADD SWAP2 SWAP1 SWAP2 MSTORE PUSH1 0xE0 DUP4 ADD MSTORE PUSH2 0x100 SWAP1 SWAP2 ADD MSTORE SWAP4 SWAP3 POP POP POP JUMP JUMPDEST PUSH4 0x4E487B71 PUSH1 0xE0 SHL PUSH1 0x0 MSTORE PUSH1 0x41 PUSH1 0x4 MSTORE PUSH1 0x24 PUSH1 0x0 REVERT JUMPDEST PUSH1 0x0 DUP3 PUSH1 0x1F DUP4 ADD SLT PUSH2 0x1C43 JUMPI PUSH1 0x0 DUP1 REVERT JUMPDEST DUP2 CALLDATALOAD PUSH8 0xFFFFFFFFFFFFFFFF DUP1 DUP3 GT ISZERO PUSH2 0x1C5E JUMPI PUSH2 0x1C5E PUSH2 0x1C1C JUMP JUMPDEST PUSH1 0x40 MLOAD PUSH1 0x1F DUP4 ADD PUSH1 0x1F NOT SWAP1 DUP2 AND PUSH1 0x3F ADD AND DUP2 ADD SWAP1 DUP3 DUP3 GT DUP2 DUP4 LT OR ISZERO PUSH2 0x1C86 JUMPI PUSH2 0x1C86 PUSH2 0x1C1C JUMP JUMPDEST DUP2 PUSH1 0x40 MSTORE DUP4 DUP2 MSTORE DUP7 PUSH1 0x20 DUP6 DUP9 ADD ADD GT ISZERO PUSH2 0x1C9F JUMPI PUSH1 0x0 DUP1 REVERT JUMPDEST DUP4 PUSH1 0x20 DUP8 ADD PUSH1 0x20 DUP4 ADD CALLDATACOPY PUSH1 0x0 PUSH1 0x20 DUP6 DUP4 ADD ADD MSTORE DUP1 SWAP5 POP POP POP POP POP SWAP3 SWAP2 POP POP JUMP JUMPDEST DUP1 ISZERO ISZERO DUP2 EQ PUSH2 0x683 JUMPI PUSH1 0x0 DUP1 REVERT JUMPDEST PUSH1 0x0 DUP1 PUSH1 0x0 DUP1 PUSH1 0x0 PUSH1 0xA0 DUP7 DUP9 SUB SLT ISZERO PUSH2 0x1CE5 JUMPI PUSH1 0x0 DUP1 REVERT JUMPDEST DUP6 CALLDATALOAD PUSH8 0xFFFFFFFFFFFFFFFF DUP2 GT ISZERO PUSH2 0x1CFC JUMPI PUSH1 0x0 DUP1 REVERT JUMPDEST PUSH2 0x1D08 DUP9 DUP3 DUP10 ADD PUSH2 0x1C32 JUMP JUMPDEST SWAP6 POP POP PUSH1 0x20 DUP7 ADD CALLDATALOAD SWAP4 POP PUSH1 0x40 DUP7 ADD CALLDATALOAD SWAP3 POP PUSH1 0x60 DUP7 ADD CALLDATALOAD SWAP2 POP PUSH1 0x80 DUP7 ADD CALLDATALOAD PUSH2 0x1D2E DUP2 PUSH2 0x1CBF JUMP JUMPDEST DUP1 SWAP2 POP POP SWAP3 SWAP6 POP SWAP3 SWAP6 SWAP1 SWAP4 POP JUMP JUMPDEST PUSH1 0x0 DUP1 PUSH1 0x0 DUP1 PUSH1 0x0 DUP1 PUSH1 0x0 PUSH1 0xE0 DUP9 DUP11 SUB SLT ISZERO PUSH2 0x1D57 JUMPI PUSH1 0x0 DUP1 REVERT JUMPDEST DUP8 CALLDATALOAD PUSH8 0xFFFFFFFFFFFFFFFF DUP1 DUP3 GT ISZERO PUSH2 0x1D6F JUMPI PUSH1 0x0 DUP1 REVERT JUMPDEST PUSH2 0x1D7B DUP12 DUP4 DUP13 ADD PUSH2 0x1C32 JUMP JUMPDEST SWAP9 POP PUSH1 0x20 DUP11 ADD CALLDATALOAD SWAP2 POP DUP1 DUP3 GT ISZERO PUSH2 0x1D91 JUMPI PUSH1 0x0 DUP1 REVERT JUMPDEST POP PUSH2 0x1D9E DUP11 DUP3 DUP12 ADD PUSH2 0x1C32 JUMP JUMPDEST SWAP8 SWAP11 SWAP8 SWAP10 POP POP POP POP PUSH1 0x40 DUP7 ADD CALLDATALOAD SWAP6 PUSH1 0x60 DUP2 ADD CALLDATALOAD SWAP6 PUSH1 0x80 DUP3 ADD CALLDATALOAD SWAP6 POP PUSH1 0xA0 DUP3 ADD CALLDATALOAD SWAP5 POP PUSH1 0xC0 SWAP1 SWAP2 ADD CALLDATALOAD SWAP3 POP SWAP1 POP JUMP JUMPDEST PUSH1 0x0 DUP1 PUSH1 0x0 DUP1 PUSH1 0x80 DUP6 DUP8 SUB SLT ISZERO PUSH2 0x1DE2 JUMPI PUSH1 0x0 DUP1 REVERT JUMPDEST PUSH2 0x1DEB DUP6 PUSH2 0x1AE8 JUMP JUMPDEST SWAP4 POP PUSH1 0x20 DUP6 ADD CALLDATALOAD SWAP3 POP PUSH1 0x40 DUP6 ADD CALLDATALOAD PUSH2 0x1E02 DUP2 PUSH2 0x1CBF JUMP JUMPDEST SWAP4 SWAP7 SWAP3 SWAP6 POP SWAP3 SWAP4 PUSH1 0x60 ADD CALLDATALOAD SWAP3 POP POP JUMP JUMPDEST PUSH1 0x0 DUP1 PUSH1 0x40 DUP4 DUP6 SUB SLT ISZERO PUSH2 0x1E25 JUMPI PUSH1 0x0 DUP1 REVERT JUMPDEST PUSH2 0x1E2E DUP4 PUSH2 0x1AE8 JUMP JUMPDEST SWAP2 POP PUSH1 0x20 DUP4 ADD CALLDATALOAD PUSH8 0xFFFFFFFFFFFFFFFF DUP2 GT ISZERO PUSH2 0x1E4A JUMPI PUSH1 0x0 DUP1 REVERT JUMPDEST PUSH2 0x1E56 DUP6 DUP3 DUP7 ADD PUSH2 0x1C32 JUMP JUMPDEST SWAP2 POP POP SWAP3 POP SWAP3 SWAP1 POP JUMP JUMPDEST PUSH1 0x0 DUP1 PUSH1 0x0 PUSH1 0x60 DUP5 DUP7 SUB SLT ISZERO PUSH2 0x1E75 JUMPI PUSH1 0x0 DUP1 REVERT JUMPDEST PUSH2 0x1E7E DUP5 PUSH2 0x1AE8 JUMP JUMPDEST SWAP3 POP PUSH1 0x20 DUP5 ADD CALLDATALOAD SWAP2 POP PUSH1 0x40 DUP5 ADD CALLDATALOAD PUSH8 0xFFFFFFFFFFFFFFFF DUP2 GT ISZERO PUSH2 0x1EA1 JUMPI PUSH1 0x0 DUP1 REVERT JUMPDEST PUSH2 0x1EAD DUP7 DUP3 DUP8 ADD PUSH2 0x1C32 JUMP JUMPDEST SWAP2 POP POP SWAP3 POP SWAP3 POP SWAP3 JUMP JUMPDEST PUSH1 0x20 DUP2 MSTORE DUP2 MLOAD PUSH1 0x20 DUP3 ADD MSTORE PUSH1 0x0 PUSH1 0x20 DUP4 ADD MLOAD PUSH1 0xC0 PUSH1 0x40 DUP5 ADD MSTORE PUSH2 0x1EDD PUSH1 0xE0 DUP5 ADD DUP3 PUSH2 0x1B8D JUMP JUMPDEST SWAP1 POP PUSH1 0x40 DUP5 ADD MLOAD PUSH1 0x60 DUP5 ADD MSTORE PUSH1 0x60 DUP5 ADD MLOAD PUSH1 0x80 DUP5 ADD MSTORE PUSH1 0x80 DUP5 ADD MLOAD PUSH1 0xA0 DUP5 ADD MSTORE PUSH1 0xA0 DUP5 ADD MLOAD ISZERO ISZERO PUSH1 0xC0 DUP5 ADD MSTORE DUP1 SWAP2 POP POP SWAP3 SWAP2 POP POP JUMP JUMPDEST PUSH1 0x20 DUP2 MSTORE DUP2 MLOAD PUSH1 0x20 DUP3 ADD MSTORE PUSH1 0x0 PUSH1 0x20 DUP4 ADD MLOAD PUSH2 0x120 DUP1 PUSH1 0x40 DUP6 ADD MSTORE PUSH2 0x1F3C PUSH2 0x140 DUP6 ADD DUP4 PUSH2 0x1B8D JUMP JUMPDEST SWAP2 POP PUSH1 0x40 DUP6 ADD MLOAD PUSH1 0x1F NOT DUP6 DUP5 SUB ADD PUSH1 0x60 DUP7 ADD MSTORE PUSH2 0x1F59 DUP4 DUP3 PUSH2 0x1B8D JUMP JUMPDEST SWAP3 POP POP PUSH1 0x60 DUP6 ADD MLOAD PUSH1 0x80 DUP6 ADD MSTORE PUSH1 0x80 DUP6 ADD MLOAD PUSH1 0xA0 DUP6 ADD MSTORE PUSH1 0xA0 DUP6 ADD MLOAD PUSH2 0x1F83 PUSH1 0xC0 DUP7 ADD DUP3 ISZERO ISZERO SWAP1 MSTORE JUMP JUMPDEST POP PUSH1 0xC0 DUP6 ADD MLOAD PUSH1 0xE0 DUP6 ADD MSTORE PUSH1 0xE0 DUP6 ADD MLOAD PUSH2 0x100 DUP2 DUP2 DUP8 ADD MSTORE DUP1 DUP8 ADD MLOAD DUP4 DUP8 ADD MSTORE POP POP POP DUP1 SWAP2 POP POP SWAP3 SWAP2 POP POP JUMP JUMPDEST DUP7 DUP2 MSTORE PUSH1 0xC0 PUSH1 0x20 DUP3 ADD MSTORE PUSH1 0x0 PUSH2 0x1FC9 PUSH1 0xC0 DUP4 ADD DUP9 PUSH2 0x1B8D JUMP JUMPDEST SWAP1 POP DUP6 PUSH1 0x40 DUP4 ADD MSTORE DUP5 PUSH1 0x60 DUP4 ADD MSTORE DUP4 PUSH1 0x80 DUP4 ADD MSTORE DUP3 ISZERO ISZERO PUSH1 0xA0 DUP4 ADD MSTORE SWAP8 SWAP7 POP POP POP POP POP POP POP JUMP JUMPDEST PUSH1 0x0 PUSH1 0x20 DUP3 DUP5 SUB SLT ISZERO PUSH2 0x2002 JUMPI PUSH1 0x0 DUP1 REVERT JUMPDEST DUP2 MLOAD PUSH2 0x1B49 DUP2 PUSH2 0x1CBF JUMP JUMPDEST PUSH4 0x4E487B71 PUSH1 0xE0 SHL PUSH1 0x0 MSTORE PUSH1 0x11 PUSH1 0x4 MSTORE PUSH1 0x24 PUSH1 0x0 REVERT JUMPDEST DUP2 DUP2 SUB DUP2 DUP2 GT ISZERO PUSH2 0x4B4 JUMPI PUSH2 0x4B4 PUSH2 0x200D JUMP JUMPDEST PUSH1 0x1 DUP2 DUP2 SHR SWAP1 DUP3 AND DUP1 PUSH2 0x204A JUMPI PUSH1 0x7F DUP3 AND SWAP2 POP JUMPDEST PUSH1 0x20 DUP3 LT DUP2 SUB PUSH2 0xFDD JUMPI PUSH4 0x4E487B71 PUSH1 0xE0 SHL PUSH1 0x0 MSTORE PUSH1 0x22 PUSH1 0x4 MSTORE PUSH1 0x24 PUSH1 0x0 REVERT JUMPDEST DUP1 DUP3 ADD DUP1 DUP3 GT ISZERO PUSH2 0x4B4 JUMPI PUSH2 0x4B4 PUSH2 0x200D JUMP JUMPDEST PUSH1 0x0 PUSH1 0x1 DUP3 ADD PUSH2 0x208F JUMPI PUSH2 0x208F PUSH2 0x200D JUMP JUMPDEST POP PUSH1 0x1 ADD SWAP1 JUMP JUMPDEST DUP3 DUP2 MSTORE PUSH1 0x0 PUSH1 0x20 PUSH1 0x40 DUP2 DUP5 ADD MSTORE PUSH1 0x0 DUP5 SLOAD PUSH2 0x20B0 DUP2 PUSH2 0x2036 JUMP JUMPDEST DUP1 PUSH1 0x40 DUP8 ADD MSTORE PUSH1 0x60 PUSH1 0x1 DUP1 DUP5 AND PUSH1 0x0 DUP2 EQ PUSH2 0x20D2 JUMPI PUSH1 0x1 DUP2 EQ PUSH2 0x20EC JUMPI PUSH2 0x211A JUMP JUMPDEST PUSH1 0xFF NOT DUP6 AND DUP10 DUP5 ADD MSTORE DUP4 ISZERO ISZERO PUSH1 0x5 SHL DUP10 ADD DUP4 ADD SWAP6 POP PUSH2 0x211A JUMP JUMPDEST DUP10 PUSH1 0x0 MSTORE DUP7 PUSH1 0x0 KECCAK256 PUSH1 0x0 JUMPDEST DUP6 DUP2 LT ISZERO PUSH2 0x2112 JUMPI DUP2 SLOAD DUP12 DUP3 ADD DUP7 ADD MSTORE SWAP1 DUP4 ADD SWAP1 DUP9 ADD PUSH2 0x20F7 JUMP JUMPDEST DUP11 ADD DUP5 ADD SWAP7 POP POP JUMPDEST POP SWAP4 SWAP10 SWAP9 POP POP POP POP POP POP POP POP POP JUMP JUMPDEST SWAP1 DUP2 MSTORE PUSH1 0x40 PUSH1 0x20 DUP3 ADD DUP2 SWAP1 MSTORE PUSH1 0x14 SWAP1 DUP3 ADD MSTORE PUSH20 0x1858DA1A595D995B595B9D17DD5B9B1BD8DAD959 PUSH1 0x62 SHL PUSH1 0x60 DUP3 ADD MSTORE PUSH1 0x80 ADD SWAP1 JUMP JUMPDEST DUP1 DUP3 MUL DUP2 ISZERO DUP3 DUP3 DIV DUP5 EQ OR PUSH2 0x4B4 JUMPI PUSH2 0x4B4 PUSH2 0x200D JUMP JUMPDEST PUSH1 0x0 DUP3 MLOAD PUSH2 0x2187 DUP2 DUP5 PUSH1 0x20 DUP8 ADD PUSH2 0x1B69 JUMP JUMPDEST SWAP2 SWAP1 SWAP2 ADD SWAP3 SWAP2 POP POP JUMP JUMPDEST DUP3 DUP2 MSTORE PUSH1 0x40 PUSH1 0x20 DUP3 ADD MSTORE PUSH1 0x0 PUSH2 0x21AA PUSH1 0x40 DUP4 ADD DUP5 PUSH2 0x1B8D JUMP JUMPDEST SWAP5 SWAP4 POP POP POP POP JUMP JUMPDEST PUSH1 0x0 DUP3 PUSH2 0x21CF JUMPI PUSH4 0x4E487B71 PUSH1 0xE0 SHL PUSH1 0x0 MSTORE PUSH1 0x12 PUSH1 0x4 MSTORE PUSH1 0x24 PUSH1 0x0 REVERT JUMPDEST POP DIV SWAP1 JUMP JUMPDEST PUSH1 0x1F DUP3 GT ISZERO PUSH2 0x1772 JUMPI PUSH1 0x0 DUP2 DUP2 MSTORE PUSH1 0x20 DUP2 KECCAK256 PUSH1 0x1F DUP6 ADD PUSH1 0x5 SHR DUP2 ADD PUSH1 0x20 DUP7 LT ISZERO PUSH2 0x21FB JUMPI POP DUP1 JUMPDEST PUSH1 0x1F DUP6 ADD PUSH1 0x5 SHR DUP3 ADD SWAP2 POP JUMPDEST DUP2 DUP2 LT ISZERO PUSH2 0x221A JUMPI DUP3 DUP2 SSTORE PUSH1 0x1 ADD PUSH2 0x2207 JUMP JUMPDEST POP POP POP POP POP POP JUMP JUMPDEST DUP2 MLOAD PUSH8 0xFFFFFFFFFFFFFFFF DUP2 GT ISZERO PUSH2 0x223C JUMPI PUSH2 0x223C PUSH2 0x1C1C JUMP JUMPDEST PUSH2 0x2250 DUP2 PUSH2 0x224A DUP5 SLOAD PUSH2 0x2036 JUMP JUMPDEST DUP5 PUSH2 0x21D4 JUMP JUMPDEST PUSH1 0x20 DUP1 PUSH1 0x1F DUP4 GT PUSH1 0x1 DUP2 EQ PUSH2 0x2285 JUMPI PUSH1 0x0 DUP5 ISZERO PUSH2 0x226D JUMPI POP DUP6 DUP4 ADD MLOAD JUMPDEST PUSH1 0x0 NOT PUSH1 0x3 DUP7 SWAP1 SHL SHR NOT AND PUSH1 0x1 DUP6 SWAP1 SHL OR DUP6 SSTORE PUSH2 0x221A JUMP JUMPDEST PUSH1 0x0 DUP6 DUP2 MSTORE PUSH1 0x20 DUP2 KECCAK256 PUSH1 0x1F NOT DUP7 AND SWAP2 JUMPDEST DUP3 DUP2 LT ISZERO PUSH2 0x22B4 JUMPI DUP9 DUP7 ADD MLOAD DUP3 SSTORE SWAP5 DUP5 ADD SWAP5 PUSH1 0x1 SWAP1 SWAP2 ADD SWAP1 DUP5 ADD PUSH2 0x2295 JUMP JUMPDEST POP DUP6 DUP3 LT ISZERO PUSH2 0x22D2 JUMPI DUP8 DUP6 ADD MLOAD PUSH1 0x0 NOT PUSH1 0x3 DUP9 SWAP1 SHL PUSH1 0xF8 AND SHR NOT AND DUP2 SSTORE JUMPDEST POP POP POP POP POP PUSH1 0x1 SWAP1 DUP2 SHL ADD SWAP1 SSTORE POP JUMP INVALID KECCAK256 0xD1 KECCAK256 GASPRICE 0xD0 0x4A 0xF9 PUSH7 0x95A6DE2E92289C POP 0xB6 DUP12 0xD1 CODECOPY 0xDE 0x21 INVALID MSTORE 0x49 0xB4 0xBA PC CALLDATACOPY INVALID 0x29 PUSH27 0xB51B16CB4103A8CE441E52AFE5CFABAB49DF83BA6B570ADCDE7724 0xF9 PUSH22 0xBDF7D0A264697066735822122059D21B839ECDEBC87F 0xAA RETURNDATASIZE SWAP15 0xD BASEFEE SWAP9 STATICCALL 0xA9 0x1E 0xF PUSH32 0xCFB38DCAEBB60FE62A09F5FE64736F6C63430008140033000000000000000000 "},"methodIdentifiers":{"BASE_POINTS_PER_SWAP()":"307bfc87","BASE_REPUTATION_PER_SWAP()":"d6f56ccb","CROSS_CHAIN_BONUS()":"3f03b4ef","LEVEL_UP_THRESHOLD()":"ede7624f","VOLUME_BONUS_THRESHOLD()":"6146730b","achievements(uint256)":"27aed72e","addAchievement(string,string,uint256,uint256,uint256,uint256,uint256)":"5c5fb679","addRewardTier(string,uint256,uint256,uint256,bool)":"56add04a","awardBonusPoints(address,uint256,string)":"fefc6a65","awardReputation(address,uint256,string)":"c05be6b1","awardSwapRewards(address,uint256,bool,uint256)":"69f5951d","claimRewards(uint256)":"0962ef79","getAchievement(uint256)":"f2ccc543","getRewardTier(uint256)":"eb586cae","getUserActivityStat(address,string)":"73ecf970","getUserRewards(address)":"078b0fb7","hasUnlockedAchievement(address,uint256)":"0309a666","owner()":"8da5cb5b","pause()":"8456cb59","paused()":"5c975abb","renounceOwnership()":"715018a6","rewardTiers(uint256)":"ff201114","rewardToken()":"f7c618c1","transferOwnership(address)":"f2fde38b","unlockAchievement(address,uint256)":"5bb338bc","unpause()":"3f4ba83a","updateRewardToken(address)":"f8cf31cb","userRewards(address)":"0660f1e8"}}}}}