{
  "_format": "hh-sol-artifact-1",
  "contractName": "SuiBridge",
  "sourceName": "contracts/SuiBridge.sol",
  "abi": [
    {
      "inputs": [],
      "stateMutability": "nonpayable",
      "type": "constructor"
    },
    {
      "inputs": [],
      "name": "EnforcedPause",
      "type": "error"
    },
    {
      "inputs": [],
      "name": "ExpectedPause",
      "type": "error"
    },
    {
      "inputs": [
        {
          "internalType": "address",
          "name": "owner",
          "type": "address"
        }
      ],
      "name": "OwnableInvalidOwner",
      "type": "error"
    },
    {
      "inputs": [
        {
          "internalType": "address",
          "name": "account",
          "type": "address"
        }
      ],
      "name": "OwnableUnauthorizedAccount",
      "type": "error"
    },
    {
      "inputs": [],
      "name": "ReentrancyGuardReentrantCall",
      "type": "error"
    },
    {
      "anonymous": false,
      "inputs": [
        {
          "indexed": true,
          "internalType": "uint256",
          "name": "requestId",
          "type": "uint256"
        }
      ],
      "name": "BridgeRequestConfirmed",
      "type": "event"
    },
    {
      "anonymous": false,
      "inputs": [
        {
          "indexed": true,
          "internalType": "uint256",
          "name": "requestId",
          "type": "uint256"
        },
        {
          "indexed": true,
          "internalType": "address",
          "name": "user",
          "type": "address"
        },
        {
          "indexed": false,
          "internalType": "uint256",
          "name": "ethereumTokenId",
          "type": "uint256"
        },
        {
          "indexed": false,
          "internalType": "string",
          "name": "suiDestination",
          "type": "string"
        }
      ],
      "name": "BridgeRequestCreated",
      "type": "event"
    },
    {
      "anonymous": false,
      "inputs": [
        {
          "indexed": true,
          "internalType": "uint256",
          "name": "requestId",
          "type": "uint256"
        }
      ],
      "name": "BridgeRequestProcessed",
      "type": "event"
    },
    {
      "anonymous": false,
      "inputs": [
        {
          "indexed": true,
          "internalType": "uint256",
          "name": "requestId",
          "type": "uint256"
        },
        {
          "indexed": false,
          "internalType": "string",
          "name": "suiObjectId",
          "type": "string"
        },
        {
          "indexed": false,
          "internalType": "uint256",
          "name": "ethereumTokenId",
          "type": "uint256"
        }
      ],
      "name": "NFTBridgedToSui",
      "type": "event"
    },
    {
      "anonymous": false,
      "inputs": [
        {
          "indexed": true,
          "internalType": "address",
          "name": "previousOwner",
          "type": "address"
        },
        {
          "indexed": true,
          "internalType": "address",
          "name": "newOwner",
          "type": "address"
        }
      ],
      "name": "OwnershipTransferred",
      "type": "event"
    },
    {
      "anonymous": false,
      "inputs": [
        {
          "indexed": false,
          "internalType": "address",
          "name": "account",
          "type": "address"
        }
      ],
      "name": "Paused",
      "type": "event"
    },
    {
      "anonymous": false,
      "inputs": [
        {
          "indexed": false,
          "internalType": "string",
          "name": "packageId",
          "type": "string"
        },
        {
          "indexed": false,
          "internalType": "string",
          "name": "module",
          "type": "string"
        }
      ],
      "name": "SuiConfigUpdated",
      "type": "event"
    },
    {
      "anonymous": false,
      "inputs": [
        {
          "indexed": true,
          "internalType": "string",
          "name": "suiObjectId",
          "type": "string"
        },
        {
          "indexed": false,
          "internalType": "string",
          "name": "fromToken",
          "type": "string"
        },
        {
          "indexed": false,
          "internalType": "string",
          "name": "toToken",
          "type": "string"
        },
        {
          "indexed": false,
          "internalType": "uint256",
          "name": "amount",
          "type": "uint256"
        }
      ],
      "name": "SuiSwapExecuted",
      "type": "event"
    },
    {
      "anonymous": false,
      "inputs": [
        {
          "indexed": false,
          "internalType": "address",
          "name": "account",
          "type": "address"
        }
      ],
      "name": "Unpaused",
      "type": "event"
    },
    {
      "inputs": [],
      "name": "SUI_MODULE",
      "outputs": [
        {
          "internalType": "string",
          "name": "",
          "type": "string"
        }
      ],
      "stateMutability": "view",
      "type": "function"
    },
    {
      "inputs": [],
      "name": "SUI_NETWORK",
      "outputs": [
        {
          "internalType": "string",
          "name": "",
          "type": "string"
        }
      ],
      "stateMutability": "view",
      "type": "function"
    },
    {
      "inputs": [],
      "name": "SUI_PACKAGE_ID",
      "outputs": [
        {
          "internalType": "string",
          "name": "",
          "type": "string"
        }
      ],
      "stateMutability": "view",
      "type": "function"
    },
    {
      "inputs": [
        {
          "internalType": "uint256",
          "name": "",
          "type": "uint256"
        }
      ],
      "name": "bridgeRequests",
      "outputs": [
        {
          "internalType": "uint256",
          "name": "requestId",
          "type": "uint256"
        },
        {
          "internalType": "address",
          "name": "user",
          "type": "address"
        },
        {
          "internalType": "uint256",
          "name": "ethereumTokenId",
          "type": "uint256"
        },
        {
          "internalType": "string",
          "name": "suiDestination",
          "type": "string"
        },
        {
          "internalType": "uint256",
          "name": "timestamp",
          "type": "uint256"
        },
        {
          "internalType": "bool",
          "name": "processed",
          "type": "bool"
        },
        {
          "internalType": "bool",
          "name": "confirmed",
          "type": "bool"
        }
      ],
      "stateMutability": "view",
      "type": "function"
    },
    {
      "inputs": [
        {
          "internalType": "uint256",
          "name": "requestId",
          "type": "uint256"
        }
      ],
      "name": "confirmBridgeRequest",
      "outputs": [],
      "stateMutability": "nonpayable",
      "type": "function"
    },
    {
      "inputs": [
        {
          "internalType": "uint256",
          "name": "ethereumTokenId",
          "type": "uint256"
        },
        {
          "internalType": "string",
          "name": "suiDestination",
          "type": "string"
        },
        {
          "internalType": "string",
          "name": "metadata",
          "type": "string"
        }
      ],
      "name": "createBridgeRequest",
      "outputs": [],
      "stateMutability": "nonpayable",
      "type": "function"
    },
    {
      "inputs": [
        {
          "internalType": "uint256",
          "name": "requestId",
          "type": "uint256"
        }
      ],
      "name": "generateSuiMintPayload",
      "outputs": [
        {
          "internalType": "bytes",
          "name": "",
          "type": "bytes"
        }
      ],
      "stateMutability": "view",
      "type": "function"
    },
    {
      "inputs": [
        {
          "internalType": "string",
          "name": "suiObjectId",
          "type": "string"
        },
        {
          "internalType": "string",
          "name": "fromToken",
          "type": "string"
        },
        {
          "internalType": "string",
          "name": "toToken",
          "type": "string"
        },
        {
          "internalType": "uint256",
          "name": "amount",
          "type": "uint256"
        }
      ],
      "name": "generateSuiSwapPayload",
      "outputs": [
        {
          "internalType": "bytes",
          "name": "",
          "type": "bytes"
        }
      ],
      "stateMutability": "view",
      "type": "function"
    },
    {
      "inputs": [
        {
          "internalType": "uint256",
          "name": "requestId",
          "type": "uint256"
        }
      ],
      "name": "getBridgeRequest",
      "outputs": [
        {
          "components": [
            {
              "internalType": "uint256",
              "name": "requestId",
              "type": "uint256"
            },
            {
              "internalType": "address",
              "name": "user",
              "type": "address"
            },
            {
              "internalType": "uint256",
              "name": "ethereumTokenId",
              "type": "uint256"
            },
            {
              "internalType": "string",
              "name": "suiDestination",
              "type": "string"
            },
            {
              "internalType": "uint256",
              "name": "timestamp",
              "type": "uint256"
            },
            {
              "internalType": "bool",
              "name": "processed",
              "type": "bool"
            },
            {
              "internalType": "bool",
              "name": "confirmed",
              "type": "bool"
            }
          ],
          "internalType": "struct SuiBridge.BridgeRequest",
          "name": "",
          "type": "tuple"
        }
      ],
      "stateMutability": "view",
      "type": "function"
    },
    {
      "inputs": [
        {
          "internalType": "string",
          "name": "suiObjectId",
          "type": "string"
        }
      ],
      "name": "getSuiNFT",
      "outputs": [
        {
          "components": [
            {
              "internalType": "string",
              "name": "suiObjectId",
              "type": "string"
            },
            {
              "internalType": "uint256",
              "name": "ethereumTokenId",
              "type": "uint256"
            },
            {
              "internalType": "address",
              "name": "ethereumOwner",
              "type": "address"
            },
            {
              "internalType": "string",
              "name": "metadata",
              "type": "string"
            },
            {
              "internalType": "uint256",
              "name": "bridgeTimestamp",
              "type": "uint256"
            },
            {
              "internalType": "bool",
              "name": "isBridged",
              "type": "bool"
            }
          ],
          "internalType": "struct SuiBridge.SuiNFT",
          "name": "",
          "type": "tuple"
        }
      ],
      "stateMutability": "view",
      "type": "function"
    },
    {
      "inputs": [],
      "name": "getSuiNetworkInfo",
      "outputs": [
        {
          "internalType": "string",
          "name": "network",
          "type": "string"
        },
        {
          "internalType": "string",
          "name": "packageId",
          "type": "string"
        }
      ],
      "stateMutability": "pure",
      "type": "function"
    },
    {
      "inputs": [
        {
          "internalType": "uint256",
          "name": "ethereumTokenId",
          "type": "uint256"
        }
      ],
      "name": "getSuiObjectId",
      "outputs": [
        {
          "internalType": "string",
          "name": "",
          "type": "string"
        }
      ],
      "stateMutability": "view",
      "type": "function"
    },
    {
      "inputs": [
        {
          "internalType": "string",
          "name": "suiObjectId",
          "type": "string"
        }
      ],
      "name": "getSuiSwapHistory",
      "outputs": [
        {
          "components": [
            {
              "internalType": "string",
              "name": "suiObjectId",
              "type": "string"
            },
            {
              "internalType": "string",
              "name": "fromToken",
              "type": "string"
            },
            {
              "internalType": "string",
              "name": "toToken",
              "type": "string"
            },
            {
              "internalType": "uint256",
              "name": "amount",
              "type": "uint256"
            },
            {
              "internalType": "uint256",
              "name": "price",
              "type": "uint256"
            },
            {
              "internalType": "uint256",
              "name": "timestamp",
              "type": "uint256"
            },
            {
              "internalType": "bool",
              "name": "success",
              "type": "bool"
            }
          ],
          "internalType": "struct SuiBridge.SuiSwapData[]",
          "name": "",
          "type": "tuple[]"
        }
      ],
      "stateMutability": "view",
      "type": "function"
    },
    {
      "inputs": [
        {
          "internalType": "address",
          "name": "user",
          "type": "address"
        }
      ],
      "name": "getUserBridgeRequests",
      "outputs": [
        {
          "internalType": "uint256[]",
          "name": "",
          "type": "uint256[]"
        }
      ],
      "stateMutability": "view",
      "type": "function"
    },
    {
      "inputs": [
        {
          "internalType": "uint256",
          "name": "ethereumTokenId",
          "type": "uint256"
        }
      ],
      "name": "isNFTBridgedToSui",
      "outputs": [
        {
          "internalType": "bool",
          "name": "",
          "type": "bool"
        }
      ],
      "stateMutability": "view",
      "type": "function"
    },
    {
      "inputs": [],
      "name": "owner",
      "outputs": [
        {
          "internalType": "address",
          "name": "",
          "type": "address"
        }
      ],
      "stateMutability": "view",
      "type": "function"
    },
    {
      "inputs": [],
      "name": "pause",
      "outputs": [],
      "stateMutability": "nonpayable",
      "type": "function"
    },
    {
      "inputs": [],
      "name": "paused",
      "outputs": [
        {
          "internalType": "bool",
          "name": "",
          "type": "bool"
        }
      ],
      "stateMutability": "view",
      "type": "function"
    },
    {
      "inputs": [
        {
          "internalType": "uint256",
          "name": "requestId",
          "type": "uint256"
        },
        {
          "internalType": "string",
          "name": "suiObjectId",
          "type": "string"
        }
      ],
      "name": "processBridgeRequest",
      "outputs": [],
      "stateMutability": "nonpayable",
      "type": "function"
    },
    {
      "inputs": [
        {
          "internalType": "string",
          "name": "suiObjectId",
          "type": "string"
        },
        {
          "internalType": "string",
          "name": "fromToken",
          "type": "string"
        },
        {
          "internalType": "string",
          "name": "toToken",
          "type": "string"
        },
        {
          "internalType": "uint256",
          "name": "amount",
          "type": "uint256"
        },
        {
          "internalType": "uint256",
          "name": "price",
          "type": "uint256"
        }
      ],
      "name": "recordSuiSwap",
      "outputs": [],
      "stateMutability": "nonpayable",
      "type": "function"
    },
    {
      "inputs": [],
      "name": "renounceOwnership",
      "outputs": [],
      "stateMutability": "nonpayable",
      "type": "function"
    },
    {
      "inputs": [
        {
          "internalType": "string",
          "name": "",
          "type": "string"
        }
      ],
      "name": "suiNFTs",
      "outputs": [
        {
          "internalType": "string",
          "name": "suiObjectId",
          "type": "string"
        },
        {
          "internalType": "uint256",
          "name": "ethereumTokenId",
          "type": "uint256"
        },
        {
          "internalType": "address",
          "name": "ethereumOwner",
          "type": "address"
        },
        {
          "internalType": "string",
          "name": "metadata",
          "type": "string"
        },
        {
          "internalType": "uint256",
          "name": "bridgeTimestamp",
          "type": "uint256"
        },
        {
          "internalType": "bool",
          "name": "isBridged",
          "type": "bool"
        }
      ],
      "stateMutability": "view",
      "type": "function"
    },
    {
      "inputs": [
        {
          "internalType": "string",
          "name": "",
          "type": "string"
        },
        {
          "internalType": "uint256",
          "name": "",
          "type": "uint256"
        }
      ],
      "name": "suiSwapHistory",
      "outputs": [
        {
          "internalType": "string",
          "name": "suiObjectId",
          "type": "string"
        },
        {
          "internalType": "string",
          "name": "fromToken",
          "type": "string"
        },
        {
          "internalType": "string",
          "name": "toToken",
          "type": "string"
        },
        {
          "internalType": "uint256",
          "name": "amount",
          "type": "uint256"
        },
        {
          "internalType": "uint256",
          "name": "price",
          "type": "uint256"
        },
        {
          "internalType": "uint256",
          "name": "timestamp",
          "type": "uint256"
        },
        {
          "internalType": "bool",
          "name": "success",
          "type": "bool"
        }
      ],
      "stateMutability": "view",
      "type": "function"
    },
    {
      "inputs": [
        {
          "internalType": "address",
          "name": "newOwner",
          "type": "address"
        }
      ],
      "name": "transferOwnership",
      "outputs": [],
      "stateMutability": "nonpayable",
      "type": "function"
    },
    {
      "inputs": [],
      "name": "unpause",
      "outputs": [],
      "stateMutability": "nonpayable",
      "type": "function"
    },
    {
      "inputs": [
        {
          "internalType": "string",
          "name": "newPackageId",
          "type": "string"
        },
        {
          "internalType": "string",
          "name": "newModule",
          "type": "string"
        }
      ],
      "name": "updateSuiConfig",
      "outputs": [],
      "stateMutability": "nonpayable",
      "type": "function"
    },
    {
      "inputs": [
        {
          "internalType": "address",
          "name": "",
          "type": "address"
        },
        {
          "internalType": "uint256",
          "name": "",
          "type": "uint256"
        }
      ],
      "name": "userBridgeRequests",
      "outputs": [
        {
          "internalType": "uint256",
          "name": "",
          "type": "uint256"
        }
      ],
      "stateMutability": "view",
      "type": "function"
    },
    {
      "inputs": [
        {
          "internalType": "string",
          "name": "suiAddress",
          "type": "string"
        }
      ],
      "name": "validateSuiAddress",
      "outputs": [
        {
          "internalType": "bool",
          "name": "",
          "type": "bool"
        }
      ],
      "stateMutability": "pure",
      "type": "function"
    }
  ],
  "bytecode": "0x608060405234801561001057600080fd5b50338061003757604051631e4fbdf760e01b81526000600482015260240160405180910390fd5b6100408161005b565b506000805460ff60a01b1916905560018080556006556100ab565b600080546001600160a01b038381166001600160a01b0319831681178455604051919092169283917f8be0079c531659141344cd1fd0a4f28419497f9722a3daafe3b4186f6b6457e09190a35050565b6125ff80620000bb6000396000f3fe608060405234801561001057600080fd5b50600436106101c45760003560e01c80638da5cb5b116100f9578063c57d620811610097578063e74f6c8511610071578063e74f6c8514610476578063e7a45e6f14610489578063f2fde38b146104af578063fe871934146104c257600080fd5b8063c57d6208146103f4578063cdc4c54914610408578063dd19a4a21461042857600080fd5b806398eee4ce116100d357806398eee4ce1461037d5780639f89c8a214610390578063a1ed4050146103b6578063a7016406146103c957600080fd5b80638da5cb5b146103215780639037416d1461033c578063979b2ec41461035d57600080fd5b80633f4ba83a116101665780635cd5e544116101405780635cd5e544146102eb57806362e41756146102fe578063715018a6146103115780638456cb591461031957600080fd5b80633f4ba83a146102b257806351d51d37146102ba5780635c975abb146102cd57600080fd5b80631ee3446d116101a25780631ee3446d1461022d5780632003059a1461024d5780632bdf4e6c146102715780633008afed1461029257600080fd5b806304cb4292146101c95780630d179173146101f2578063133ff5af14610218575b600080fd5b6101dc6101d7366004611aa8565b6104e7565b6040516101e99190611aca565b60405180910390f35b610205610200366004611bb1565b610553565b6040516101e99796959493929190611c46565b61022b610226366004611ca8565b61075d565b005b61024061023b366004611d0c565b6107a2565b6040516101e99190611d9c565b61024060405180604001604052806005815260200164183c17171760d91b81525081565b61028461027f366004611daf565b61088c565b6040519081526020016101e9565b6102a56102a0366004611dd9565b6108bd565b6040516101e99190611df2565b61022b610a2e565b6102406102c8366004611dd9565b610a40565b600054600160a01b900460ff165b60405190151581526020016101e9565b61022b6102f9366004611e63565b610b00565b61022b61030c366004611ed0565b610cf0565b61022b610eee565b61022b610f00565b6000546040516001600160a01b0390911681526020016101e9565b61024061034a366004611dd9565b5060408051602081019091526000815290565b61037061036b366004611f0d565b610f10565b6040516101e99190611f4a565b61022b61038b366004612015565b611176565b6103a361039e366004611dd9565b61136a565b6040516101e997969594939291906120af565b6102db6103c4366004611f0d565b611441565b6102406040518060400160405280600c81526020016b737761705f7363726f6c6c7360a01b81525081565b6102db610402366004611dd9565b50600090565b61041b610416366004611f0d565b6114b0565b6040516101e991906120fd565b61046860408051808201825260078152661b585a5b9b995d60ca1b60208083019190915282518084019093526005835264183c17171760d91b9083015291565b6040516101e9929190612175565b61022b610484366004611dd9565b611682565b610240604051806040016040528060078152602001661b585a5b9b995d60ca1b81525081565b61022b6104bd366004611aa8565b611759565b6104d56104d0366004611f0d565b611797565b6040516101e9969594939291906121a3565b6001600160a01b03811660009081526005602090815260409182902080548351818402810184019094528084526060939283018282801561054757602002820191906000526020600020905b815481526020019060010190808311610533575b50505050509050919050565b8151602081840181018051600482529282019185019190912091905280548290811061057e57600080fd5b9060005260206000209060070201600091509150508060000180546105a2906121f9565b80601f01602080910402602001604051908101604052809291908181526020018280546105ce906121f9565b801561061b5780601f106105f05761010080835404028352916020019161061b565b820191906000526020600020905b8154815290600101906020018083116105fe57829003601f168201915b505050505090806001018054610630906121f9565b80601f016020809104026020016040519081016040528092919081815260200182805461065c906121f9565b80156106a95780601f1061067e576101008083540402835291602001916106a9565b820191906000526020600020905b81548152906001019060200180831161068c57829003601f168201915b5050505050908060020180546106be906121f9565b80601f01602080910402602001604051908101604052809291908181526020018280546106ea906121f9565b80156107375780601f1061070c57610100808354040283529160200191610737565b820191906000526020600020905b81548152906001019060200180831161071a57829003601f168201915b505050506003830154600484015460058501546006909501549394919390925060ff1687565b6107656118f8565b7f42eef3ab295475126a13a599fbcb4b7233e0b6f07fe106a0d0241d28c94fa2208282604051610796929190612175565b60405180910390a15050565b60606002856040516107b4919061222d565b9081526040519081900360200190206005015460ff166108145760405162461bcd60e51b81526020600482015260166024820152754e4654206e6f74206272696467656420746f2053756960501b60448201526064015b60405180910390fd5b600060405180604001604052806005815260200164183c17171760d91b8152506040518060400160405280600c81526020016b737761705f7363726f6c6c7360a01b8152508787878760405160200161087296959493929190612249565b60408051808303601f190181529190529695505050505050565b600560205281600052604060002081815481106108a857600080fd5b90600052602060002001600091509150505481565b6040805160e0810182526000808252602082018190529181018290526060808201526080810182905260a0810182905260c08101919091526000828152600360205260408120548391036109235760405162461bcd60e51b815260040161080b906122e5565b600083815260036020818152604092839020835160e0810185528154815260018201546001600160a01b0316928101929092526002810154938201939093529082018054919291606084019190610979906121f9565b80601f01602080910402602001604051908101604052809291908181526020018280546109a5906121f9565b80156109f25780601f106109c7576101008083540402835291602001916109f2565b820191906000526020600020905b8154815290600101906020018083116109d557829003601f168201915b50505091835250506004820154602082015260059091015460ff8082161515604084015261010090910416151560609091015291505b50919050565b610a366118f8565b610a3e611925565b565b60008181526003602052604081205460609183919003610a725760405162461bcd60e51b815260040161080b906122e5565b6000838152600360208181526040808420815180830183526005815264183c17171760d91b8185015282518084018452600c81526b737761705f7363726f6c6c7360a01b81860152600283015460018401549451939796610ae796939592949193908901926001600160a01b03169101612311565b60408051808303601f1901815291905295945050505050565b610b0861197a565b610b106119a4565b6000825111610b615760405162461bcd60e51b815260206004820152601760248201527f496e76616c6964205375692064657374696e6174696f6e000000000000000000604482015260640161080b565b6000815111610ba55760405162461bcd60e51b815260206004820152601060248201526f496e76616c6964206d6574616461746160801b604482015260640161080b565b6006805460009182610bb68361240d565b909155506040805160e08101825282815233602080830191825282840189815260608401898152426080860152600060a0860181905260c08601819052878152600393849052959095208451815592516001840180546001600160a01b0319166001600160a01b03909216919091179055516002830155925193945090928392820190610c439082612482565b506080820151600482015560a08201516005918201805460c09094015115156101000261ff00199215159290921661ffff19909416939093171790915533600081815260209283526040808220805460018101825590835293909120909201849055905183907fa67d8d956e03ec751976825ab6b597b5b76deddc5e619de511fcc40dbbab517a90610cd89089908990612542565b60405180910390a35050610ceb60018055565b505050565b600082815260036020526040812054839103610d1e5760405162461bcd60e51b815260040161080b906122e5565b610d266119a4565b6000838152600360205260409020600581015460ff1615610d895760405162461bcd60e51b815260206004820152601960248201527f5265717565737420616c72656164792070726f63657373656400000000000000604482015260640161080b565b60058101805460ff191660019081179091556040805160c081018252858152600280850154602080840191909152858501546001600160a01b0316838501528351908101845260008152606083015242608083015260a0820193909352905190918291610df790879061222d565b90815260405190819003602001902081518190610e149082612482565b506020820151600182015560408201516002820180546001600160a01b0319166001600160a01b0390921691909117905560608201516003820190610e599082612482565b506080820151600482015560a0909101516005909101805460ff191691151591909117905560405185907f4c16e23b0aa12f14188ba3dabe62f4ea626dc90ea1649ec866f1693667f38a7f90600090a2847f4d6e0becae269401c36e622b3592a2b9ba5a1796b6da9ba89d47582b134ab044858460020154604051610edf92919061255b565b60405180910390a25050505050565b610ef66118f8565b610a3e60006119cf565b610f086118f8565b610a3e611a1f565b6060600482604051610f22919061222d565b9081526020016040518091039020805480602002602001604051908101604052809291908181526020016000905b8282101561116b57838290600052602060002090600702016040518060e0016040529081600082018054610f83906121f9565b80601f0160208091040260200160405190810160405280929190818152602001828054610faf906121f9565b8015610ffc5780601f10610fd157610100808354040283529160200191610ffc565b820191906000526020600020905b815481529060010190602001808311610fdf57829003601f168201915b50505050508152602001600182018054611015906121f9565b80601f0160208091040260200160405190810160405280929190818152602001828054611041906121f9565b801561108e5780601f106110635761010080835404028352916020019161108e565b820191906000526020600020905b81548152906001019060200180831161107157829003601f168201915b505050505081526020016002820180546110a7906121f9565b80601f01602080910402602001604051908101604052809291908181526020018280546110d3906121f9565b80156111205780601f106110f557610100808354040283529160200191611120565b820191906000526020600020905b81548152906001019060200180831161110357829003601f168201915b50505091835250506003820154602080830191909152600483015460408301526005830154606083015260069092015460ff1615156080909101529082526001929092019101610f50565b505050509050919050565b61117e6119a4565b60008551116111c75760405162461bcd60e51b8152602060048201526015602482015274125b9d985b1a590814dd5a481bd89a9958dd081251605a1b604482015260640161080b565b6002856040516111d7919061222d565b9081526040519081900360200190206005015460ff166112325760405162461bcd60e51b81526020600482015260166024820152754e4654206e6f74206272696467656420746f2053756960501b604482015260640161080b565b6040805160e0810182528681526020810186905280820185905260608101849052608081018390524260a0820152600160c0820152905160049061127790889061222d565b9081526040516020918190038201902080546001810182556000918252919020825183926007029091019081906112ae9082612482565b50602082015160018201906112c39082612482565b50604082015160028201906112d89082612482565b50606082015160038201556080820151600482015560a0820151600582015560c0909101516006909101805460ff191691151591909117905560405161131f90879061222d565b60405180910390207faa5ec65f0543856331c341db095e5ac144cfdd23f662e758d6f3a9232979e0f586868660405161135a9392919061257d565b60405180910390a2505050505050565b6003602081905260009182526040909120805460018201546002830154938301805492946001600160a01b039092169391926113a5906121f9565b80601f01602080910402602001604051908101604052809291908181526020018280546113d1906121f9565b801561141e5780601f106113f35761010080835404028352916020019161141e565b820191906000526020600020905b81548152906001019060200180831161140157829003601f168201915b50505050600483015460059093015491929160ff80821692506101009091041687565b600081516042148015611479575081600081518110611462576114626125b3565b6020910101516001600160f81b031916600360fc1b145b80156114aa575081600181518110611493576114936125b3565b6020910101516001600160f81b031916600f60fb1b145b92915050565b6114f46040518060c00160405280606081526020016000815260200160006001600160a01b0316815260200160608152602001600081526020016000151581525090565b600282604051611504919061222d565b90815260200160405180910390206040518060c001604052908160008201805461152d906121f9565b80601f0160208091040260200160405190810160405280929190818152602001828054611559906121f9565b80156115a65780601f1061157b576101008083540402835291602001916115a6565b820191906000526020600020905b81548152906001019060200180831161158957829003601f168201915b50505091835250506001820154602082015260028201546001600160a01b031660408201526003820180546060909201916115e0906121f9565b80601f016020809104026020016040519081016040528092919081815260200182805461160c906121f9565b80156116595780601f1061162e57610100808354040283529160200191611659565b820191906000526020600020905b81548152906001019060200180831161163c57829003601f168201915b50505091835250506004820154602082015260059091015460ff16151560409091015292915050565b6000818152600360205260408120548291036116b05760405162461bcd60e51b815260040161080b906122e5565b60008281526003602052604090206005810154610100900460ff16156117185760405162461bcd60e51b815260206004820152601960248201527f5265717565737420616c726561647920636f6e6669726d656400000000000000604482015260640161080b565b60058101805461ff00191661010017905560405183907fade89824068ef4b07b284e9665fd30f065084f9ce091a3fb059933ba3747a7d590600090a2505050565b6117616118f8565b6001600160a01b03811661178b57604051631e4fbdf760e01b81526000600482015260240161080b565b611794816119cf565b50565b80516020818301810180516002825292820191909301209152805481906117bd906121f9565b80601f01602080910402602001604051908101604052809291908181526020018280546117e9906121f9565b80156118365780601f1061180b57610100808354040283529160200191611836565b820191906000526020600020905b81548152906001019060200180831161181957829003601f168201915b5050505060018301546002840154600385018054949592946001600160a01b03909216935090611865906121f9565b80601f0160208091040260200160405190810160405280929190818152602001828054611891906121f9565b80156118de5780601f106118b3576101008083540402835291602001916118de565b820191906000526020600020905b8154815290600101906020018083116118c157829003601f168201915b50505050600483015460059093015491929160ff16905086565b6000546001600160a01b03163314610a3e5760405163118cdaa760e01b815233600482015260240161080b565b61192d611a62565b6000805460ff60a01b191690557f5db9ee0a495bf2e6ff9c91a7834c1ba4fdd244a5e8aa4e537bd38aeae4b073aa335b6040516001600160a01b03909116815260200160405180910390a1565b60026001540361199d57604051633ee5aeb560e01b815260040160405180910390fd5b6002600155565b600054600160a01b900460ff1615610a3e5760405163d93c066560e01b815260040160405180910390fd5b600080546001600160a01b038381166001600160a01b0319831681178455604051919092169283917f8be0079c531659141344cd1fd0a4f28419497f9722a3daafe3b4186f6b6457e09190a35050565b611a276119a4565b6000805460ff60a01b1916600160a01b1790557f62e78cea01bee320cd4e420270b5ea74000d11b0c9f74754ebdbfc544b05a25861195d3390565b600054600160a01b900460ff16610a3e57604051638dfc202b60e01b815260040160405180910390fd5b80356001600160a01b0381168114611aa357600080fd5b919050565b600060208284031215611aba57600080fd5b611ac382611a8c565b9392505050565b6020808252825182820181905260009190848201906040850190845b81811015611b0257835183529284019291840191600101611ae6565b50909695505050505050565b634e487b7160e01b600052604160045260246000fd5b600082601f830112611b3557600080fd5b813567ffffffffffffffff80821115611b5057611b50611b0e565b604051601f8301601f19908116603f01168101908282118183101715611b7857611b78611b0e565b81604052838152866020858801011115611b9157600080fd5b836020870160208301376000602085830101528094505050505092915050565b60008060408385031215611bc457600080fd5b823567ffffffffffffffff811115611bdb57600080fd5b611be785828601611b24565b95602094909401359450505050565b60005b83811015611c11578181015183820152602001611bf9565b50506000910152565b60008151808452611c32816020860160208601611bf6565b601f01601f19169290920160200192915050565b60e081526000611c5960e083018a611c1a565b8281036020840152611c6b818a611c1a565b90508281036040840152611c7f8189611c1a565b9150508560608301528460808301528360a083015282151560c083015298975050505050505050565b60008060408385031215611cbb57600080fd5b823567ffffffffffffffff80821115611cd357600080fd5b611cdf86838701611b24565b93506020850135915080821115611cf557600080fd5b50611d0285828601611b24565b9150509250929050565b60008060008060808587031215611d2257600080fd5b843567ffffffffffffffff80821115611d3a57600080fd5b611d4688838901611b24565b95506020870135915080821115611d5c57600080fd5b611d6888838901611b24565b94506040870135915080821115611d7e57600080fd5b50611d8b87828801611b24565b949793965093946060013593505050565b602081526000611ac36020830184611c1a565b60008060408385031215611dc257600080fd5b611dcb83611a8c565b946020939093013593505050565b600060208284031215611deb57600080fd5b5035919050565b602081528151602082015260018060a01b036020830151166040820152604082015160608201526000606083015160e06080840152611e35610100840182611c1a565b9050608084015160a084015260a0840151151560c084015260c0840151151560e08401528091505092915050565b600080600060608486031215611e7857600080fd5b83359250602084013567ffffffffffffffff80821115611e9757600080fd5b611ea387838801611b24565b93506040860135915080821115611eb957600080fd5b50611ec686828701611b24565b9150509250925092565b60008060408385031215611ee357600080fd5b82359150602083013567ffffffffffffffff811115611f0157600080fd5b611d0285828601611b24565b600060208284031215611f1f57600080fd5b813567ffffffffffffffff811115611f3657600080fd5b611f4284828501611b24565b949350505050565b60006020808301818452808551808352604092508286019150828160051b87010184880160005b8381101561200757603f19898403018552815160e08151818652611f9782870182611c1a565b915050888201518582038a870152611faf8282611c1a565b9150508782015185820389870152611fc78282611c1a565b606084810151908801526080808501519088015260a0808501519088015260c0938401511515939096019290925250509386019390860190600101611f71565b509098975050505050505050565b600080600080600060a0868803121561202d57600080fd5b853567ffffffffffffffff8082111561204557600080fd5b61205189838a01611b24565b9650602088013591508082111561206757600080fd5b61207389838a01611b24565b9550604088013591508082111561208957600080fd5b5061209688828901611b24565b9598949750949560608101359550608001359392505050565b87815260018060a01b038716602082015285604082015260e0606082015260006120dc60e0830187611c1a565b60808301959095525091151560a0830152151560c090910152949350505050565b602081526000825160c0602084015261211960e0840182611c1a565b90506020840151604084015260018060a01b0360408501511660608401526060840151601f198483030160808501526121528282611c1a565b915050608084015160a084015260a0840151151560c08401528091505092915050565b6040815260006121886040830185611c1a565b828103602084015261219a8185611c1a565b95945050505050565b60c0815260006121b660c0830189611c1a565b602083018890526001600160a01b038716604084015282810360608401526121de8187611c1a565b6080840195909552505090151560a090910152949350505050565b600181811c9082168061220d57607f821691505b602082108103610a2857634e487b7160e01b600052602260045260246000fd5b6000825161223f818460208701611bf6565b9190910192915050565b60e08152600061225c60e0830189611c1a565b828103602084015261226e8189611c1a565b9050828103806040850152600c82526b0657865637574655f737761760a41b6020830152604081016060850152506122a96040820188611c1a565b905082810360808401526122bd8187611c1a565b905082810360a08401526122d18186611c1a565b9150508260c0830152979650505050505050565b602080825260129082015271125b9d985b1a59081c995c5d595cdd08125160721b604082015260600190565b60c08152600061232460c0830188611c1a565b6020838203818501526123378289611c1a565b9150838203806040860152601083526f1b5a5b9d17dcddd85c17dcd8dc9bdb1b60821b828401526060888187015260408201608087015260009150875461237d816121f9565b80604087015260018083166000811461239d57600181146123b7576123e5565b60ff1984168886015282151560051b8801850195506123e5565b8b6000528660002060005b848110156123dd5781548a82018801529083019088016123c2565b890186019650505b505050506001600160a01b03871660a0870152509250612403915050565b9695505050505050565b60006001820161242d57634e487b7160e01b600052601160045260246000fd5b5060010190565b601f821115610ceb57600081815260208120601f850160051c8101602086101561245b5750805b601f850160051c820191505b8181101561247a57828155600101612467565b505050505050565b815167ffffffffffffffff81111561249c5761249c611b0e565b6124b0816124aa84546121f9565b84612434565b602080601f8311600181146124e557600084156124cd5750858301515b600019600386901b1c1916600185901b17855561247a565b600085815260208120601f198616915b82811015612514578886015182559484019460019091019084016124f5565b50858210156125325787850151600019600388901b60f8161c191681555b5050505050600190811b01905550565b828152604060208201526000611f426040830184611c1a565b60408152600061256e6040830185611c1a565b90508260208301529392505050565b6060815260006125906060830186611c1a565b82810360208401526125a28186611c1a565b915050826040830152949350505050565b634e487b7160e01b600052603260045260246000fdfea2646970667358221220efb202cd6d388d1560bee6497bc5b371eb0b4a51e24ec2bd3d641c765830ebf964736f6c63430008140033",
  "linkReferences": {},
  "deployedLinkReferences": {}
}