{
  "_format": "hh-sol-artifact-1",
  "contractName": "SwapScrollNFT",
  "sourceName": "contracts/SwapScrollNFT.sol",
  "abi": [
    {
      "inputs": [],
      "stateMutability": "nonpayable",
      "type": "constructor"
    },
    {
      "inputs": [
        {
          "internalType": "address",
          "name": "sender",
          "type": "address"
        },
        {
          "internalType": "uint256",
          "name": "tokenId",
          "type": "uint256"
        },
        {
          "internalType": "address",
          "name": "owner",
          "type": "address"
        }
      ],
      "name": "ERC721IncorrectOwner",
      "type": "error"
    },
    {
      "inputs": [
        {
          "internalType": "address",
          "name": "operator",
          "type": "address"
        },
        {
          "internalType": "uint256",
          "name": "tokenId",
          "type": "uint256"
        }
      ],
      "name": "ERC721InsufficientApproval",
      "type": "error"
    },
    {
      "inputs": [
        {
          "internalType": "address",
          "name": "approver",
          "type": "address"
        }
      ],
      "name": "ERC721InvalidApprover",
      "type": "error"
    },
    {
      "inputs": [
        {
          "internalType": "address",
          "name": "operator",
          "type": "address"
        }
      ],
      "name": "ERC721InvalidOperator",
      "type": "error"
    },
    {
      "inputs": [
        {
          "internalType": "address",
          "name": "owner",
          "type": "address"
        }
      ],
      "name": "ERC721InvalidOwner",
      "type": "error"
    },
    {
      "inputs": [
        {
          "internalType": "address",
          "name": "receiver",
          "type": "address"
        }
      ],
      "name": "ERC721InvalidReceiver",
      "type": "error"
    },
    {
      "inputs": [
        {
          "internalType": "address",
          "name": "sender",
          "type": "address"
        }
      ],
      "name": "ERC721InvalidSender",
      "type": "error"
    },
    {
      "inputs": [
        {
          "internalType": "uint256",
          "name": "tokenId",
          "type": "uint256"
        }
      ],
      "name": "ERC721NonexistentToken",
      "type": "error"
    },
    {
      "inputs": [],
      "name": "EnforcedPause",
      "type": "error"
    },
    {
      "inputs": [],
      "name": "ExpectedPause",
      "type": "error"
    },
    {
      "inputs": [
        {
          "internalType": "address",
          "name": "owner",
          "type": "address"
        }
      ],
      "name": "OwnableInvalidOwner",
      "type": "error"
    },
    {
      "inputs": [
        {
          "internalType": "address",
          "name": "account",
          "type": "address"
        }
      ],
      "name": "OwnableUnauthorizedAccount",
      "type": "error"
    },
    {
      "inputs": [],
      "name": "ReentrancyGuardReentrantCall",
      "type": "error"
    },
    {
      "anonymous": false,
      "inputs": [
        {
          "indexed": true,
          "internalType": "address",
          "name": "owner",
          "type": "address"
        },
        {
          "indexed": true,
          "internalType": "address",
          "name": "approved",
          "type": "address"
        },
        {
          "indexed": true,
          "internalType": "uint256",
          "name": "tokenId",
          "type": "uint256"
        }
      ],
      "name": "Approval",
      "type": "event"
    },
    {
      "anonymous": false,
      "inputs": [
        {
          "indexed": true,
          "internalType": "address",
          "name": "owner",
          "type": "address"
        },
        {
          "indexed": true,
          "internalType": "address",
          "name": "operator",
          "type": "address"
        },
        {
          "indexed": false,
          "internalType": "bool",
          "name": "approved",
          "type": "bool"
        }
      ],
      "name": "ApprovalForAll",
      "type": "event"
    },
    {
      "anonymous": false,
      "inputs": [
        {
          "indexed": false,
          "internalType": "uint256",
          "name": "_fromTokenId",
          "type": "uint256"
        },
        {
          "indexed": false,
          "internalType": "uint256",
          "name": "_toTokenId",
          "type": "uint256"
        }
      ],
      "name": "BatchMetadataUpdate",
      "type": "event"
    },
    {
      "anonymous": false,
      "inputs": [
        {
          "indexed": true,
          "internalType": "uint256",
          "name": "tokenId",
          "type": "uint256"
        },
        {
          "indexed": false,
          "internalType": "string",
          "name": "fromChain",
          "type": "string"
        },
        {
          "indexed": false,
          "internalType": "string",
          "name": "toChain",
          "type": "string"
        }
      ],
      "name": "CrossChainSwap",
      "type": "event"
    },
    {
      "anonymous": false,
      "inputs": [
        {
          "indexed": false,
          "internalType": "uint256",
          "name": "_tokenId",
          "type": "uint256"
        }
      ],
      "name": "MetadataUpdate",
      "type": "event"
    },
    {
      "anonymous": false,
      "inputs": [
        {
          "indexed": true,
          "internalType": "address",
          "name": "previousOwner",
          "type": "address"
        },
        {
          "indexed": true,
          "internalType": "address",
          "name": "newOwner",
          "type": "address"
        }
      ],
      "name": "OwnershipTransferred",
      "type": "event"
    },
    {
      "anonymous": false,
      "inputs": [
        {
          "indexed": false,
          "internalType": "address",
          "name": "account",
          "type": "address"
        }
      ],
      "name": "Paused",
      "type": "event"
    },
    {
      "anonymous": false,
      "inputs": [
        {
          "indexed": true,
          "internalType": "uint256",
          "name": "tokenId",
          "type": "uint256"
        },
        {
          "indexed": false,
          "internalType": "uint256",
          "name": "newReputation",
          "type": "uint256"
        }
      ],
      "name": "ReputationUpdated",
      "type": "event"
    },
    {
      "anonymous": false,
      "inputs": [
        {
          "indexed": true,
          "internalType": "uint256",
          "name": "tokenId",
          "type": "uint256"
        },
        {
          "indexed": false,
          "internalType": "uint256",
          "name": "points",
          "type": "uint256"
        },
        {
          "indexed": false,
          "internalType": "string",
          "name": "reason",
          "type": "string"
        }
      ],
      "name": "RewardEarned",
      "type": "event"
    },
    {
      "anonymous": false,
      "inputs": [
        {
          "indexed": true,
          "internalType": "uint256",
          "name": "tokenId",
          "type": "uint256"
        },
        {
          "indexed": false,
          "internalType": "address",
          "name": "from",
          "type": "address"
        },
        {
          "indexed": false,
          "internalType": "address",
          "name": "to",
          "type": "address"
        },
        {
          "indexed": false,
          "internalType": "uint256",
          "name": "price",
          "type": "uint256"
        }
      ],
      "name": "ScrollTraded",
      "type": "event"
    },
    {
      "anonymous": false,
      "inputs": [
        {
          "indexed": true,
          "internalType": "uint256",
          "name": "tokenId",
          "type": "uint256"
        },
        {
          "indexed": false,
          "internalType": "string",
          "name": "fromToken",
          "type": "string"
        },
        {
          "indexed": false,
          "internalType": "string",
          "name": "toToken",
          "type": "string"
        },
        {
          "indexed": false,
          "internalType": "uint256",
          "name": "amount",
          "type": "uint256"
        }
      ],
      "name": "SwapExecuted",
      "type": "event"
    },
    {
      "anonymous": false,
      "inputs": [
        {
          "indexed": true,
          "internalType": "uint256",
          "name": "tokenId",
          "type": "uint256"
        },
        {
          "indexed": true,
          "internalType": "address",
          "name": "owner",
          "type": "address"
        },
        {
          "indexed": false,
          "internalType": "string",
          "name": "scrollType",
          "type": "string"
        }
      ],
      "name": "SwapScrollMinted",
      "type": "event"
    },
    {
      "anonymous": false,
      "inputs": [
        {
          "indexed": true,
          "internalType": "address",
          "name": "from",
          "type": "address"
        },
        {
          "indexed": true,
          "internalType": "address",
          "name": "to",
          "type": "address"
        },
        {
          "indexed": true,
          "internalType": "uint256",
          "name": "tokenId",
          "type": "uint256"
        }
      ],
      "name": "Transfer",
      "type": "event"
    },
    {
      "anonymous": false,
      "inputs": [
        {
          "indexed": false,
          "internalType": "address",
          "name": "account",
          "type": "address"
        }
      ],
      "name": "Unpaused",
      "type": "event"
    },
    {
      "inputs": [],
      "name": "MAX_SUPPLY",
      "outputs": [
        {
          "internalType": "uint256",
          "name": "",
          "type": "uint256"
        }
      ],
      "stateMutability": "view",
      "type": "function"
    },
    {
      "inputs": [],
      "name": "MINT_PRICE",
      "outputs": [
        {
          "internalType": "uint256",
          "name": "",
          "type": "uint256"
        }
      ],
      "stateMutability": "view",
      "type": "function"
    },
    {
      "inputs": [],
      "name": "TRADE_FEE",
      "outputs": [
        {
          "internalType": "uint256",
          "name": "",
          "type": "uint256"
        }
      ],
      "stateMutability": "view",
      "type": "function"
    },
    {
      "inputs": [
        {
          "internalType": "address",
          "name": "to",
          "type": "address"
        },
        {
          "internalType": "uint256",
          "name": "tokenId",
          "type": "uint256"
        }
      ],
      "name": "approve",
      "outputs": [],
      "stateMutability": "nonpayable",
      "type": "function"
    },
    {
      "inputs": [
        {
          "internalType": "address",
          "name": "owner",
          "type": "address"
        }
      ],
      "name": "balanceOf",
      "outputs": [
        {
          "internalType": "uint256",
          "name": "",
          "type": "uint256"
        }
      ],
      "stateMutability": "view",
      "type": "function"
    },
    {
      "inputs": [
        {
          "internalType": "uint256",
          "name": "tokenId",
          "type": "uint256"
        },
        {
          "internalType": "string",
          "name": "fromChain",
          "type": "string"
        },
        {
          "internalType": "string",
          "name": "toChain",
          "type": "string"
        },
        {
          "internalType": "string",
          "name": "bridgeData",
          "type": "string"
        }
      ],
      "name": "executeCrossChainSwap",
      "outputs": [],
      "stateMutability": "nonpayable",
      "type": "function"
    },
    {
      "inputs": [
        {
          "internalType": "uint256",
          "name": "tokenId",
          "type": "uint256"
        },
        {
          "internalType": "string",
          "name": "fromToken",
          "type": "string"
        },
        {
          "internalType": "string",
          "name": "toToken",
          "type": "string"
        },
        {
          "internalType": "uint256",
          "name": "amount",
          "type": "uint256"
        },
        {
          "internalType": "uint256",
          "name": "price",
          "type": "uint256"
        },
        {
          "internalType": "string",
          "name": "chainId",
          "type": "string"
        }
      ],
      "name": "executeSwap",
      "outputs": [],
      "stateMutability": "nonpayable",
      "type": "function"
    },
    {
      "inputs": [
        {
          "internalType": "uint256",
          "name": "tokenId",
          "type": "uint256"
        }
      ],
      "name": "getApproved",
      "outputs": [
        {
          "internalType": "address",
          "name": "",
          "type": "address"
        }
      ],
      "stateMutability": "view",
      "type": "function"
    },
    {
      "inputs": [
        {
          "internalType": "uint256",
          "name": "tokenId",
          "type": "uint256"
        }
      ],
      "name": "getScrollData",
      "outputs": [
        {
          "components": [
            {
              "internalType": "uint256",
              "name": "tokenId",
              "type": "uint256"
            },
            {
              "internalType": "address",
              "name": "owner",
              "type": "address"
            },
            {
              "internalType": "string",
              "name": "scrollType",
              "type": "string"
            },
            {
              "internalType": "uint256",
              "name": "swapCount",
              "type": "uint256"
            },
            {
              "internalType": "uint256",
              "name": "totalVolume",
              "type": "uint256"
            },
            {
              "internalType": "uint256",
              "name": "reputation",
              "type": "uint256"
            },
            {
              "internalType": "uint256",
              "name": "createdAt",
              "type": "uint256"
            },
            {
              "internalType": "uint256",
              "name": "lastSwapAt",
              "type": "uint256"
            },
            {
              "internalType": "bool",
              "name": "isTradable",
              "type": "bool"
            },
            {
              "internalType": "string",
              "name": "crossChainData",
              "type": "string"
            },
            {
              "internalType": "uint256",
              "name": "rewardPoints",
              "type": "uint256"
            }
          ],
          "internalType": "struct SwapScrollNFT.SwapScroll",
          "name": "",
          "type": "tuple"
        }
      ],
      "stateMutability": "view",
      "type": "function"
    },
    {
      "inputs": [
        {
          "internalType": "uint256",
          "name": "tokenId",
          "type": "uint256"
        }
      ],
      "name": "getSwapHistory",
      "outputs": [
        {
          "components": [
            {
              "internalType": "string",
              "name": "fromToken",
              "type": "string"
            },
            {
              "internalType": "string",
              "name": "toToken",
              "type": "string"
            },
            {
              "internalType": "uint256",
              "name": "amount",
              "type": "uint256"
            },
            {
              "internalType": "uint256",
              "name": "price",
              "type": "uint256"
            },
            {
              "internalType": "uint256",
              "name": "timestamp",
              "type": "uint256"
            },
            {
              "internalType": "string",
              "name": "chainId",
              "type": "string"
            },
            {
              "internalType": "bool",
              "name": "success",
              "type": "bool"
            }
          ],
          "internalType": "struct SwapScrollNFT.SwapData[]",
          "name": "",
          "type": "tuple[]"
        }
      ],
      "stateMutability": "view",
      "type": "function"
    },
    {
      "inputs": [
        {
          "internalType": "address",
          "name": "user",
          "type": "address"
        }
      ],
      "name": "getUserScrolls",
      "outputs": [
        {
          "internalType": "uint256[]",
          "name": "",
          "type": "uint256[]"
        }
      ],
      "stateMutability": "view",
      "type": "function"
    },
    {
      "inputs": [
        {
          "internalType": "address",
          "name": "owner",
          "type": "address"
        },
        {
          "internalType": "address",
          "name": "operator",
          "type": "address"
        }
      ],
      "name": "isApprovedForAll",
      "outputs": [
        {
          "internalType": "bool",
          "name": "",
          "type": "bool"
        }
      ],
      "stateMutability": "view",
      "type": "function"
    },
    {
      "inputs": [
        {
          "internalType": "string",
          "name": "scrollType",
          "type": "string"
        },
        {
          "internalType": "string",
          "name": "metadataURI",
          "type": "string"
        }
      ],
      "name": "mintSwapScroll",
      "outputs": [],
      "stateMutability": "payable",
      "type": "function"
    },
    {
      "inputs": [],
      "name": "name",
      "outputs": [
        {
          "internalType": "string",
          "name": "",
          "type": "string"
        }
      ],
      "stateMutability": "view",
      "type": "function"
    },
    {
      "inputs": [],
      "name": "owner",
      "outputs": [
        {
          "internalType": "address",
          "name": "",
          "type": "address"
        }
      ],
      "stateMutability": "view",
      "type": "function"
    },
    {
      "inputs": [
        {
          "internalType": "uint256",
          "name": "tokenId",
          "type": "uint256"
        }
      ],
      "name": "ownerOf",
      "outputs": [
        {
          "internalType": "address",
          "name": "",
          "type": "address"
        }
      ],
      "stateMutability": "view",
      "type": "function"
    },
    {
      "inputs": [],
      "name": "pause",
      "outputs": [],
      "stateMutability": "nonpayable",
      "type": "function"
    },
    {
      "inputs": [],
      "name": "paused",
      "outputs": [
        {
          "internalType": "bool",
          "name": "",
          "type": "bool"
        }
      ],
      "stateMutability": "view",
      "type": "function"
    },
    {
      "inputs": [],
      "name": "renounceOwnership",
      "outputs": [],
      "stateMutability": "nonpayable",
      "type": "function"
    },
    {
      "inputs": [
        {
          "internalType": "address",
          "name": "from",
          "type": "address"
        },
        {
          "internalType": "address",
          "name": "to",
          "type": "address"
        },
        {
          "internalType": "uint256",
          "name": "tokenId",
          "type": "uint256"
        }
      ],
      "name": "safeTransferFrom",
      "outputs": [],
      "stateMutability": "nonpayable",
      "type": "function"
    },
    {
      "inputs": [
        {
          "internalType": "address",
          "name": "from",
          "type": "address"
        },
        {
          "internalType": "address",
          "name": "to",
          "type": "address"
        },
        {
          "internalType": "uint256",
          "name": "tokenId",
          "type": "uint256"
        },
        {
          "internalType": "bytes",
          "name": "data",
          "type": "bytes"
        }
      ],
      "name": "safeTransferFrom",
      "outputs": [],
      "stateMutability": "nonpayable",
      "type": "function"
    },
    {
      "inputs": [
        {
          "internalType": "string",
          "name": "",
          "type": "string"
        }
      ],
      "name": "scrollTypeCount",
      "outputs": [
        {
          "internalType": "uint256",
          "name": "",
          "type": "uint256"
        }
      ],
      "stateMutability": "view",
      "type": "function"
    },
    {
      "inputs": [
        {
          "internalType": "address",
          "name": "operator",
          "type": "address"
        },
        {
          "internalType": "bool",
          "name": "approved",
          "type": "bool"
        }
      ],
      "name": "setApprovalForAll",
      "outputs": [],
      "stateMutability": "nonpayable",
      "type": "function"
    },
    {
      "inputs": [
        {
          "internalType": "bytes4",
          "name": "interfaceId",
          "type": "bytes4"
        }
      ],
      "name": "supportsInterface",
      "outputs": [
        {
          "internalType": "bool",
          "name": "",
          "type": "bool"
        }
      ],
      "stateMutability": "view",
      "type": "function"
    },
    {
      "inputs": [
        {
          "internalType": "uint256",
          "name": "",
          "type": "uint256"
        },
        {
          "internalType": "uint256",
          "name": "",
          "type": "uint256"
        }
      ],
      "name": "swapHistory",
      "outputs": [
        {
          "internalType": "string",
          "name": "fromToken",
          "type": "string"
        },
        {
          "internalType": "string",
          "name": "toToken",
          "type": "string"
        },
        {
          "internalType": "uint256",
          "name": "amount",
          "type": "uint256"
        },
        {
          "internalType": "uint256",
          "name": "price",
          "type": "uint256"
        },
        {
          "internalType": "uint256",
          "name": "timestamp",
          "type": "uint256"
        },
        {
          "internalType": "string",
          "name": "chainId",
          "type": "string"
        },
        {
          "internalType": "bool",
          "name": "success",
          "type": "bool"
        }
      ],
      "stateMutability": "view",
      "type": "function"
    },
    {
      "inputs": [
        {
          "internalType": "uint256",
          "name": "",
          "type": "uint256"
        }
      ],
      "name": "swapScrolls",
      "outputs": [
        {
          "internalType": "uint256",
          "name": "tokenId",
          "type": "uint256"
        },
        {
          "internalType": "address",
          "name": "owner",
          "type": "address"
        },
        {
          "internalType": "string",
          "name": "scrollType",
          "type": "string"
        },
        {
          "internalType": "uint256",
          "name": "swapCount",
          "type": "uint256"
        },
        {
          "internalType": "uint256",
          "name": "totalVolume",
          "type": "uint256"
        },
        {
          "internalType": "uint256",
          "name": "reputation",
          "type": "uint256"
        },
        {
          "internalType": "uint256",
          "name": "createdAt",
          "type": "uint256"
        },
        {
          "internalType": "uint256",
          "name": "lastSwapAt",
          "type": "uint256"
        },
        {
          "internalType": "bool",
          "name": "isTradable",
          "type": "bool"
        },
        {
          "internalType": "string",
          "name": "crossChainData",
          "type": "string"
        },
        {
          "internalType": "uint256",
          "name": "rewardPoints",
          "type": "uint256"
        }
      ],
      "stateMutability": "view",
      "type": "function"
    },
    {
      "inputs": [],
      "name": "symbol",
      "outputs": [
        {
          "internalType": "string",
          "name": "",
          "type": "string"
        }
      ],
      "stateMutability": "view",
      "type": "function"
    },
    {
      "inputs": [
        {
          "internalType": "uint256",
          "name": "tokenId",
          "type": "uint256"
        }
      ],
      "name": "tokenURI",
      "outputs": [
        {
          "internalType": "string",
          "name": "",
          "type": "string"
        }
      ],
      "stateMutability": "view",
      "type": "function"
    },
    {
      "inputs": [
        {
          "internalType": "uint256",
          "name": "tokenId",
          "type": "uint256"
        },
        {
          "internalType": "address",
          "name": "newOwner",
          "type": "address"
        }
      ],
      "name": "tradeScroll",
      "outputs": [],
      "stateMutability": "nonpayable",
      "type": "function"
    },
    {
      "inputs": [
        {
          "internalType": "address",
          "name": "from",
          "type": "address"
        },
        {
          "internalType": "address",
          "name": "to",
          "type": "address"
        },
        {
          "internalType": "uint256",
          "name": "tokenId",
          "type": "uint256"
        }
      ],
      "name": "transferFrom",
      "outputs": [],
      "stateMutability": "nonpayable",
      "type": "function"
    },
    {
      "inputs": [
        {
          "internalType": "address",
          "name": "newOwner",
          "type": "address"
        }
      ],
      "name": "transferOwnership",
      "outputs": [],
      "stateMutability": "nonpayable",
      "type": "function"
    },
    {
      "inputs": [],
      "name": "unpause",
      "outputs": [],
      "stateMutability": "nonpayable",
      "type": "function"
    },
    {
      "inputs": [
        {
          "internalType": "address",
          "name": "",
          "type": "address"
        },
        {
          "internalType": "uint256",
          "name": "",
          "type": "uint256"
        }
      ],
      "name": "userScrolls",
      "outputs": [
        {
          "internalType": "uint256",
          "name": "",
          "type": "uint256"
        }
      ],
      "stateMutability": "view",
      "type": "function"
    },
    {
      "inputs": [],
      "name": "withdraw",
      "outputs": [],
      "stateMutability": "nonpayable",
      "type": "function"
    }
  ],
  "bytecode": "0x60806040523480156200001157600080fd5b50336040518060400160405280600b81526020016a537761705363726f6c6c7360a81b8152506040518060400160405280600a81526020016914d5d05414d0d493d31360b21b81525081600090816200006b9190620001cc565b5060016200007a8282620001cc565b5050506001600160a01b038116620000ac57604051631e4fbdf760e01b81526000600482015260240160405180910390fd5b620000b781620000d5565b506007805460ff60a01b191690556001600881905560095562000298565b600780546001600160a01b038381166001600160a01b0319831681179093556040519116919082907f8be0079c531659141344cd1fd0a4f28419497f9722a3daafe3b4186f6b6457e090600090a35050565b634e487b7160e01b600052604160045260246000fd5b600181811c908216806200015257607f821691505b6020821081036200017357634e487b7160e01b600052602260045260246000fd5b50919050565b601f821115620001c757600081815260208120601f850160051c81016020861015620001a25750805b601f850160051c820191505b81811015620001c357828155600101620001ae565b5050505b505050565b81516001600160401b03811115620001e857620001e862000127565b6200020081620001f984546200013d565b8462000179565b602080601f8311600181146200023857600084156200021f5750858301515b600019600386901b1c1916600185901b178555620001c3565b600085815260208120601f198616915b82811015620002695788860151825594840194600190910190840162000248565b5085821015620002885787850151600019600388901b60f8161c191681555b5050505050600190811b01905550565b6134b380620002a86000396000f3fe6080604052600436106101f95760003560e01c80636352211e1161010d5780639da79f7a116100a0578063c87b56dd1161006f578063c87b56dd146105e3578063d104dec814610603578063d132296214610630578063e985e9c514610645578063f2fde38b1461066557600080fd5b80639da79f7a14610555578063a22cb46514610588578063b88d4fde146105a8578063c002d23d146105c857600080fd5b8063881e40f6116100dc578063881e40f6146104e25780638c47e40a146104f55780638da5cb5b1461052257806395d89b411461054057600080fd5b80636352211e1461047857806370a0823114610498578063715018a6146104b85780638456cb59146104cd57600080fd5b8063323b2f51116101905780633f4ba83a1161015f5780633f4ba83a146103e457806342842e0e146103f957806356915b09146104195780635856caa0146104395780635c975abb1461045957600080fd5b8063323b2f511461033c57806332cb6b0c14610382578063381e5503146103985780633ccfd60b146103cf57600080fd5b80630b78a2c8116101cc5780630b78a2c8146102af57806323b872dd146102dc5780632926fd4f146102fc5780632f2704b11461031c57600080fd5b806301ffc9a7146101fe57806306fdde0314610233578063081812fc14610255578063095ea7b31461028d575b600080fd5b34801561020a57600080fd5b5061021e610219366004612993565b610685565b60405190151581526020015b60405180910390f35b34801561023f57600080fd5b50610248610696565b60405161022a9190612a00565b34801561026157600080fd5b50610275610270366004612a13565b610728565b6040516001600160a01b03909116815260200161022a565b34801561029957600080fd5b506102ad6102a8366004612a48565b610751565b005b3480156102bb57600080fd5b506102cf6102ca366004612a13565b610760565b60405161022a9190612a72565b3480156102e857600080fd5b506102ad6102f7366004612b41565b6109eb565b34801561030857600080fd5b506102ad610317366004612c29565b610a76565b34801561032857600080fd5b506102ad610337366004612ccd565b610e3c565b34801561034857600080fd5b50610374610357366004612d5f565b8051602081830181018051600d8252928201919093012091525481565b60405190815260200161022a565b34801561038e57600080fd5b5061037461271081565b3480156103a457600080fd5b506103b86103b3366004612a13565b610ff9565b60405161022a9b9a99989796959493929190612d94565b3480156103db57600080fd5b506102ad611173565b3480156103f057600080fd5b506102ad6111b7565b34801561040557600080fd5b506102ad610414366004612b41565b6111c9565b34801561042557600080fd5b50610374610434366004612a48565b6111e9565b34801561044557600080fd5b506102ad610454366004612e15565b61121a565b34801561046557600080fd5b50600754600160a01b900460ff1661021e565b34801561048457600080fd5b50610275610493366004612a13565b61138b565b3480156104a457600080fd5b506103746104b3366004612e41565b611396565b3480156104c457600080fd5b506102ad6113de565b3480156104d957600080fd5b506102ad6113f0565b6102ad6104f0366004612e5c565b611400565b34801561050157600080fd5b50610515610510366004612e41565b6116e0565b60405161022a9190612ec0565b34801561052e57600080fd5b506007546001600160a01b0316610275565b34801561054c57600080fd5b5061024861174c565b34801561056157600080fd5b50610575610570366004612f04565b61175b565b60405161022a9796959493929190612f26565b34801561059457600080fd5b506102ad6105a3366004612f88565b611955565b3480156105b457600080fd5b506102ad6105c3366004612fc4565b611960565b3480156105d457600080fd5b50610374662386f26fc1000081565b3480156105ef57600080fd5b506102486105fe366004612a13565b611977565b34801561060f57600080fd5b5061062361061e366004612a13565b611982565b60405161022a9190613034565b34801561063c57600080fd5b50610374601981565b34801561065157600080fd5b5061021e6106603660046130f5565b611bd2565b34801561067157600080fd5b506102ad610680366004612e41565b611c00565b600061069082611c3b565b92915050565b6060600080546106a59061311f565b80601f01602080910402602001604051908101604052809291908181526020018280546106d19061311f565b801561071e5780601f106106f35761010080835404028352916020019161071e565b820191906000526020600020905b81548152906001019060200180831161070157829003601f168201915b5050505050905090565b600061073382611c60565b506000828152600460205260409020546001600160a01b0316610690565b61075c828233611c99565b5050565b606081600061076e8261138b565b6001600160a01b03160361079d5760405162461bcd60e51b815260040161079490613153565b60405180910390fd5b6000838152600b6020908152604080832080548251818502810185019093528083529193909284015b828210156109de57838290600052602060002090600702016040518060e00160405290816000820180546107f99061311f565b80601f01602080910402602001604051908101604052809291908181526020018280546108259061311f565b80156108725780601f1061084757610100808354040283529160200191610872565b820191906000526020600020905b81548152906001019060200180831161085557829003601f168201915b5050505050815260200160018201805461088b9061311f565b80601f01602080910402602001604051908101604052809291908181526020018280546108b79061311f565b80156109045780601f106108d957610100808354040283529160200191610904565b820191906000526020600020905b8154815290600101906020018083116108e757829003601f168201915b5050505050815260200160028201548152602001600382015481526020016004820154815260200160058201805461093b9061311f565b80601f01602080910402602001604051908101604052809291908181526020018280546109679061311f565b80156109b45780601f10610989576101008083540402835291602001916109b4565b820191906000526020600020905b81548152906001019060200180831161099757829003601f168201915b50505091835250506006919091015460ff16151560209182015290825260019290920191016107c6565b5050505091505b50919050565b6001600160a01b038216610a1557604051633250574960e11b815260006004820152602401610794565b6000610a22838333611ca6565b9050836001600160a01b0316816001600160a01b031614610a70576040516364283d7b60e01b81526001600160a01b0380861660048301526024820184905282166044820152606401610794565b50505050565b8533610a818261138b565b6001600160a01b031614610aa75760405162461bcd60e51b815260040161079490613182565b866000610ab38261138b565b6001600160a01b031603610ad95760405162461bcd60e51b815260040161079490613153565b6000888152600a602052604081206003810180549192610af8836131c2565b919050555085816004016000828254610b1191906131db565b90915550504260078083018290556040805160e0810182528b815260208082018c90528183018b9052606082018a9052608082019490945260a08101889052600160c0820181905260008e8152600b8652928320805491820181558352939091208151919384930201908190610b87908261323c565b5060208201516001820190610b9c908261323c565b5060408201516002820155606082015160038201556080820151600482015560a08201516005820190610bcf908261323c565b5060c08201518160060160006101000a81548160ff02191690831515021790555050506000610c8a88846002018054610c079061311f565b80601f0160208091040260200160405190810160405280929190818152602001828054610c339061311f565b8015610c805780601f10610c5557610100808354040283529160200191610c80565b820191906000526020600020905b815481529060010190602001808311610c6357829003601f168201915b5050505050611d9f565b90508083600a016000828254610ca091906131db565b92505081905550610d3d88846002018054610cba9061311f565b80601f0160208091040260200160405190810160405280929190818152602001828054610ce69061311f565b8015610d335780601f10610d0857610100808354040283529160200191610d33565b820191906000526020600020905b815481529060010190602001808311610d1657829003601f168201915b5050505050611e8a565b836005016000828254610d5091906131db565b925050819055508a7fbd0ae436df84d0a10e420bf403d9cb32f3d8b8300c1b06efd89452d2423d707c8b8b8b604051610d8b939291906132fc565b60405180910390a28a7f99e98b5ebdbbb637f7b71effb4d8524e9d51047520f1780f0eb644625cd0289782604051610dea918152604060208201819052600d908201526c1cddd85c17d95e1958dd5d1959609a1b606082015260800190565b60405180910390a28a7ea4f8488cd701f9a77136eb5c91d5e2edef3c38001ca7148525acf8a26264818460050154604051610e2791815260200190565b60405180910390a25050505050505050505050565b8333610e478261138b565b6001600160a01b031614610e6d5760405162461bcd60e51b815260040161079490613182565b846000610e798261138b565b6001600160a01b031603610e9f5760405162461bcd60e51b815260040161079490613153565b6000868152600a6020526040902060098101610ebb858261323c565b50600381018054906000610ece836131c2565b9091555050426007820155600a810180546032918291600090610ef29084906131db565b925050819055506019826005016000828254610f0e91906131db565b92505081905550877f542a6c168a9fefafda5c888d518c999ed8080fc986291ff4f36d6927805a5a228888604051610f47929190613332565b60405180910390a2877f99e98b5ebdbbb637f7b71effb4d8524e9d51047520f1780f0eb644625cd0289782604051610faa9181526040602082018190526011908201527063726f73735f636861696e5f626f6e757360781b606082015260800190565b60405180910390a2877ea4f8488cd701f9a77136eb5c91d5e2edef3c38001ca7148525acf8a26264818360050154604051610fe791815260200190565b60405180910390a25050505050505050565b600a6020526000908152604090208054600182015460028301805492936001600160a01b039092169261102b9061311f565b80601f01602080910402602001604051908101604052809291908181526020018280546110579061311f565b80156110a45780601f10611079576101008083540402835291602001916110a4565b820191906000526020600020905b81548152906001019060200180831161108757829003601f168201915b5050505050908060030154908060040154908060050154908060060154908060070154908060080160009054906101000a900460ff16908060090180546110ea9061311f565b80601f01602080910402602001604051908101604052809291908181526020018280546111169061311f565b80156111635780601f1061113857610100808354040283529160200191611163565b820191906000526020600020905b81548152906001019060200180831161114657829003601f168201915b50505050509080600a015490508b565b61117b611ead565b6007546040516001600160a01b03909116904780156108fc02916000818181858888f193505050501580156111b4573d6000803e3d6000fd5b50565b6111bf611ead565b6111c7611eda565b565b6111e483838360405180602001604052806000815250611960565b505050565b600c602052816000526040600020818154811061120557600080fd5b90600052602060002001600091509150505481565b81336112258261138b565b6001600160a01b03161461124b5760405162461bcd60e51b815260040161079490613182565b8260006112578261138b565b6001600160a01b03160361127d5760405162461bcd60e51b815260040161079490613153565b6000848152600a60205260409020600881015460ff166112d55760405162461bcd60e51b81526020600482015260136024820152725363726f6c6c206e6f74207472616461626c6560681b6044820152606401610794565b60006112e08661138b565b90506112ed818688611f2f565b6001820180546001600160a01b0319166001600160a01b0387161790556113148187611fdf565b6001600160a01b038581166000818152600c602090815260408083208054600181018255908452828420018b905580519486168552908401929092529082015286907f329b1062b473981240cae385f5cda5cbde49b275f354ea4444e3e07ed43306b59060600160405180910390a2505050505050565b600061069082611c60565b60006001600160a01b0382166113c2576040516322718ad960e21b815260006004820152602401610794565b506001600160a01b031660009081526003602052604090205490565b6113e6611ead565b6111c760006120ad565b6113f8611ead565b6111c76120ff565b611408612142565b61141061216c565b662386f26fc100003410156114675760405162461bcd60e51b815260206004820152601760248201527f496e73756666696369656e74206d696e742070726963650000000000000000006044820152606401610794565b61271060095411156114b05760405162461bcd60e51b815260206004820152601260248201527113585e081cdd5c1c1b1e481c995858da195960721b6044820152606401610794565b60008251116114f75760405162461bcd60e51b8152602060048201526013602482015272496e76616c6964207363726f6c6c207479706560681b6044820152606401610794565b600980549081906000611509836131c2565b9091555050604080516101608101825282815233602080830191825282840187815260006060850181905260808501819052606460a08601524260c086015260e0850181905260016101008601819052865180850188528281526101208701526101408601829052878252600a9093529490942083518155915190820180546001600160a01b0319166001600160a01b0390921691909117905591519091829160028201906115b8908261323c565b50606082015160038201556080820151600482015560a0820151600582015560c0820151600682015560e0820151600782015561010082015160088201805460ff19169115159190911790556101208201516009820190611619908261323c565b506101409190910151600a90910155336000908152600c602090815260408083208054600181018255908452919092200183905551600d9061165c908690613360565b9081526040519081900360200190208054906000611679836131c2565b91905055506116883383612197565b61169282846121b1565b336001600160a01b0316827f8f4821199327ba4b49ea28abb6ffd83f9f2316d3703d7c07d0c174e1a7c5cf5b866040516116cc9190612a00565b60405180910390a3505061075c6001600855565b6001600160a01b0381166000908152600c602090815260409182902080548351818402810184019094528084526060939283018282801561174057602002820191906000526020600020905b81548152602001906001019080831161172c575b50505050509050919050565b6060600180546106a59061311f565b600b602052816000526040600020818154811061177757600080fd5b90600052602060002090600702016000915091505080600001805461179b9061311f565b80601f01602080910402602001604051908101604052809291908181526020018280546117c79061311f565b80156118145780601f106117e957610100808354040283529160200191611814565b820191906000526020600020905b8154815290600101906020018083116117f757829003601f168201915b5050505050908060010180546118299061311f565b80601f01602080910402602001604051908101604052809291908181526020018280546118559061311f565b80156118a25780601f10611877576101008083540402835291602001916118a2565b820191906000526020600020905b81548152906001019060200180831161188557829003601f168201915b5050505050908060020154908060030154908060040154908060050180546118c99061311f565b80601f01602080910402602001604051908101604052809291908181526020018280546118f59061311f565b80156119425780601f1061191757610100808354040283529160200191611942565b820191906000526020600020905b81548152906001019060200180831161192557829003601f168201915b5050506006909301549192505060ff1687565b61075c338383612201565b61196b8484846109eb565b610a70848484846122a0565b6060610690826123c9565b6119ea6040518061016001604052806000815260200160006001600160a01b0316815260200160608152602001600081526020016000815260200160008152602001600081526020016000815260200160001515815260200160608152602001600081525090565b8160006119f68261138b565b6001600160a01b031603611a1c5760405162461bcd60e51b815260040161079490613153565b6000838152600a60209081526040918290208251610160810184528154815260018201546001600160a01b0316928101929092526002810180549293919291840191611a679061311f565b80601f0160208091040260200160405190810160405280929190818152602001828054611a939061311f565b8015611ae05780601f10611ab557610100808354040283529160200191611ae0565b820191906000526020600020905b815481529060010190602001808311611ac357829003601f168201915b505050918352505060038201546020820152600482015460408201526005820154606082015260068201546080820152600782015460a0820152600882015460ff16151560c082015260098201805460e090920191611b3e9061311f565b80601f0160208091040260200160405190810160405280929190818152602001828054611b6a9061311f565b8015611bb75780601f10611b8c57610100808354040283529160200191611bb7565b820191906000526020600020905b815481529060010190602001808311611b9a57829003601f168201915b50505050508152602001600a82015481525050915050919050565b6001600160a01b03918216600090815260056020908152604080832093909416825291909152205460ff1690565b611c08611ead565b6001600160a01b038116611c3257604051631e4fbdf760e01b815260006004820152602401610794565b6111b4816120ad565b60006001600160e01b03198216632483248360e11b14806106905750610690826124da565b6000818152600260205260408120546001600160a01b03168061069057604051637e27328960e01b815260048101849052602401610794565b6111e4838383600161252a565b6000828152600260205260408120546001600160a01b0390811690831615611cd357611cd3818486612630565b6001600160a01b03811615611d1157611cf060008560008061252a565b6001600160a01b038116600090815260036020526040902080546000190190555b6001600160a01b03851615611d40576001600160a01b0385166000908152600360205260409020805460010190555b60008481526002602052604080822080546001600160a01b0319166001600160a01b0389811691821790925591518793918516917fddf252ad1be2c89b69c2b068fc378daa952ba7f163c4a11628f55a4df523b3ef91a4949350505050565b600080611dae6103e88561337c565b604051686c6567656e6461727960b81b60208201529091506029015b6040516020818303038152906040528051906020012083604051602001611df19190613360565b6040516020818303038152906040528051906020012003611e1f57611e1781600361339e565b915050610690565b6040516718591d985b98d95960c21b60208201526028016040516020818303038152906040528051906020012083604051602001611e5d9190613360565b6040516020818303038152906040528051906020012003611e8357611e1781600261339e565b9050610690565b604051686c6567656e6461727960b81b6020820152600090600190602901611dca565b6007546001600160a01b031633146111c75760405163118cdaa760e01b8152336004820152602401610794565b611ee2612694565b6007805460ff60a01b191690557f5db9ee0a495bf2e6ff9c91a7834c1ba4fdd244a5e8aa4e537bd38aeae4b073aa335b6040516001600160a01b03909116815260200160405180910390a1565b6001600160a01b038216611f5957604051633250574960e11b815260006004820152602401610794565b6000611f6783836000611ca6565b90506001600160a01b038116611f9357604051637e27328960e01b815260048101839052602401610794565b836001600160a01b0316816001600160a01b031614610a70576040516364283d7b60e01b81526001600160a01b0380861660048301526024820184905282166044820152606401610794565b6001600160a01b0382166000908152600c60205260408120905b8154811015610a705782828281548110612015576120156133b5565b90600052602060002001540361209b5781548290612035906001906133cb565b81548110612045576120456133b5565b9060005260206000200154828281548110612062576120626133b5565b906000526020600020018190555081805480612080576120806133de565b60019003818190600052602060002001600090559055610a70565b806120a5816131c2565b915050611ff9565b600780546001600160a01b038381166001600160a01b0319831681179093556040519116919082907f8be0079c531659141344cd1fd0a4f28419497f9722a3daafe3b4186f6b6457e090600090a35050565b61210761216c565b6007805460ff60a01b1916600160a01b1790557f62e78cea01bee320cd4e420270b5ea74000d11b0c9f74754ebdbfc544b05a258611f123390565b60026008540361216557604051633ee5aeb560e01b815260040160405180910390fd5b6002600855565b600754600160a01b900460ff16156111c75760405163d93c066560e01b815260040160405180910390fd5b61075c8282604051806020016040528060008152506126be565b60008281526006602052604090206121c9828261323c565b506040518281527ff8e1a15aba9398e019f0b49df1a4fde98ee17ae345cb5f6b5e2c27f5033e8ce79060200160405180910390a15050565b6001600160a01b03821661223357604051630b61174360e31b81526001600160a01b0383166004820152602401610794565b6001600160a01b03838116600081815260056020908152604080832094871680845294825291829020805460ff191686151590811790915591519182527f17307eab39ab6107e8899845ad3d59bd9653f200f220920489ca2b5937696c31910160405180910390a3505050565b6001600160a01b0383163b15610a7057604051630a85bd0160e11b81526001600160a01b0384169063150b7a02906122e29033908890879087906004016133f4565b6020604051808303816000875af192505050801561231d575060408051601f3d908101601f1916820190925261231a91810190613431565b60015b612386573d80801561234b576040519150601f19603f3d011682016040523d82523d6000602084013e612350565b606091505b50805160000361237e57604051633250574960e11b81526001600160a01b0385166004820152602401610794565b805181602001fd5b6001600160e01b03198116630a85bd0160e11b146123c257604051633250574960e11b81526001600160a01b0385166004820152602401610794565b5050505050565b60606123d482611c60565b50600082815260066020526040812080546123ee9061311f565b80601f016020809104026020016040519081016040528092919081815260200182805461241a9061311f565b80156124675780601f1061243c57610100808354040283529160200191612467565b820191906000526020600020905b81548152906001019060200180831161244a57829003601f168201915b50505050509050600061248560408051602081019091526000815290565b90508051600003612497575092915050565b8151156124c95780826040516020016124b192919061344e565b60405160208183030381529060405292505050919050565b6124d2846126d5565b949350505050565b60006001600160e01b031982166380ac58cd60e01b148061250b57506001600160e01b03198216635b5e139f60e01b145b8061069057506301ffc9a760e01b6001600160e01b0319831614610690565b808061253e57506001600160a01b03821615155b1561260057600061254e84611c60565b90506001600160a01b0383161580159061257a5750826001600160a01b0316816001600160a01b031614155b801561258d575061258b8184611bd2565b155b156125b65760405163a9fbf51f60e01b81526001600160a01b0384166004820152602401610794565b81156125fe5783856001600160a01b0316826001600160a01b03167f8c5be1e5ebec7d5bd14f71427d1e84f3dd0314c0f7b2291e5b200ac8c7c3b92560405160405180910390a45b505b5050600090815260046020526040902080546001600160a01b0319166001600160a01b0392909216919091179055565b61263b83838361274a565b6111e4576001600160a01b03831661266957604051637e27328960e01b815260048101829052602401610794565b60405163177e802f60e01b81526001600160a01b038316600482015260248101829052604401610794565b600754600160a01b900460ff166111c757604051638dfc202b60e01b815260040160405180910390fd5b6126c883836127ad565b6111e460008484846122a0565b60606126e082611c60565b5060006126f860408051602081019091526000815290565b905060008151116127185760405180602001604052806000815250612743565b8061272284612812565b60405160200161273392919061344e565b6040516020818303038152906040525b9392505050565b60006001600160a01b038316158015906124d25750826001600160a01b0316846001600160a01b0316148061278457506127848484611bd2565b806124d25750506000908152600460205260409020546001600160a01b03908116911614919050565b6001600160a01b0382166127d757604051633250574960e11b815260006004820152602401610794565b60006127e583836000611ca6565b90506001600160a01b038116156111e4576040516339e3563760e11b815260006004820152602401610794565b6060600061281f836128a5565b600101905060008167ffffffffffffffff81111561283f5761283f612b7d565b6040519080825280601f01601f191660200182016040528015612869576020820181803683370190505b5090508181016020015b600019016f181899199a1a9b1b9c1cb0b131b232b360811b600a86061a8153600a850494508461287357509392505050565b60008072184f03e93ff9f4daa797ed6e38ed64bf6a1f0160401b83106128e45772184f03e93ff9f4daa797ed6e38ed64bf6a1f0160401b830492506040015b6d04ee2d6d415b85acef81000000008310612910576d04ee2d6d415b85acef8100000000830492506020015b662386f26fc10000831061292e57662386f26fc10000830492506010015b6305f5e1008310612946576305f5e100830492506008015b612710831061295a57612710830492506004015b6064831061296c576064830492506002015b600a83106106905760010192915050565b6001600160e01b0319811681146111b457600080fd5b6000602082840312156129a557600080fd5b81356127438161297d565b60005b838110156129cb5781810151838201526020016129b3565b50506000910152565b600081518084526129ec8160208601602086016129b0565b601f01601f19169290920160200192915050565b60208152600061274360208301846129d4565b600060208284031215612a2557600080fd5b5035919050565b80356001600160a01b0381168114612a4357600080fd5b919050565b60008060408385031215612a5b57600080fd5b612a6483612a2c565b946020939093013593505050565b60006020808301818452808551808352604092508286019150828160051b87010184880160005b83811015612b3357603f19898403018552815160e08151818652612abf828701826129d4565b915050888201518582038a870152612ad782826129d4565b91505087820151888601526060808301518187015250608080830151818701525060a08083015186830382880152612b0f83826129d4565b60c09485015115159790940196909652505094870194925090860190600101612a99565b509098975050505050505050565b600080600060608486031215612b5657600080fd5b612b5f84612a2c565b9250612b6d60208501612a2c565b9150604084013590509250925092565b634e487b7160e01b600052604160045260246000fd5b600067ffffffffffffffff80841115612bae57612bae612b7d565b604051601f8501601f19908116603f01168101908282118183101715612bd657612bd6612b7d565b81604052809350858152868686011115612bef57600080fd5b858560208301376000602087830101525050509392505050565b600082601f830112612c1a57600080fd5b61274383833560208501612b93565b60008060008060008060c08789031215612c4257600080fd5b86359550602087013567ffffffffffffffff80821115612c6157600080fd5b612c6d8a838b01612c09565b96506040890135915080821115612c8357600080fd5b612c8f8a838b01612c09565b9550606089013594506080890135935060a0890135915080821115612cb357600080fd5b50612cc089828a01612c09565b9150509295509295509295565b60008060008060808587031215612ce357600080fd5b84359350602085013567ffffffffffffffff80821115612d0257600080fd5b612d0e88838901612c09565b94506040870135915080821115612d2457600080fd5b612d3088838901612c09565b93506060870135915080821115612d4657600080fd5b50612d5387828801612c09565b91505092959194509250565b600060208284031215612d7157600080fd5b813567ffffffffffffffff811115612d8857600080fd5b6124d284828501612c09565b8b81526001600160a01b038b16602082015261016060408201819052600090612dbf8382018d6129d4565b90508a60608401528960808401528860a08401528760c08401528660e0840152851515610100840152828103610120840152612dfb81866129d4565b915050826101408301529c9b505050505050505050505050565b60008060408385031215612e2857600080fd5b82359150612e3860208401612a2c565b90509250929050565b600060208284031215612e5357600080fd5b61274382612a2c565b60008060408385031215612e6f57600080fd5b823567ffffffffffffffff80821115612e8757600080fd5b612e9386838701612c09565b93506020850135915080821115612ea957600080fd5b50612eb685828601612c09565b9150509250929050565b6020808252825182820181905260009190848201906040850190845b81811015612ef857835183529284019291840191600101612edc565b50909695505050505050565b60008060408385031215612f1757600080fd5b50508035926020909101359150565b60e081526000612f3960e083018a6129d4565b8281036020840152612f4b818a6129d4565b905087604084015286606084015285608084015282810360a0840152612f7181866129d4565b91505082151560c083015298975050505050505050565b60008060408385031215612f9b57600080fd5b612fa483612a2c565b915060208301358015158114612fb957600080fd5b809150509250929050565b60008060008060808587031215612fda57600080fd5b612fe385612a2c565b9350612ff160208601612a2c565b925060408501359150606085013567ffffffffffffffff81111561301457600080fd5b8501601f8101871361302557600080fd5b612d5387823560208401612b93565b60208152815160208201526000602083015161305b60408401826001600160a01b03169052565b5060408301516101608060608501526130786101808501836129d4565b915060608501516080850152608085015160a085015260a085015160c085015260c085015160e085015260e08501516101008181870152808701519150506101206130c68187018315159052565b80870151915050610140601f1986850301818701526130e584836129d4565b9601519190940152509192915050565b6000806040838503121561310857600080fd5b61311183612a2c565b9150612e3860208401612a2c565b600181811c9082168061313357607f821691505b6020821081036109e557634e487b7160e01b600052602260045260246000fd5b60208082526015908201527414d8dc9bdb1b08191bd95cc81b9bdd08195e1a5cdd605a1b604082015260600190565b60208082526010908201526f2737ba1039b1b937b6361037bbb732b960811b604082015260600190565b634e487b7160e01b600052601160045260246000fd5b6000600182016131d4576131d46131ac565b5060010190565b80820180821115610690576106906131ac565b601f8211156111e457600081815260208120601f850160051c810160208610156132155750805b601f850160051c820191505b8181101561323457828155600101613221565b505050505050565b815167ffffffffffffffff81111561325657613256612b7d565b61326a81613264845461311f565b846131ee565b602080601f83116001811461329f57600084156132875750858301515b600019600386901b1c1916600185901b178555613234565b600085815260208120601f198616915b828110156132ce578886015182559484019460019091019084016132af565b50858210156132ec5787850151600019600388901b60f8161c191681555b5050505050600190811b01905550565b60608152600061330f60608301866129d4565b828103602084015261332181866129d4565b915050826040830152949350505050565b60408152600061334560408301856129d4565b828103602084015261335781856129d4565b95945050505050565b600082516133728184602087016129b0565b9190910192915050565b60008261339957634e487b7160e01b600052601260045260246000fd5b500490565b8082028115828204841417610690576106906131ac565b634e487b7160e01b600052603260045260246000fd5b81810381811115610690576106906131ac565b634e487b7160e01b600052603160045260246000fd5b6001600160a01b0385811682528416602082015260408101839052608060608201819052600090613427908301846129d4565b9695505050505050565b60006020828403121561344357600080fd5b81516127438161297d565b600083516134608184602088016129b0565b8351908301906134748183602088016129b0565b0194935050505056fea264697066735822122098fb7548ad92ab1b3d61627761e0658a3d1a0bf3b9e163de50e5e2551889879964736f6c63430008140033",
  "linkReferences": {},
  "deployedLinkReferences": {}
}