{
  "_format": "hh-sol-artifact-1",
  "contractName": "RewardSystem",
  "sourceName": "contracts/RewardSystem.sol",
  "abi": [
    {
      "inputs": [
        {
          "internalType": "address",
          "name": "_rewardToken",
          "type": "address"
        }
      ],
      "stateMutability": "nonpayable",
      "type": "constructor"
    },
    {
      "inputs": [],
      "name": "EnforcedPause",
      "type": "error"
    },
    {
      "inputs": [],
      "name": "ExpectedPause",
      "type": "error"
    },
    {
      "inputs": [
        {
          "internalType": "address",
          "name": "owner",
          "type": "address"
        }
      ],
      "name": "OwnableInvalidOwner",
      "type": "error"
    },
    {
      "inputs": [
        {
          "internalType": "address",
          "name": "account",
          "type": "address"
        }
      ],
      "name": "OwnableUnauthorizedAccount",
      "type": "error"
    },
    {
      "inputs": [],
      "name": "ReentrancyGuardReentrantCall",
      "type": "error"
    },
    {
      "anonymous": false,
      "inputs": [
        {
          "indexed": true,
          "internalType": "address",
          "name": "user",
          "type": "address"
        },
        {
          "indexed": false,
          "internalType": "uint256",
          "name": "achievementId",
          "type": "uint256"
        },
        {
          "indexed": false,
          "internalType": "string",
          "name": "achievementName",
          "type": "string"
        }
      ],
      "name": "AchievementUnlocked",
      "type": "event"
    },
    {
      "anonymous": false,
      "inputs": [
        {
          "indexed": true,
          "internalType": "address",
          "name": "user",
          "type": "address"
        },
        {
          "indexed": false,
          "internalType": "uint256",
          "name": "newLevel",
          "type": "uint256"
        }
      ],
      "name": "LevelUp",
      "type": "event"
    },
    {
      "anonymous": false,
      "inputs": [
        {
          "indexed": true,
          "internalType": "address",
          "name": "previousOwner",
          "type": "address"
        },
        {
          "indexed": true,
          "internalType": "address",
          "name": "newOwner",
          "type": "address"
        }
      ],
      "name": "OwnershipTransferred",
      "type": "event"
    },
    {
      "anonymous": false,
      "inputs": [
        {
          "indexed": false,
          "internalType": "address",
          "name": "account",
          "type": "address"
        }
      ],
      "name": "Paused",
      "type": "event"
    },
    {
      "anonymous": false,
      "inputs": [
        {
          "indexed": true,
          "internalType": "address",
          "name": "user",
          "type": "address"
        },
        {
          "indexed": false,
          "internalType": "uint256",
          "name": "points",
          "type": "uint256"
        },
        {
          "indexed": false,
          "internalType": "string",
          "name": "reason",
          "type": "string"
        }
      ],
      "name": "PointsEarned",
      "type": "event"
    },
    {
      "anonymous": false,
      "inputs": [
        {
          "indexed": true,
          "internalType": "address",
          "name": "user",
          "type": "address"
        },
        {
          "indexed": false,
          "internalType": "uint256",
          "name": "reputation",
          "type": "uint256"
        },
        {
          "indexed": false,
          "internalType": "string",
          "name": "reason",
          "type": "string"
        }
      ],
      "name": "ReputationEarned",
      "type": "event"
    },
    {
      "anonymous": false,
      "inputs": [
        {
          "indexed": true,
          "internalType": "address",
          "name": "user",
          "type": "address"
        },
        {
          "indexed": false,
          "internalType": "uint256",
          "name": "amount",
          "type": "uint256"
        }
      ],
      "name": "RewardClaimed",
      "type": "event"
    },
    {
      "anonymous": false,
      "inputs": [
        {
          "indexed": true,
          "internalType": "address",
          "name": "user",
          "type": "address"
        },
        {
          "indexed": false,
          "internalType": "uint256",
          "name": "newTier",
          "type": "uint256"
        }
      ],
      "name": "TierUpgraded",
      "type": "event"
    },
    {
      "anonymous": false,
      "inputs": [
        {
          "indexed": false,
          "internalType": "address",
          "name": "account",
          "type": "address"
        }
      ],
      "name": "Unpaused",
      "type": "event"
    },
    {
      "inputs": [],
      "name": "BASE_POINTS_PER_SWAP",
      "outputs": [
        {
          "internalType": "uint256",
          "name": "",
          "type": "uint256"
        }
      ],
      "stateMutability": "view",
      "type": "function"
    },
    {
      "inputs": [],
      "name": "BASE_REPUTATION_PER_SWAP",
      "outputs": [
        {
          "internalType": "uint256",
          "name": "",
          "type": "uint256"
        }
      ],
      "stateMutability": "view",
      "type": "function"
    },
    {
      "inputs": [],
      "name": "CROSS_CHAIN_BONUS",
      "outputs": [
        {
          "internalType": "uint256",
          "name": "",
          "type": "uint256"
        }
      ],
      "stateMutability": "view",
      "type": "function"
    },
    {
      "inputs": [],
      "name": "LEVEL_UP_THRESHOLD",
      "outputs": [
        {
          "internalType": "uint256",
          "name": "",
          "type": "uint256"
        }
      ],
      "stateMutability": "view",
      "type": "function"
    },
    {
      "inputs": [],
      "name": "VOLUME_BONUS_THRESHOLD",
      "outputs": [
        {
          "internalType": "uint256",
          "name": "",
          "type": "uint256"
        }
      ],
      "stateMutability": "view",
      "type": "function"
    },
    {
      "inputs": [
        {
          "internalType": "uint256",
          "name": "",
          "type": "uint256"
        }
      ],
      "name": "achievements",
      "outputs": [
        {
          "internalType": "uint256",
          "name": "id",
          "type": "uint256"
        },
        {
          "internalType": "string",
          "name": "name",
          "type": "string"
        },
        {
          "internalType": "string",
          "name": "description",
          "type": "string"
        },
        {
          "internalType": "uint256",
          "name": "pointsReward",
          "type": "uint256"
        },
        {
          "internalType": "uint256",
          "name": "reputationReward",
          "type": "uint256"
        },
        {
          "internalType": "bool",
          "name": "isActive",
          "type": "bool"
        },
        {
          "internalType": "uint256",
          "name": "requiredSwaps",
          "type": "uint256"
        },
        {
          "internalType": "uint256",
          "name": "requiredVolume",
          "type": "uint256"
        },
        {
          "internalType": "uint256",
          "name": "requiredChains",
          "type": "uint256"
        }
      ],
      "stateMutability": "view",
      "type": "function"
    },
    {
      "inputs": [
        {
          "internalType": "string",
          "name": "name",
          "type": "string"
        },
        {
          "internalType": "string",
          "name": "description",
          "type": "string"
        },
        {
          "internalType": "uint256",
          "name": "pointsReward",
          "type": "uint256"
        },
        {
          "internalType": "uint256",
          "name": "reputationReward",
          "type": "uint256"
        },
        {
          "internalType": "uint256",
          "name": "requiredSwaps",
          "type": "uint256"
        },
        {
          "internalType": "uint256",
          "name": "requiredVolume",
          "type": "uint256"
        },
        {
          "internalType": "uint256",
          "name": "requiredChains",
          "type": "uint256"
        }
      ],
      "name": "addAchievement",
      "outputs": [],
      "stateMutability": "nonpayable",
      "type": "function"
    },
    {
      "inputs": [
        {
          "internalType": "string",
          "name": "name",
          "type": "string"
        },
        {
          "internalType": "uint256",
          "name": "minPoints",
          "type": "uint256"
        },
        {
          "internalType": "uint256",
          "name": "minReputation",
          "type": "uint256"
        },
        {
          "internalType": "uint256",
          "name": "bonusMultiplier",
          "type": "uint256"
        },
        {
          "internalType": "bool",
          "name": "isActive",
          "type": "bool"
        }
      ],
      "name": "addRewardTier",
      "outputs": [],
      "stateMutability": "nonpayable",
      "type": "function"
    },
    {
      "inputs": [
        {
          "internalType": "address",
          "name": "user",
          "type": "address"
        },
        {
          "internalType": "uint256",
          "name": "points",
          "type": "uint256"
        },
        {
          "internalType": "string",
          "name": "reason",
          "type": "string"
        }
      ],
      "name": "awardBonusPoints",
      "outputs": [],
      "stateMutability": "nonpayable",
      "type": "function"
    },
    {
      "inputs": [
        {
          "internalType": "address",
          "name": "user",
          "type": "address"
        },
        {
          "internalType": "uint256",
          "name": "reputation",
          "type": "uint256"
        },
        {
          "internalType": "string",
          "name": "reason",
          "type": "string"
        }
      ],
      "name": "awardReputation",
      "outputs": [],
      "stateMutability": "nonpayable",
      "type": "function"
    },
    {
      "inputs": [
        {
          "internalType": "address",
          "name": "user",
          "type": "address"
        },
        {
          "internalType": "uint256",
          "name": "swapAmount",
          "type": "uint256"
        },
        {
          "internalType": "bool",
          "name": "isCrossChain",
          "type": "bool"
        },
        {
          "internalType": "uint256",
          "name": "chainCount",
          "type": "uint256"
        }
      ],
      "name": "awardSwapRewards",
      "outputs": [],
      "stateMutability": "nonpayable",
      "type": "function"
    },
    {
      "inputs": [
        {
          "internalType": "uint256",
          "name": "amount",
          "type": "uint256"
        }
      ],
      "name": "claimRewards",
      "outputs": [],
      "stateMutability": "nonpayable",
      "type": "function"
    },
    {
      "inputs": [
        {
          "internalType": "uint256",
          "name": "achievementId",
          "type": "uint256"
        }
      ],
      "name": "getAchievement",
      "outputs": [
        {
          "components": [
            {
              "internalType": "uint256",
              "name": "id",
              "type": "uint256"
            },
            {
              "internalType": "string",
              "name": "name",
              "type": "string"
            },
            {
              "internalType": "string",
              "name": "description",
              "type": "string"
            },
            {
              "internalType": "uint256",
              "name": "pointsReward",
              "type": "uint256"
            },
            {
              "internalType": "uint256",
              "name": "reputationReward",
              "type": "uint256"
            },
            {
              "internalType": "bool",
              "name": "isActive",
              "type": "bool"
            },
            {
              "internalType": "uint256",
              "name": "requiredSwaps",
              "type": "uint256"
            },
            {
              "internalType": "uint256",
              "name": "requiredVolume",
              "type": "uint256"
            },
            {
              "internalType": "uint256",
              "name": "requiredChains",
              "type": "uint256"
            }
          ],
          "internalType": "struct RewardSystem.Achievement",
          "name": "",
          "type": "tuple"
        }
      ],
      "stateMutability": "view",
      "type": "function"
    },
    {
      "inputs": [
        {
          "internalType": "uint256",
          "name": "tierId",
          "type": "uint256"
        }
      ],
      "name": "getRewardTier",
      "outputs": [
        {
          "components": [
            {
              "internalType": "uint256",
              "name": "tierId",
              "type": "uint256"
            },
            {
              "internalType": "string",
              "name": "name",
              "type": "string"
            },
            {
              "internalType": "uint256",
              "name": "minPoints",
              "type": "uint256"
            },
            {
              "internalType": "uint256",
              "name": "minReputation",
              "type": "uint256"
            },
            {
              "internalType": "uint256",
              "name": "bonusMultiplier",
              "type": "uint256"
            },
            {
              "internalType": "bool",
              "name": "isActive",
              "type": "bool"
            }
          ],
          "internalType": "struct RewardSystem.RewardTier",
          "name": "",
          "type": "tuple"
        }
      ],
      "stateMutability": "view",
      "type": "function"
    },
    {
      "inputs": [
        {
          "internalType": "address",
          "name": "user",
          "type": "address"
        },
        {
          "internalType": "string",
          "name": "activity",
          "type": "string"
        }
      ],
      "name": "getUserActivityStat",
      "outputs": [
        {
          "internalType": "uint256",
          "name": "",
          "type": "uint256"
        }
      ],
      "stateMutability": "view",
      "type": "function"
    },
    {
      "inputs": [
        {
          "internalType": "address",
          "name": "user",
          "type": "address"
        }
      ],
      "name": "getUserRewards",
      "outputs": [
        {
          "internalType": "uint256",
          "name": "totalPoints",
          "type": "uint256"
        },
        {
          "internalType": "uint256",
          "name": "totalReputation",
          "type": "uint256"
        },
        {
          "internalType": "uint256",
          "name": "level",
          "type": "uint256"
        },
        {
          "internalType": "uint256",
          "name": "achievementsUnlocked",
          "type": "uint256"
        },
        {
          "internalType": "uint256",
          "name": "lastRewardTime",
          "type": "uint256"
        }
      ],
      "stateMutability": "view",
      "type": "function"
    },
    {
      "inputs": [
        {
          "internalType": "address",
          "name": "user",
          "type": "address"
        },
        {
          "internalType": "uint256",
          "name": "achievementId",
          "type": "uint256"
        }
      ],
      "name": "hasUnlockedAchievement",
      "outputs": [
        {
          "internalType": "bool",
          "name": "",
          "type": "bool"
        }
      ],
      "stateMutability": "view",
      "type": "function"
    },
    {
      "inputs": [],
      "name": "owner",
      "outputs": [
        {
          "internalType": "address",
          "name": "",
          "type": "address"
        }
      ],
      "stateMutability": "view",
      "type": "function"
    },
    {
      "inputs": [],
      "name": "pause",
      "outputs": [],
      "stateMutability": "nonpayable",
      "type": "function"
    },
    {
      "inputs": [],
      "name": "paused",
      "outputs": [
        {
          "internalType": "bool",
          "name": "",
          "type": "bool"
        }
      ],
      "stateMutability": "view",
      "type": "function"
    },
    {
      "inputs": [],
      "name": "renounceOwnership",
      "outputs": [],
      "stateMutability": "nonpayable",
      "type": "function"
    },
    {
      "inputs": [
        {
          "internalType": "uint256",
          "name": "",
          "type": "uint256"
        }
      ],
      "name": "rewardTiers",
      "outputs": [
        {
          "internalType": "uint256",
          "name": "tierId",
          "type": "uint256"
        },
        {
          "internalType": "string",
          "name": "name",
          "type": "string"
        },
        {
          "internalType": "uint256",
          "name": "minPoints",
          "type": "uint256"
        },
        {
          "internalType": "uint256",
          "name": "minReputation",
          "type": "uint256"
        },
        {
          "internalType": "uint256",
          "name": "bonusMultiplier",
          "type": "uint256"
        },
        {
          "internalType": "bool",
          "name": "isActive",
          "type": "bool"
        }
      ],
      "stateMutability": "view",
      "type": "function"
    },
    {
      "inputs": [],
      "name": "rewardToken",
      "outputs": [
        {
          "internalType": "contract IERC20",
          "name": "",
          "type": "address"
        }
      ],
      "stateMutability": "view",
      "type": "function"
    },
    {
      "inputs": [
        {
          "internalType": "address",
          "name": "newOwner",
          "type": "address"
        }
      ],
      "name": "transferOwnership",
      "outputs": [],
      "stateMutability": "nonpayable",
      "type": "function"
    },
    {
      "inputs": [
        {
          "internalType": "address",
          "name": "user",
          "type": "address"
        },
        {
          "internalType": "uint256",
          "name": "achievementId",
          "type": "uint256"
        }
      ],
      "name": "unlockAchievement",
      "outputs": [],
      "stateMutability": "nonpayable",
      "type": "function"
    },
    {
      "inputs": [],
      "name": "unpause",
      "outputs": [],
      "stateMutability": "nonpayable",
      "type": "function"
    },
    {
      "inputs": [
        {
          "internalType": "address",
          "name": "newRewardToken",
          "type": "address"
        }
      ],
      "name": "updateRewardToken",
      "outputs": [],
      "stateMutability": "nonpayable",
      "type": "function"
    },
    {
      "inputs": [
        {
          "internalType": "address",
          "name": "",
          "type": "address"
        }
      ],
      "name": "userRewards",
      "outputs": [
        {
          "internalType": "uint256",
          "name": "totalPoints",
          "type": "uint256"
        },
        {
          "internalType": "uint256",
          "name": "totalReputation",
          "type": "uint256"
        },
        {
          "internalType": "uint256",
          "name": "level",
          "type": "uint256"
        },
        {
          "internalType": "uint256",
          "name": "achievementsUnlocked",
          "type": "uint256"
        },
        {
          "internalType": "uint256",
          "name": "lastRewardTime",
          "type": "uint256"
        }
      ],
      "stateMutability": "view",
      "type": "function"
    }
  ],
  "bytecode": "0x60806040523480156200001157600080fd5b5060405162002b4538038062002b45833981016040819052620000349162000612565b33806200005b57604051631e4fbdf760e01b81526000600482015260240160405180910390fd5b6200006681620000b7565b506000805460ff60a01b191690556001808055600780546001600160a01b0319166001600160a01b0384161790556005819055600655620000a662000107565b620000b06200036c565b50620007dd565b600080546001600160a01b038381166001600160a01b0319831681178455604051919092169283917f8be0079c531659141344cd1fd0a4f28419497f9722a3daafe3b4186f6b6457e09190a35050565b6200017a6040518060400160405280600a8152602001690466972737420537761760b41b8152506040518060400160405280601881526020017f436f6d706c65746520796f7572206669727374207377617000000000000000008152506032600a6001600060016200046160201b60201c565b620001f86040518060400160405280600d81526020016c2b37b63ab6b2902a3930b232b960991b8152506040518060400160405280601d81526020017f5472616465206f76657220313030302045544820696e20766f6c756d6500000081525060c860196000683635c9adc5dea0000060016200046160201b60201c565b6200027e6040518060400160405280601481526020017f43726f73732d436861696e204578706c6f7265720000000000000000000000008152506040518060400160405280601e81526020017f53776170206163726f7373203320646966666572656e7420636861696e73000081525061012c603260008060036200046160201b60201c565b620002e76040518060400160405280600b81526020016a29bbb0b81026b0b9ba32b960a91b81525060405180604001604052806012815260200171436f6d706c6574652031303020737761707360701b8152506101f4606480600060016200046160201b60201c565b6200036a6040518060400160405280601081526020016f2632b3b2b73230b93c902a3930b232b960811b8152506040518060400160405280601e81526020017f5472616465206f7665722031303030302045544820696e20766f6c756d6500008152506103e860c8600069021e19e0c9bab240000060016200046160201b60201c565b565b60408051808201909152600681526542726f6e7a6560d01b60208201526200039b906000806064600162000560565b60408051808201909152600681526529b4b63b32b960d11b6020820152620003cc906103e86032607d600162000560565b60408051808201909152600481526311dbdb1960e21b6020820152620003fb9061138860646096600162000560565b604080518082019091526008815267506c6174696e756d60c01b60208201526200042d9061271060c880600162000560565b604080518082019091526007815266111a585b5bdb9960ca1b60208201526200036a906161a86101f461012c600162000560565b600580549081906000620004758362000644565b91905055506040518061012001604052808281526020018981526020018881526020018781526020018681526020016001151581526020018581526020018481526020018381525060036000838152602001908152602001600020600082015181600001556020820151816001019081620004f1919062000711565b506040820151600282019062000508908262000711565b50606082015160038201556080820151600482015560a082015160058201805460ff191691151591909117905560c0820151600682015560e08201516007820155610100909101516008909101555050505050505050565b600680549081906000620005748362000644565b90915550506040805160c0810182528281526020808201898152828401899052606083018890526080830187905285151560a0840152600085815260049092529290208151815591519091906001820190620005d1908262000711565b5060408201516002820155606082015160038201556080820151600482015560a0909101516005909101805460ff1916911515919091179055505050505050565b6000602082840312156200062557600080fd5b81516001600160a01b03811681146200063d57600080fd5b9392505050565b6000600182016200066557634e487b7160e01b600052601160045260246000fd5b5060010190565b634e487b7160e01b600052604160045260246000fd5b600181811c908216806200069757607f821691505b602082108103620006b857634e487b7160e01b600052602260045260246000fd5b50919050565b601f8211156200070c57600081815260208120601f850160051c81016020861015620006e75750805b601f850160051c820191505b818110156200070857828155600101620006f3565b5050505b505050565b81516001600160401b038111156200072d576200072d6200066c565b62000745816200073e845462000682565b84620006be565b602080601f8311600181146200077d5760008415620007645750858301515b600019600386901b1c1916600185901b17855562000708565b600085815260208120601f198616915b82811015620007ae578886015182559484019460019091019084016200078d565b5085821015620007cd5787850151600019600388901b60f8161c191681555b5050505050600190811b01905550565b61235880620007ed6000396000f3fe608060405234801561001057600080fd5b50600436106101c45760003560e01c8063715018a6116100f9578063ede7624f11610097578063f7c618c111610071578063f7c618c11461042b578063f8cf31cb1461043e578063fefc6a6514610451578063ff2011141461046457600080fd5b8063ede7624f146103f0578063f2ccc543146103f8578063f2fde38b1461041857600080fd5b80638da5cb5b116100d35780638da5cb5b14610390578063c05be6b1146103b5578063d6f56ccb146103c8578063eb586cae146103d057600080fd5b8063715018a61461036d57806373ecf970146103755780638456cb591461038857600080fd5b80633f4ba83a116101665780635c5fb679116101405780635c5fb679146103255780635c975abb146103385780636146730b1461034a57806369f5951d1461035a57600080fd5b80633f4ba83a146102f757806356add04a146102ff5780635bb338bc1461031257600080fd5b80630962ef79116101a25780630962ef791461029c57806327aed72e146102b1578063307bfc87146102d95780633f03b4ef146102ef57600080fd5b80630309a666146101c95780630660f1e8146101f1578063078b0fb714610256575b600080fd5b6101dc6101d7366004611b04565b610489565b60405190151581526020015b60405180910390f35b61022e6101ff366004611b2e565b600260208190526000918252604090912080546001820154928201546003830154600490930154919392909185565b604080519586526020860194909452928401919091526060830152608082015260a0016101e8565b61022e610264366004611b2e565b6001600160a01b0316600090815260026020819052604090912080546001820154928201546003830154600490930154919490929190565b6102af6102aa366004611b50565b6104ba565b005b6102c46102bf366004611b50565b610686565b6040516101e899989796959493929190611bb9565b6102e1600a81565b6040519081526020016101e8565b6102e1601981565b6102af6107e4565b6102af61030d366004611ccd565b6107f6565b6102af610320366004611b04565b610812565b6102af610333366004611d3c565b610b35565b600054600160a01b900460ff166101dc565b6102e1683635c9adc5dea0000081565b6102af610368366004611dcc565b610b55565b6102af610d8c565b6102e1610383366004611e12565b610d9e565b6102af610de1565b6000546001600160a01b03165b6040516001600160a01b0390911681526020016101e8565b6102af6103c3366004611e60565b610df1565b6102e1600181565b6103e36103de366004611b50565b610e6a565b6040516101e89190611eb7565b6102e1606481565b61040b610406366004611b50565b610fe3565b6040516101e89190611f13565b6102af610426366004611b2e565b61121e565b60075461039d906001600160a01b031681565b6102af61044c366004611b2e565b611259565b6102af61045f366004611e60565b6112d1565b610477610472366004611b50565b611342565b6040516101e896959493929190611fb0565b6001600160a01b038216600090815260026020908152604080832084845260050190915290205460ff165b92915050565b6104c2611403565b6104ca61142d565b3360009081526002602052604090208161051c5760405162461bcd60e51b815260206004820152600e60248201526d125b9d985b1a5908185b5bdd5b9d60921b60448201526064015b60405180910390fd5b80548211156105635760405162461bcd60e51b8152602060048201526013602482015272496e73756666696369656e7420706f696e747360681b6044820152606401610513565b600061056f3384611458565b60075460405163a9059cbb60e01b8152336004820152602481018390529192506001600160a01b03169063a9059cbb906044016020604051808303816000875af11580156105c1573d6000803e3d6000fd5b505050506040513d601f19601f820116820180604052508101906105e59190611ff0565b61062a5760405162461bcd60e51b815260206004820152601660248201527514995dd85c99081d1c985b9cd9995c8819985a5b195960521b6044820152606401610513565b8282600001600082825461063e9190612023565b909155505060405181815233907f106f923f993c2149d49b4255ff723acafa1f2d94393f561d3eda32ae348f72419060200160405180910390a2505061068360018055565b50565b600360205260009081526040902080546001820180549192916106a890612036565b80601f01602080910402602001604051908101604052809291908181526020018280546106d490612036565b80156107215780601f106106f657610100808354040283529160200191610721565b820191906000526020600020905b81548152906001019060200180831161070457829003601f168201915b50505050509080600201805461073690612036565b80601f016020809104026020016040519081016040528092919081815260200182805461076290612036565b80156107af5780601f10610784576101008083540402835291602001916107af565b820191906000526020600020905b81548152906001019060200180831161079257829003601f168201915b505050600384015460048501546005860154600687015460078801546008909801549697939692955060ff9091169350919089565b6107ec6114c1565b6107f46114ee565b565b6107fe6114c1565b61080b8585858585611543565b5050505050565b6000818152600360205260408120548291036108665760405162461bcd60e51b8152602060048201526013602482015272125b9d985b1a59081858da1a595d995b595b9d606a1b6044820152606401610513565b61086e61142d565b6001600160a01b0383166000908152600260209081526040808320858452600383528184206005820190935292205460ff16156108ed5760405162461bcd60e51b815260206004820152601c60248201527f416368696576656d656e7420616c726561647920756e6c6f636b6564000000006044820152606401610513565b600581015460ff1661093a5760405162461bcd60e51b8152602060048201526016602482015275416368696576656d656e74206e6f742061637469766560501b6044820152606401610513565b80600601548260060160405161095b9064737761707360d81b815260050190565b908152602001604051809103902054101580156109a05750600781015460405165766f6c756d6560d01b81526006808501910190815260200160405180910390205410155b80156109d45750600881015460405165636861696e7360d01b81526006808501910190815260200160405180910390205410155b610a175760405162461bcd60e51b815260206004820152601460248201527314995c5d5a5c995b595b9d1cc81b9bdd081b595d60621b6044820152606401610513565b8060030154826000016000828254610a2f919061206a565b90915550506004810154600183018054600090610a4d90849061206a565b909155505060008481526005830160205260408120805460ff1916600117905560038301805491610a7d8361207d565b9190505550846001600160a01b03167f5808713f30d1d277897adb26ef9590a7ff17fddbde59fbfc3139ad01929ce4218583600101604051610ac0929190612096565b60405180910390a2846001600160a01b03166000805160206123038339815191528260030154604051610af39190612129565b60405180910390a2846001600160a01b03166000805160206122e38339815191528260040154604051610b269190612129565b60405180910390a25050505050565b610b3d6114c1565b610b4c878787878787876115f1565b50505050505050565b610b5d61142d565b6001600160a01b0384166000908152600260205260409020600a6001683635c9adc5dea000008610610ba457610b9460028361215e565b9150610ba160028261215e565b90505b8415610bc557610bb560198361206a565b9150610bc260058261206a565b90505b6001841115610c1357610bd9600185612023565b610be490600a61215e565b610bee908361206a565b9150610bfb600185612023565b610c0690600261215e565b610c10908261206a565b90505b81836000016000828254610c27919061206a565b9250508190555080836001016000828254610c42919061206a565b909155505060405164737761707360d81b815260068401906005019081526040519081900360200190208054906000610c7a8361207d565b91905055508583600601604051610c9d9065766f6c756d6560d01b815260060190565b90815260200160405180910390206000828254610cba919061206a565b9091555050426004840155610cce876116ea565b610cd787611777565b866001600160a01b031660008051602061230383398151915283604051610d25918152604060208201819052600d908201526c1cddd85c17d95e1958dd5d1959609a1b606082015260800190565b60405180910390a2866001600160a01b03166000805160206122e383398151915282604051610d7b918152604060208201819052600d908201526c1cddd85c17d95e1958dd5d1959609a1b606082015260800190565b60405180910390a250505050505050565b610d946114c1565b6107f460006119a2565b6001600160a01b0382166000908152600260205260408082209051600690910190610dca908490612175565b908152602001604051809103902054905092915050565b610de96114c1565b6107f46119f2565b610df961142d565b6001600160a01b038316600090815260026020526040812060018101805491928592610e2690849061206a565b90915550504260048201556040516001600160a01b038516906000805160206122e383398151915290610e5c9086908690612191565b60405180910390a250505050565b610ea56040518060c0016040528060008152602001606081526020016000815260200160008152602001600081526020016000151581525090565b600082815260046020526040812054839103610ef25760405162461bcd60e51b815260206004820152600c60248201526b24b73b30b634b2103a34b2b960a11b6044820152606401610513565b600460008481526020019081526020016000206040518060c001604052908160008201548152602001600182018054610f2a90612036565b80601f0160208091040260200160405190810160405280929190818152602001828054610f5690612036565b8015610fa35780601f10610f7857610100808354040283529160200191610fa3565b820191906000526020600020905b815481529060010190602001808311610f8657829003601f168201915b505050918352505060028201546020820152600382015460408201526004820154606082015260059091015460ff16151560809091015291505b50919050565b61103460405180610120016040528060008152602001606081526020016060815260200160008152602001600081526020016000151581526020016000815260200160008152602001600081525090565b6000828152600360205260408120548391036110885760405162461bcd60e51b8152602060048201526013602482015272125b9d985b1a59081858da1a595d995b595b9d606a1b6044820152606401610513565b6003600084815260200190815260200160002060405180610120016040529081600082015481526020016001820180546110c190612036565b80601f01602080910402602001604051908101604052809291908181526020018280546110ed90612036565b801561113a5780601f1061110f5761010080835404028352916020019161113a565b820191906000526020600020905b81548152906001019060200180831161111d57829003601f168201915b5050505050815260200160028201805461115390612036565b80601f016020809104026020016040519081016040528092919081815260200182805461117f90612036565b80156111cc5780601f106111a1576101008083540402835291602001916111cc565b820191906000526020600020905b8154815290600101906020018083116111af57829003601f168201915b50505091835250506003820154602082015260048201546040820152600582015460ff161515606082015260068201546080820152600782015460a082015260089091015460c0909101529392505050565b6112266114c1565b6001600160a01b03811661125057604051631e4fbdf760e01b815260006004820152602401610513565b610683816119a2565b6112616114c1565b6001600160a01b0381166112af5760405162461bcd60e51b8152602060048201526015602482015274496e76616c696420746f6b656e206164647265737360581b6044820152606401610513565b600780546001600160a01b0319166001600160a01b0392909216919091179055565b6112d961142d565b6001600160a01b038316600090815260026020526040812080549091849183919061130590849061206a565b9091555050426004820155611319846116ea565b836001600160a01b03166000805160206123038339815191528484604051610e5c929190612191565b6004602052600090815260409020805460018201805491929161136490612036565b80601f016020809104026020016040519081016040528092919081815260200182805461139090612036565b80156113dd5780601f106113b2576101008083540402835291602001916113dd565b820191906000526020600020905b8154815290600101906020018083116113c057829003601f168201915b505050506002830154600384015460048501546005909501549394919390925060ff1686565b60026001540361142657604051633ee5aeb560e01b815260040160405180910390fd5b6002600155565b600054600160a01b900460ff16156107f45760405163d93c066560e01b815260040160405180910390fd5b6001600160a01b03821660009081526002602052604081208161147a85611a35565b905080156114b8576000818152600460208190526040909120908101546064906114a4908761215e565b6114ae91906121b2565b93505050506104b4565b50919392505050565b6000546001600160a01b031633146107f45760405163118cdaa760e01b8152336004820152602401610513565b6114f6611abe565b6000805460ff60a01b191690557f5db9ee0a495bf2e6ff9c91a7834c1ba4fdd244a5e8aa4e537bd38aeae4b073aa335b6040516001600160a01b03909116815260200160405180910390a1565b6006805490819060006115558361207d565b90915550506040805160c0810182528281526020808201898152828401899052606083018890526080830187905285151560a08401526000858152600490925292902081518155915190919060018201906115b09082612222565b5060408201516002820155606082015160038201556080820151600482015560a0909101516005909101805460ff1916911515919091179055505050505050565b6005805490819060006116038361207d565b9190505550604051806101200160405280828152602001898152602001888152602001878152602001868152602001600115158152602001858152602001848152602001838152506003600083815260200190815260200160002060008201518160000155602082015181600101908161167d9190612222565b50604082015160028201906116929082612222565b50606082015160038201556080820151600482015560a082015160058201805460ff191691151591909117905560c0820151600682015560e08201516007820155610100909101516008909101555050505050505050565b6001600160a01b03811660009081526002602052604081208054909190611713906064906121b2565b61171e90600161206a565b9050816002015481111561177257600282018190556040518181526001600160a01b038416907f91e51c29e7e87a74ad3b8ccba98538970f50a4309242735467f41e27c6b0fbac9060200160405180910390a25b505050565b6001600160a01b038116600090815260026020526040902060015b6005548111611772576000818152600360205260409020600581015460ff1680156117ce5750600082815260058401602052604090205460ff16155b801561180857508060060154836006016040516117f69064737761707360d81b815260050190565b90815260200160405180910390205410155b801561183c5750600781015460405165766f6c756d6560d01b81526006808601910190815260200160405180910390205410155b80156118705750600881015460405165636861696e7360d01b81526006808601910190815260200160405180910390205410155b1561198f5760008281526005840160205260408120805460ff19166001179055600384018054916118a08361207d565b919050555080600301548360000160008282546118bd919061206a565b909155505060048101546001840180546000906118db90849061206a565b92505081905550836001600160a01b03167f5808713f30d1d277897adb26ef9590a7ff17fddbde59fbfc3139ad01929ce4218383600101604051611920929190612096565b60405180910390a2836001600160a01b031660008051602061230383398151915282600301546040516119539190612129565b60405180910390a2836001600160a01b03166000805160206122e383398151915282600401546040516119869190612129565b60405180910390a25b508061199a8161207d565b915050611792565b600080546001600160a01b038381166001600160a01b0319831681178455604051919092169283917f8be0079c531659141344cd1fd0a4f28419497f9722a3daafe3b4186f6b6457e09190a35050565b6119fa61142d565b6000805460ff60a01b1916600160a01b1790557f62e78cea01bee320cd4e420270b5ea74000d11b0c9f74754ebdbfc544b05a2586115263390565b6001600160a01b038116600090815260026020526040812060015b6006548111611ab4576000818152600460205260409020600581015460ff168015611a8057506002810154835410155b8015611a9457508060030154836001015410155b15611aa157509392505050565b5080611aac8161207d565b915050611a50565b5060009392505050565b600054600160a01b900460ff166107f457604051638dfc202b60e01b815260040160405180910390fd5b80356001600160a01b0381168114611aff57600080fd5b919050565b60008060408385031215611b1757600080fd5b611b2083611ae8565b946020939093013593505050565b600060208284031215611b4057600080fd5b611b4982611ae8565b9392505050565b600060208284031215611b6257600080fd5b5035919050565b60005b83811015611b84578181015183820152602001611b6c565b50506000910152565b60008151808452611ba5816020860160208601611b69565b601f01601f19169290920160200192915050565b60006101208b8352806020840152611bd38184018c611b8d565b90508281036040840152611be7818b611b8d565b60608401999099525050608081019590955292151560a085015260c084019190915260e0830152610100909101529392505050565b634e487b7160e01b600052604160045260246000fd5b600082601f830112611c4357600080fd5b813567ffffffffffffffff80821115611c5e57611c5e611c1c565b604051601f8301601f19908116603f01168101908282118183101715611c8657611c86611c1c565b81604052838152866020858801011115611c9f57600080fd5b836020870160208301376000602085830101528094505050505092915050565b801515811461068357600080fd5b600080600080600060a08688031215611ce557600080fd5b853567ffffffffffffffff811115611cfc57600080fd5b611d0888828901611c32565b9550506020860135935060408601359250606086013591506080860135611d2e81611cbf565b809150509295509295909350565b600080600080600080600060e0888a031215611d5757600080fd5b873567ffffffffffffffff80821115611d6f57600080fd5b611d7b8b838c01611c32565b985060208a0135915080821115611d9157600080fd5b50611d9e8a828b01611c32565b979a9799505050506040860135956060810135956080820135955060a0820135945060c09091013592509050565b60008060008060808587031215611de257600080fd5b611deb85611ae8565b9350602085013592506040850135611e0281611cbf565b9396929550929360600135925050565b60008060408385031215611e2557600080fd5b611e2e83611ae8565b9150602083013567ffffffffffffffff811115611e4a57600080fd5b611e5685828601611c32565b9150509250929050565b600080600060608486031215611e7557600080fd5b611e7e84611ae8565b925060208401359150604084013567ffffffffffffffff811115611ea157600080fd5b611ead86828701611c32565b9150509250925092565b60208152815160208201526000602083015160c06040840152611edd60e0840182611b8d565b90506040840151606084015260608401516080840152608084015160a084015260a0840151151560c08401528091505092915050565b602081528151602082015260006020830151610120806040850152611f3c610140850183611b8d565b91506040850151601f19858403016060860152611f598382611b8d565b92505060608501516080850152608085015160a085015260a0850151611f8360c086018215159052565b5060c085015160e085015260e0850151610100818187015280870151838701525050508091505092915050565b86815260c060208201526000611fc960c0830188611b8d565b905085604083015284606083015283608083015282151560a0830152979650505050505050565b60006020828403121561200257600080fd5b8151611b4981611cbf565b634e487b7160e01b600052601160045260246000fd5b818103818111156104b4576104b461200d565b600181811c9082168061204a57607f821691505b602082108103610fdd57634e487b7160e01b600052602260045260246000fd5b808201808211156104b4576104b461200d565b60006001820161208f5761208f61200d565b5060010190565b82815260006020604081840152600084546120b081612036565b80604087015260606001808416600081146120d257600181146120ec5761211a565b60ff1985168984015283151560051b89018301955061211a565b896000528660002060005b858110156121125781548b82018601529083019088016120f7565b8a0184019650505b50939998505050505050505050565b908152604060208201819052601490820152731858da1a595d995b595b9d17dd5b9b1bd8dad95960621b606082015260800190565b80820281158282048414176104b4576104b461200d565b60008251612187818460208701611b69565b9190910192915050565b8281526040602082015260006121aa6040830184611b8d565b949350505050565b6000826121cf57634e487b7160e01b600052601260045260246000fd5b500490565b601f82111561177257600081815260208120601f850160051c810160208610156121fb5750805b601f850160051c820191505b8181101561221a57828155600101612207565b505050505050565b815167ffffffffffffffff81111561223c5761223c611c1c565b6122508161224a8454612036565b846121d4565b602080601f831160018114612285576000841561226d5750858301515b600019600386901b1c1916600185901b17855561221a565b600085815260208120601f198616915b828110156122b457888601518255948401946001909101908401612295565b50858210156122d25787850151600019600388901b60f8161c191681555b5050505050600190811b0190555056fe20d1203ad04af96695a6de2e92289c50b68bd139de21fe5249b4ba5837fe297ab51b16cb4103a8ce441e52afe5cfabab49df83ba6b570adcde7724f975bdf7d0a264697066735822122059d21b839ecdebc87faa3d9e0d4898faa91e0f7fcfb38dcaebb60fe62a09f5fe64736f6c63430008140033",
  "linkReferences": {},
  "deployedLinkReferences": {}
}